:100000000C94B5000C945E020C94D2000C94D200B7
:100010000C94D2000C94D2000C94D2000C94D20018
:100020000C94D2000C9426020C94D2000C94D200B2
:100030000C94D2000C94D2000C94D2000C94D200F8
:100040000C94D2000C94D2000C94AA090C94D20007
:100050000C94D2000C94D2000C94D2000C94D200D8
:100060000C94D2000C94D2006E616E00696E660032
:1000700000407A10F35A00A0724E18090010A5D45F
:10008000E80000E87648170000E40B54020000CABC
:100090009A3B000000E1F505000080969800000002
:1000A00040420F000000A086010000001027000061
:1000B0000000E803000000006400000000000A00E7
:1000C000000000000100000000002C76D888DC67EA
:1000D0004F0823DFC1DFAE59E1B1B796E5E3E45342
:1000E000C63AE651997696E8E6C28426EB898C9B5F
:1000F00062ED407C6FFCEFBC9C9F40F2BAA56FA5FF
:10010000F490055A2AF75C936B6CF9676DC11BFC80
:10011000E0E40D47FEF520E6B500D0ED902E03009B
:10012000943577050080841E080000204E0A0000E8
:1001300000C80C333333330F986E12831141EF8DA7
:100140002114893BE65516CFFEE6DB18D1844B38E7
:100150001BF77C1D901DA4BBE424203284725E2218
:100160008100C9F124ECA1E53D2711241FBECFEF8A
:10017000D8E0DEBFCDBF12E0A0E0B1E0EAE9F9E2ED
:1001800002C005900D92A632B107D9F722E0A6E28F
:10019000B2E001C01D92A638B207E1F70E948E0EB0
:1001A0000C94CB140C940000549853985C985B9872
:1001B0000895813039F0823049F489B183FB882772
:1001C00080F9089589B182958170089580E008953D
:1001D000CF92DF92EF92FF92CF93DF93EB018823D0
:1001E00079F0813051F584E090E00E9497146B0122
:1001F0007C01688379838A839B8380E090E00CC0D4
:100200008CE090E00E9497146B017C0168837983F5
:100210008A839B8388E090E00E949714C616D706D5
:10022000E806F90611F082E009C081E0CF20CE2077
:10023000CD20C09419F080E001C084E0DF91CF911F
:10024000FF90EF90DF90CF900895CF92DF92EF92E2
:10025000FF92CF93DF93EB018823D9F08130E1F552
:10026000488159816A817B8184E090E00E94AF14CB
:10027000488159816A817B8180E090E00E94AF14BF
:1002800084E090E00E9497146B017C0180E090E094
:1002900018C0488159816A817B818CE090E00E947E
:1002A000AF14488159816A817B8188E090E00E9487
:1002B000AF148CE090E00E9497146B017C0188E001
:1002C00090E00E949714C616D706E806F90611F4C6
:1002D00080E003C085E001C084E0DF91CF91FF9012
:1002E000EF90DF90CF900895DF92EF92FF920F93FF
:1002F0001F93CF93DF93623049F0633061F0613038
:1003000011F5C0E1D0E001E110E009C0C4E1D0E0A6
:1003100005E110E004C0C2E1D0E003E110E07C019F
:10032000C8010E948F14D82EF7018083CE010E944D
:100330008F14D81651F06FE7C8010E949D146FE723
:10034000CE010E949D1482E001C080E0DF91CF9138
:100350001F910F91FF90EF90DF900895EF92FF9221
:100360000F931F93CF93DF93623049F0633061F0B6
:10037000613011F5C0E1D0E001E110E009C0C4E155
:10038000D0E005E110E004C0C2E1D0E003E110E0FC
:100390007C01FC016081C8010E949D14F70160810D
:1003A000CE010E949D14C8010E948F14182FCE0107
:1003B0000E948F14181711F085E001C080E0DF91D2
:1003C000CF911F910F91FF90EF9008950F931F937E
:1003D000CF938C0185E190E00E948F14C82FF80123
:1003E000808384E190E00E948F14C81761F06FE76A
:1003F00085E190E00E949D146FE784E190E00E9407
:100400009D1482E001C080E0CF911F910F9108956B
:10041000CF93DF93EC01688185E190E00E949D1409
:10042000688184E190E00E949D1485E190E00E9443
:100430008F14C82F84E190E00E948F14C81711F028
:1004400085E001C080E0DF91CF9108951F920F9267
:100450000FB60F9211248F939F93AF93BF93809108
:10046000790290917A02A0917B02B0917C021816D9
:1004700019061A061B067CF00196A11DB11D80937A
:10048000790290937A02A0937B02B0937C0281E080
:10049000809377020AC01092790210927A02109229
:1004A0007B0210927C0210927702BF91AF919F91D4
:1004B0008F910F900FBE0F901F9018951F920F9263
:1004C0000FB60F9211248F9381E0809376028F9163
:1004D0000F900FBE0F901F9018950895CF93DF9344
:1004E000D82F0E94D900882311F080E00FC0C5E604
:1004F0008D2F0E94D900811109C08FE59AEE0197D6
:10050000F1F700C00000C15099F7EFCFDF91CF9114
:10051000089520E040E060E080E00E940A098091B8
:100520008502823019F120E040E060E081E00E9425
:100530000A0981E00E946E028823C1F020E040E0B9
:1005400061E080E00E940A0982E00E946E02882336
:1005500069F020E040E060E081E00E940A0981E06B
:100560000E946E0281110BC083E0089520E040E0FC
:1005700060E080E00E940A0980918502089582E08F
:1005800008950F931F93CF93DF9300D000D0CDB782
:10059000DEB781E00E94D9008823B1F000E09DC061
:1005A00081E00E94D900811111C0812F0E941F0992
:1005B0002FEF84E39CE0215080409040E1F700C0A1
:1005C0000000110F193060F311E0EACF83E00E94C0
:1005D0006F0A69837A838B839C83BE016F5F7F4F31
:1005E00080E00E9425018111D9CF81E00E94D900CD
:1005F0008823F9F021E041E061E081E00E940A09EE
:100600002FEF81EE94E0215080409040E1F700C050
:10061000000020E040E060E080E00E940A092FEF47
:1006200081EE94E0215080409040E1F700C000004E
:10063000DCCF82E00E94D9008111B0CF82E00E941D
:10064000D900082F811116C0812F0E941F092FEF9A
:1006500084E39CE0215080409040E1F700C000001E
:10066000812F90E095958795009711F0182FE6CF90
:1006700018E0E4CF83E00E946F0A69837A838B835A
:100680009C83BE016F5F7F4F81E00E942501811135
:1006900085CF82E00E94D9008823F9F021E041E073
:1006A00061E081E00E940A092FEF81EE94E0215081
:1006B00080409040E1F700C0000020E040E060E0B2
:1006C00080E00E940A092FEF81EE94E021508040E3
:1006D0009040E1F700C00000DCCF802F0F900F901A
:1006E0000F900F90DF91CF911F910F910895F89483
:1006F00044981092B0001092B20081E08093700094
:1007000097E09093B1008093770283B7817F8660F2
:1007100083BF83B7816083BF28E030E080E80FB6F5
:10072000F89480936100209361000FBE78948895BF
:100730000895FFCFF89484B7877F84BFE0E6F0E0A8
:1007400080818861808310820895F8948FE080937F
:10075000600008950E94A503FFCF1F93CF93DF93FE
:10076000882359F1162FC82FDBE081E00E94D900C1
:10077000811123C0812F0E941F092FEF84E39CE089
:10078000215080409040E1F700C00000D15069F74F
:1007900065E081E00E947E0664E184E091E00E94D1
:1007A00065086FE081E00E947E066C2F70E080E0BB
:1007B00090E040E00E948606FFCFDF91CF911F912D
:1007C0000895529881E0809369008DBB08953C9A0A
:1007D000449A2FEF84E39CE0215080409040E1F761
:1007E00000C000000E94D9052FEF81EE94E0215057
:1007F00080409040E1F700C000000E9400082FEF09
:1008000080E792E0215080409040E1F700C0000076
:100810000E94E1034AE051E061E080E00E94AC0800
:100820000E9401092FEF89E698E121508040904015
:10083000E1F700C0000043E151E061E080E00E9488
:10084000AC080E94D4002FEF89E698E12150804047
:100850009040E1F700C0000040E251E061E080E03C
:100860000E94AC080E9434092FEF89E698E12150DC
:1008700080409040E1F700C000004AE251E061E0B2
:1008800080E00E94AC080E94D704882309F143E36A
:1008900051E061E080E00E94AC082FEF89E698E12A
:1008A000215080409040E1F700C000004FE351E04C
:1008B00061E080E00E94AC080E94B10A2FEF89E657
:1008C00098E1215080409040E1F700C00000089579
:1008D0004BE451E061E080E00E94AC0821E041E09F
:1008E00061E080E00E940A09FFCF0F93F89483B77C
:1008F0008E7F83BF20E030E080E80FB6F8948093CD
:100900006100209361000FBE1092790210927A026A
:1009100010927B0210927C021092B2001092700032
:100920001092B1000E94E7031092770249E551E06E
:1009300061E080E00E94AC0885E892E00E94E60158
:1009400063E00E94AD0380918502813081F042E630
:1009500051E061E080E00E94AC080FE020E040E060
:1009600061E080E00E9476090E94A503FFCF7894A1
:1009700080E00F9108950F931F93CF93DF9300D0E2
:10098000CDB7DEB78B0189839A830E94CD0961E0E0
:1009900089819A810E94F609C8010E941B0A0F9062
:1009A0000F90DF91CF911F910F910C94C609EF9298
:1009B000FF921F93CF93DF93CDB7DEB7A8970FB603
:1009C000F894DEBF0FBECDBFCE0101967C0188E258
:1009D000F70111928A95E9F70E94B80915E08E8116
:1009E0008F34A9F08F818B3491F0B70188EF91E0BB
:1009F0000E94BB04FFEF20E782E0F15020408040DE
:100A0000E1F700C00000115051F780E001C081E023
:100A1000A8960FB6F894DEBF0FBECDBFDF91CF9181
:100A20001F91FF90EF900895EF92FF921F93CF9345
:100A3000DF93CDB7DEB7A8970FB6F894DEBF0FBE31
:100A4000CDBFCE0101967C0188E2F70111928A9513
:100A5000E9F715E0B7018BEF91E00E94BB048B89A9
:100A6000803319F48D89813369F0FFEF29E688E13D
:100A7000F15020408040E1F700C00000115051F7D4
:100A800080E001C081E0A8960FB6F894DEBF0FBEEB
:100A9000CDBFDF91CF911F91FF90EF900895CF923E
:100AA000DF92EF92FF920F931F93CF93DF93CDB717
:100AB000DEB7A8970FB6F894DEBF0FBECDBF6C01AE
:100AC00088E2E82E8E010F5F1F4FF8018E2D1192E4
:100AD0008A95E9F70E941405F82E882329F1F80178
:100AE0001192EA94E9F7B80184E092E00E94BB0415
:100AF0000E94CD0960E08EE092E00E94F6098DE050
:100B00000E94D4098AE00E94D409C8010E941B0AED
:100B100060E0C6010E94F6098AE10E94D409C8017A
:100B20000E941B0A0E94C6098F2DA8960FB6F89442
:100B3000DEBF0FBECDBFDF91CF911F910F91FF9010
:100B4000EF90DF90CF900895EFE1F3E03197F1F768
:100B500000C000002C982D9898B1907F98B998B15A
:100B6000282F22952F70922B98B92D9AEFE1F3E060
:100B70003197F1F700C000002D98EFECF7E03197C6
:100B8000F1F700C0000098B1907F98B998B18F70CC
:100B9000892B88B92D9A8FE193E00197F1F700C076
:100BA00000002D98EFECF7E03197F1F700C000005E
:100BB00008958FE493EC0197F1F700C0000087B12E
:100BC0008F6087B9259A249A2C982D9888B1807FB8
:100BD00088B988B1836088B92D9A8FE193E0019735
:100BE000F1F700C000002D988FEC97E00197F1F726
:100BF00000C0000088B1807F88B988B1836088B95F
:100C00002D9A8FE193E00197F1F700C000002D9835
:100C10008FEC97E00197F1F700C0000098E79A95F4
:100C2000F1F788B1836088B92D9A8FE193E001973D
:100C3000F1F700C000002D988FEC97E00197F1F7D5
:100C400000C0000098E79A95F1F788B1807F88B9D5
:100C5000419A2D9A8FE193E00197F1F700C00000CF
:100C60002D988FEC97E00197F1F700C0000098E70E
:100C70009A95F1F788E20E94A40588E00E94A405F5
:100C80008CE00E94A40581E00E94A40586E00C94FB
:100C9000A405EFE1F3E03197F1F700C000002D98D3
:100CA00098B1907F98B998B1282F22952F70922BE8
:100CB00098B92C9A2D9AEFE1F3E03197F1F700C043
:100CC00000002D98EFECF7E03197F1F700C000003D
:100CD00098B1907F98B998B18F70892B88B92D9A67
:100CE0008FE193E00197F1F700C000002D98EFEC41
:100CF000F7E03197F1F700C000000895882311F064
:100D000080EC01C080E8862B0C94A4058F929F9202
:100D1000AF92BF92CF92DF92EF92FF920F931F9309
:100D2000CF93DF9300D000D0CDB7DEB76B017C014D
:100D3000042F97FF0AC0F094E094D094C094C11C93
:100D4000D11CE11CF11C11E001C010E084E00E9404
:100D5000A405C114D104E104F10421F480E30E944C
:100D6000490626C0C701B6012AE0822E912CA12C8B
:100D7000B12CA50194010E94BC1080E3860F298349
:100D80003A834B835C830E9449062981622F3A8112
:100D9000732F4B81842F5C81952F6115710581051F
:100DA000910539F78AE0C816D104E104F10418F47A
:100DB00080E30E944906112319F08DE20E94490642
:100DC000002361F080E20E94490680E20E94490609
:100DD00080E20E94490680E20E94490686E00F9068
:100DE0000F900F900F90DF91CF911F910F91FF9077
:100DF000EF90DF90CF90BF90AF909F908F900C942A
:100E0000A405AF92BF92CF92DF92EF92FF920F9321
:100E10001F93CF93DF931F92CDB7DEB78C01A62E21
:100E2000F42E84E00E94A4050115110549F480E325
:100E30000E944906BB24B3940A2DAA0C110B15C0BD
:100E4000B12C8AE0C82ED12CC801B6010E94A8108E
:100E5000E62E805D79830E9449060E2D7981172F39
:100E6000B3940115110581F7E7CF98012B193109CA
:100E7000B7FC3395121613062CF4B3948F2D0E94F1
:100E80004906F3CF86E00F90DF91CF911F910F912C
:100E9000FF90EF90DF90CF90BF90AF900C94A4059F
:100EA0008F929F92AF92BF92CF92DF92EF92FF927A
:100EB0000F931F93CF93DF9300D0CDB7DEB781158B
:100EC00020E19207A0F066277727681B790B80E066
:100ED00090E00E94D51120E030E048EC50E40E9400
:100EE00063120E94A6114B01CC24C3940FC0BC0115
:100EF00080E090E00E94D51120E030E048EC50E422
:100F00000E9463120E94A6114B01C12CC4010A97D2
:100F10008A35910530F0F12C8AE08816910428F08A
:100F200002C0FF24F394D12C02C0DD24D39484E0CA
:100F30000E94A4058114910431F08401E12C8AE01F
:100F4000A82EB12C09C080E30E94490622C00115D9
:100F50001105F9F0E11015C0C801B5010E94A810F3
:100F6000972F062F172FE39422E0E212F0CF8EE2A4
:100F700069837A830E94490669819A810115110566
:100F800041F0862FB5010E94A810805D0E9449069D
:100F9000E3CFFF2019F080E30E944906DD2049F0ED
:100FA00080E30E9449068EE20E94490680E30E9487
:100FB0004906CC2011F08DE201C08BE20E94490667
:100FC000F1100AC0D11008C084E6881A910824E8FC
:100FD000821623E0920618F480E20E94490686E019
:100FE0000F900F90DF91CF911F910F91FF90EF9095
:100FF000DF90CF90BF90AF909F908F900C94A405FE
:1010000081E00E94A4052FEF84E39CE02150804002
:101010009040E1F700C0000008952D982C9888B109
:10102000807F88B987B1807F87B95C9A2D9A82E0EA
:101030008A95F1F700C086B12D9892E09A95F1F764
:1010400000C02D9A92E09A95F1F700C096B12D98C4
:1010500092E09A95F1F700C05C9897B19F6097B9BC
:1010600083FB882780F908950E940D088111FCCF29
:101070002C982D9888B1807F88B987B1807F87B9F7
:101080005C9A8AE08A95F1F700C02C9A2D9A9AE032
:101090009A95F1F700C026B12D9A8FE193E0019760
:1010A000F1F700C000002D988FEC97E00197F1F761
:1010B00000C0000096B15C9887B18F6087B9229517
:1010C000207F892F8F70822B0895FF920F931F939B
:1010D000CF93DF931F92CDB7DEB78C01F12CF801CF
:1010E000EF0DF11D8081882341F0F61631F0698300
:1010F0000E944906F3946981F2CF0F90DF91CF915E
:101100001F910F91FF900895EF92FF920F931F93FD
:10111000CF93DF9300D0CDB7DEB78B0179014A833F
:1011200089830E940008898180680E94A40564E187
:10113000C8010E9465084A81842F806C0E94A40522
:1011400064E1C7010F900F90DF91CF911F910F9134
:10115000FF90EF900C9465080F931F93CF93DF934C
:1011600000D0CDB7DEB78A016A8389830E94000868
:1011700089816A81811103C0862F806C02C0862F0D
:1011800080680E94A40564E1C8010F900F90DF9170
:10119000CF911F910F910C946508CF92DF92EF923F
:1011A000FF92CF93DF9300D0CDB7DEB769017A010C
:1011B0006A8389830E94000889816A81811103C042
:1011C000862F806C02C0862F80680E94A40541E0B3
:1011D000C701B6010F900F90DF91CF91FF90EF9074
:1011E000DF90CF900C94860688E00E94A40580E0F2
:1011F0000E9449062D982C988AE68A95F1F700C03E
:101200000895229A579A569A559A2A985F985E9806
:101210005D980895882311F02A9A01C02A986623C0
:1012200011F05F9A01C05F98442311F05E9A01C0EB
:101230005E98222311F05D9A08955D98089580FFCD
:1012400002C02A9A01C02A9881FF02C05F9A01C099
:101250005F9882FF02C05E9A01C05E9883FF02C061
:101260005D9A08955D98089520E040E060E081E097
:101270000E940A092FEF80E792E0215080409040C1
:10128000E1F700C0000020E040E061E080E00E9463
:101290000A092FEF80E792E0215080409040E1F76B
:1012A00000C0000020E041E060E080E00E940A0908
:1012B0002FEF80E792E0215080409040E1F700C09E
:1012C000000021E040E060E080E00E940A092FEF8A
:1012D00080E792E0215080409040E1F700C000009C
:1012E00020E040E060E080E00C940A09EF92FF9279
:1012F0000F931F93CF93DF93D82F162FF42EE22E48
:10130000C0E0C01701F12E2D4F2D612F8D2F0E94AF
:101310000A092FEF81EE94E0215080409040E1F7E0
:1013200000C0000020E040E060E080E00E940A0988
:101330002FEF81EE94E0215080409040E1F700C013
:101340000000CF5FDECFDF91CF911F910F91FF9013
:10135000EF9008951F920F920FB60F9211248F9362
:101360008091C6008F910F900FBE0F901F9018951F
:1013700083E390E09093C5008093C40088E9809354
:10138000C10086E08093C200789408957894E1ECDF
:10139000F0E08081806880830895F894E1ECF0E0CB
:1013A00080818F778083089520E030E09091C000A5
:1013B00095FD08C02F5F3F4F213197E23907B1F704
:1013C00080E008958093C60081E0089580E090E079
:1013D0002091C00027FD07C00196813127E29207C6
:1013E000B9F783E008958091C60008950F931F9385
:1013F000CF93DF931F92CDB7DEB78C01F8018191B7
:101400008F01882329F069830E94D4096981F6CF6E
:10141000662359F08DE00E94D4098AE00F90DF9195
:10142000CF911F910F910C94D4090F90DF91CF9120
:101430001F910F9108950F931F93CF93DF93EC01AA
:101440008C01095D1F4F8881833031F41882DF9150
:10145000CF911F910F910895C017D107B9F30E9442
:10146000E6098993F0CF8091C6000895609300014A
:10147000709301018093020190930301089583B159
:10148000869581700895CF92DF92EF92FF92CF936D
:101490000E943F0A8111FCCFC8E1C12CD12C7601FA
:1014A000289ACC0CDD1CEE1CFF1C0E943F0A8823EE
:1014B00029F08FEFC81AD80AE80AF80A2898C1500C
:1014C00079F7289A2898289A2898289A2898C7015E
:1014D000B601CF91FF90EF90DF90CF900895CF921B
:1014E000DF92EF92FF92CF93DF938823D9F0C82F3A
:1014F000D0E0C12CD12C76010E94430AC60ED71E23
:10150000E81EF91E82E08A95F1F700C0DF5FDC1368
:10151000F3CF2D2F30E040E050E0C701B6010E942C
:10152000DE1003C020E030E0A901CA01B901DF915B
:10153000CF91FF90EF90DF90CF9008950F931F937E
:101540000E946F0A00910001109101012091020197
:1015500030910301601B710B820B930B1F910F9154
:101560000895209A2198289883E00C949E0A0E945E
:101570006F0A6093000170930101809302019093C0
:1015800003010895289808952898289A089560914D
:101590000001709101018091020190910301089571
:1015A00085EC80937C00EAE7F0E08081866C8083A4
:1015B000EBE7F0E08081808380E280937E000895F5
:1015C00080917A00806480937A0080917A0086FD11
:1015D000FCCF809178009091790008950F931F932C
:1015E000CF93DF930E94E00AEC010E94E00A8C0195
:1015F0000E94E00A800F911F8C0F9D1F63E070E036
:101600000E94A810CB01DF91CF911F910F910895F7
:1016100010927A0008950E94D00A0E94EE0A109259
:101620007A000895A3E1B0E0E8E1FBE00C94FD103E
:101630006C014B012A01FC0117821682838181FF14
:1016400043C3AE014F5F5F4F3A01F6019381F4014E
:1016500093FD859193FF81914F01882309F430C355
:10166000853239F493FD859193FF81914F01853245
:1016700039F4B60190E00E94C91352012501E5CF6B
:1016800010E0F12C20E02032A0F48B3269F030F42D
:10169000803259F0833269F420612CC08D3239F0E8
:1016A000803339F4216026C02260246023C0286082
:1016B00021C027FD27C030ED380F3A3078F426FFDF
:1016C00006C0FAE01F9F300D1124132F13C04AE00B
:1016D000F49E300D1124F32E20620CC08E3221F4C2
:1016E00026FDEEC2206406C08C3611F4206802C0CC
:1016F000883641F4F40193FD859193FF81914F0168
:101700008111C1CF9BEB980F933018F42061805E5C
:1017100006C09BE9980F933008F071C12F7E26FF19
:1017200016E02F73322E853619F42064322E08C04D
:10173000863621F4F22FF0683F2E02C011111150AD
:1017400037FE07C01C3350F4EE24E394E10E27E08B
:101750000BC0183038F027E017E005C027E04CE355
:10176000E42E02C0212FE12C520144E0A40EB11C52
:10177000F20160817181828193810E2DA3010E940B
:10178000D0122C01098100FF02C003FF07C031FC09
:1017900008C032FE09C030E2232E07C02DE2222EFF
:1017A00004C09BE2292E01C0212C802F8C7019F0DF
:1017B000211068C2A8C237FE0FC0E40C04FF04C0A9
:1017C0008A81813309F4EA941E1474F5F8E0FE1559
:1017D00078F588E0E82E2CC036FC2AC0812F90E0F6
:1017E000841595059CF02CEF42162FEF520674F0ED
:1017F000432D4068342E0AC0E2E0F0E0EC0FFD1FFC
:10180000E10FF11D8081803319F411501111F4CFD3
:1018100037FE0EC0EE24E394E10E812F90E04816CF
:1018200059062CF4141904C0EE24E39401C010E00E
:1018300037FE06C01414150434F4C201019605C025
:1018400085E090E002C081E090E021100196112334
:1018500031F0212F30E02F5F3F4F820F931F2F2D4C
:1018600030E08217930714F4F81A01C0F12C832D8D
:10187000897049F4FF2039F0B60180E290E00E94BF
:10188000C913FA94F7CF222029F0B601822D90E0F7
:101890000E94C91333FC09C0FF2039F0B60180E370
:1018A00090E00E94C913FA94F7CF37FE5AC0942DE6
:1018B000852D57FE02C090E080E0292E382E20E0D2
:1018C00030E0A2014E1951095D874C87A2014219EF
:1018D00053095F874E87612F70E044275527461BC9
:1018E000570B598B488B5FEF2516350649F4B60127
:1018F0008EE290E02A8B3B8B0E94C9133B892A8998
:10190000421453046CF04C855D854215530544F434
:10191000EE85FF85E20FF31FE60DF71D818101C003
:1019200080E351E0251A31082F5F3F4F48895989DC
:10193000241635064CF0B60190E02A8B3B8B0E94B2
:10194000C9132A893B89CFCF2414350439F49A81ED
:10195000963318F4953311F404FF81E3B60190E057
:101960004BC08A81813309F00F7EB60190E00E945E
:10197000C913111105C034FC18C085E690E017C0EA
:10198000B6018EE290E00E94C91382E0EE24E39457
:10199000E80EF301E80FF11D8081B60190E00E948E
:1019A000C91311508E2D91F7E6CF85E490E0B60172
:1019B0000E94C91357FC05C04114510439F404FFB7
:1019C00005C05194419451088DE201C08BE2B601EB
:1019D00090E00E94C91380E39AE0491651042CF06C
:1019E0008F5F5AE0451A5108F7CFB60190E00E9488
:1019F000C913B601C201C0960E94C91357C18336EC
:101A000031F0833779F0833509F058C021C0520195
:101A1000E2E0AE0EB11CF2018081898301E010E0AA
:101A2000230114C05201F2E0AF0EB11CF20140805C
:101A3000518026FF03C0612F70E002C06FEF7FEF7F
:101A4000C2012A8B0E94BE138C012A892F7715C0F0
:101A50005201F2E0AF0EB11CF2014080518026FF2E
:101A600003C0612F70E002C06FEF7FEFC2012A8BCD
:101A70000E94A8138C012A892068322E23FD1AC0E7
:101A80008F2D90E008171907A8F4B60180E290E0C6
:101A90000E94C913FA94F4CFF20137FC859137FE06
:101AA00081912F01B60190E00E94C913F110FA94C0
:101AB000015011090115110579F7F8C0843611F0AC
:101AC000893659F5520127FF09C0F4E0AF0EB11C69
:101AD000F20160817181828193810AC0F2E0AF0ED0
:101AE000B11CF20160817181072E000C880B990BEB
:101AF0002F76322E97FF09C090958095709561954D
:101B00007F4F8F4F9F4F2068322E2AE030E0A30195
:101B10000E943114E82EE6183FC0022F853721F4C9
:101B20000F7E2AE030E01DC0097F8F3691F018F457
:101B3000883559F0C5C0803719F0883711F0C0C01A
:101B4000006104FF09C0046007C024FF08C00660EC
:101B500006C028E030E005C020E130E002C020E10E
:101B600032E0520107FF09C0F4E0AF0EB11CF201F0
:101B7000608171818281938108C0F2E0AF0EB11C57
:101B8000F2016081718180E090E0A3010E94311434
:101B9000E82EE6180F77302E36FE0BC0332D3E7F31
:101BA000E11650F434FE0AC032FC08C0332D3E7EEC
:101BB00005C00E2D332D03C00E2D01C0012F34FFA3
:101BC0000CC0FE01EE0DF11D8081803311F4397ED1
:101BD00008C032FF05C00E5F04C0832F867809F06D
:101BE0000F5F33FD13C030FF06C01E2D0F1518F414
:101BF0001F0D101B0F2D0F1568F4B60180E290E049
:101C00003B8B0E94C9130F5F3B89F5CF0F1510F472
:101C1000F01A01C0F12C34FF12C0B60180E390E04D
:101C20003B8B0E94C9133B8932FF17C031FD03C0B3
:101C300088E790E002C088E590E0B6010CC0832FF1
:101C4000867859F031FF02C08BE201C080E237FD97
:101C50008DE2B60190E00E94C913E11638F4B60196
:101C600080E390E00E94C9131150F7CFEA94F3018A
:101C7000EE0DF11D8081B60190E00E94C913E110C4
:101C8000F5CF14C0F4E0FF1558F584E0F81A33FEE0
:101C90001EC0211026C003FF2AC008E610E0F32D65
:101CA000F0713F2EF8018491811124C0FF2009F4C6
:101CB000E5CCB60180E290E00E94C913FA94F6CF19
:101CC000F6018681978126C08FEF9FEF23C0B60172
:101CD00080E290E00E94C913FA94F110F8CFD9CFB6
:101CE000F12CB601822D90E00E94C913D4CF0CE6EE
:101CF00010E0D5CF31108052B60190E00E94C91398
:101D00000F5F1F4FCFCF23E02F1510F483E0BECF1E
:101D1000F12CC1CF6396E2E10C941911CF93DF93BC
:101D20001F92CDB7DEB73C9A449A0E949A030E9454
:101D3000E70349E551E061E080E00E94AC0885E8F6
:101D400092E00E94E60163E00E94AD0341E751E0AA
:101D500061E080E00E94AC080AE020E040E060E042
:101D600081E00E9476090E94890280938502823078
:101D700009F04EC04DE751E061E080E00E94AC0800
:101D80002FEF84E39CE0215080409040E1F700C0B9
:101D900000000E94C102882329F181E08983CE01DD
:101DA00001960E940802811107C021E041E061E034
:101DB00081E00E940A092CC020E041E061E080E05F
:101DC0000E940A0949E851E061E080E00E94AC0805
:101DD000EFEFF1E12AE7E150F0402040E1F700C0E9
:101DE0000000FFCF21E040E060E081E00E940A09AE
:101DF00049E851E061E080E00E94AC088FEF91E19A
:101E0000EAE781509040E040E1F700C00000FFCFDA
:101E10004FE851E061E080E00E94AC0861E872E0C8
:101E200080E00E94E80065E00E94AD034FE851E0C9
:101E300061E080E00E94AC086DE772E081E00E9402
:101E4000E80069E00E94AD03609181027091820216
:101E500080918302909184020E94360A4CE951E0FD
:101E600061E080E00E94AC086AE081E00E947E06AA
:101E70006091850270E080E090E041E00E9486067B
:101E8000FFEF21E18AE7F15020408040E1F700C0F8
:101E900000006FE081E00E947E06609181027091F7
:101EA0008202809183029091840241E00E94860622
:101EB0006FE080E00E947E0660917D0270917E025C
:101EC00080917F029091800241E00E9486069FEF00
:101ED000E1E1FAE79150E040F040E1F700C0000096
:101EE00020E040E060E080E00E940A090E940008D3
:101EF00081EAC82E81E0D82E98E2F92E0EE412E095
:101F000026E2822E22E0922E33ECA32E31E0B32E75
:101F100083E00E949E0A0E94D7112B013C01809110
:101F20007D0290917E02A0917F02B091800220916B
:101F30008102309182024091830250918402BC015F
:101F4000CD01621B730B840B950B0E94D7119B0173
:101F5000AC01C301B2010E9434119F938F937F9310
:101F60006F93DF92CF921F92FF921F930F930E9465
:101F700001144EE452E060E080E00E94AC082FEFD4
:101F800089E698E1215080409040E1F700C00000D0
:101F9000F4012F2D11922A95E9F70FB6F894DEBFC0
:101FA0000FBECDBF80917602882341F066EA71E0D2
:101FB00086E292E00E94B313109276026EEA71E01C
:101FC00086E292E00E94B3136EE472E086E292E051
:101FD0000E94B3134EE452E061E080E00E94AC083E
:101FE0009FEFE9E6F8E19150E040F040E1F700C0F2
:101FF000000061EB71E086E292E00E94B313F80109
:102000002F2D11922A95E9F746EB51E061E080E02F
:102010000E94AC088FEF99E6E8E181509040E040E3
:10202000E1F700C000000E940B0BBC0180E090E0D3
:102030000E94D51120E030E04AE253E40E943411BE
:102040009F938F937F936F93BF92AF921F92FF9254
:102050001F930F930E94011468EC71E08EE492E0EC
:102060000E94B3132EE432E044E06AEC71E080E0B9
:102070000E948408FFEF29E688E1F150204080406B
:10208000E1F700C000006EE472E086E292E00E9498
:10209000B31326E232E040E063ED71E080E00E949D
:1020A00084089FEFE9E6F8E19150E040F040E1F765
:1020B00000C000002FEF89E698E121508040904059
:1020C000E1F700C00000EFEFF9E628E1E150F04051
:1020D0002040E1F700C000004DED51E061E080E0FC
:1020E0000E94AC088FEF99E6E8E181509040E04013
:1020F000E1F700C000000E94F408FFEF20E782E053
:10210000F15020408040E1F700C000000FB6F89485
:10211000DEBF0FBECDBF0E94770380917602811192
:1021200010927702809177028111F5CF0E94750499
:102130004AEE51E061E080E00E94AC08FFEF29E642
:1021400088E1F15020408040E1F700C00000E0CE7F
:10215000AA1BBB1B51E107C0AA1FBB1FA617B707CD
:1021600010F0A61BB70B881F991F5A95A9F78095E9
:102170009095BC01CD010895A1E21A2EAA1BBB1BAC
:10218000FD010DC0AA1FBB1FEE1FFF1FA217B30743
:10219000E407F50720F0A21BB30BE40BF50B661F59
:1021A000771F881F991F1A9469F76095709580951D
:1021B00090959B01AC01BD01CF010895052E97FBC1
:1021C0001EF400940E94F51057FD07D00E94BC1029
:1021D00007FC03D04EF40C94F510509540953095C3
:1021E00021953F4F4F4F5F4F089590958095709583
:1021F00061957F4F8F4F9F4F08952F923F924F923F
:102200005F926F927F928F929F92AF92BF92CF9286
:10221000DF92EF92FF920F931F93CF93DF93CDB78F
:10222000DEB7CA1BDB0B0FB6F894DEBF0FBECDBF07
:1022300009942A88398848885F846E847D848C84D8
:102240009B84AA84B984C884DF80EE80FD800C81E1
:102250001B81AA81B981CE0FD11D0FB6F894DEBFC4
:102260000FBECDBFED0108950E9448110C942912B4
:102270000E94221258F00E941B1240F029F45F3F86
:1022800029F00C94121251110C945D120C94181236
:102290000E943A1268F39923B1F3552391F3951BE9
:1022A000550BBB27AA2762177307840738F09F5F77
:1022B0005F4F220F331F441FAA1FA9F335D00E2EE4
:1022C0003AF0E0E832D091505040E695001CCAF751
:1022D0002BD0FE2F29D0660F771F881FBB1F261714
:1022E00037074807AB07B0E809F0BB0B802DBF01EB
:1022F000FF2793585F4F3AF09E3F510578F00C94BA
:1023000012120C945D125F3FE4F3983ED4F386956D
:1023100077956795B795F7959F5FC9F7880F911DDA
:102320009695879597F90895E1E0660F771F881FC6
:10233000BB1F621773078407BA0720F0621B730B79
:10234000840BBA0BEE1F88F7E09508950E944212A5
:1023500088F09F5798F0B92F9927B751B0F0E1F066
:10236000660F771F881F991F1AF0BA95C9F714C016
:10237000B13091F00E945C12B1E008950C945C12AF
:10238000672F782F8827B85F39F0B93FCCF386954F
:1023900077956795B395D9F73EF4909580957095AC
:1023A00061957F4F8F4F9F4F0895E89409C097FB29
:1023B0003EF490958095709561957F4F8F4F9F4F1C
:1023C0009923A9F0F92F96E9BB279395F695879560
:1023D00077956795B795F111F8CFFAF4BB0F11F423
:1023E00060FF1BC06F5F7F4F8F4F9F4F16C08823CA
:1023F00011F096E911C0772321F09EE8872F762F00
:1024000005C0662371F096E8862F70E060E02AF040
:102410009A95660F771F881FDAF7880F969587952C
:1024200097F9089597F99F6780E870E060E0089554
:102430009FEF80EC089500240A94161617061806DC
:102440000906089500240A941216130614060506B8
:102450000895092E0394000C11F4882352F0BB0F49
:1024600040F4BF2B11F460FF04C06F5F7F4F8F4FAC
:102470009F4F089557FD9058440F551F59F05F3FE7
:1024800071F04795880F97FB991F61F09F3F79F096
:1024900087950895121613061406551FF2CF469518
:1024A000F1DF08C0161617061806991FF1CF86959A
:1024B0007105610508940895E894BB27662777277E
:1024C000CB0197F908950E9476120C9429120E946C
:1024D0001B1238F00E94221220F0952311F00C9468
:1024E00012120C94181211240C945D120E943A12CC
:1024F00070F3959FC1F3950F50E0551F629FF00157
:10250000729FBB27F00DB11D639FAA27F00DB11D6F
:10251000AA1F649F6627B00DA11D661F829F2227F8
:10252000B00DA11D621F739FB00DA11D621F839F7F
:10253000A00D611D221F749F3327A00D611D231F55
:10254000849F600D211D822F762F6A2F11249F57A3
:1025500050409AF0F1F088234AF0EE0FFF1FBB1FA6
:10256000661F771F881F91505040A9F79E3F510565
:1025700080F00C9412120C945D125F3FE4F3983ECD
:10258000D4F3869577956795B795F795E7959F5F0F
:10259000C1F7FE2B880F911D9695879597F90895A1
:1025A000283008F027E03327DA01990F311D87FD25
:1025B000916000966105710539F432602E5F3D939C
:1025C00030E32A95E1F708959F3F30F08038710598
:1025D000610509F03C5F3C5F3D93913008F08068F5
:1025E000911DDF93CF931F930F93FF92EF92192FBB
:1025F000987F9695E92F96959695E90FFF27E653D4
:10260000FF4F99273327EE24FF24A701E701059008
:102610000894079428F4360FE71EF81E491F511D31
:10262000660F771F881F991F0694A1F705900794DE
:1026300028F4E70EF81E491F561FC11D770F881F8B
:10264000991F661F0694A1F70590079428F4F80EC9
:10265000491F561FC71FD11D880F991F661F771F5F
:102660000694A1F70590079420F4490F561FC71F41
:10267000D81F990F661F771F881F0694A9F78491AA
:102680001095177041F0D695C79557954795F794D3
:10269000E7941A95C1F7E0E7F0E06894159015917A
:1026A00035916591959105907FE27395E118F10A56
:1026B000430B560BC90BD009C0F7E10CF11E431FA9
:1026C000561FC91FD01D7EF4703311F48A95E6CFD2
:1026D000E894015030F0080F0AF40027021708F4BC
:1026E000202F2395022F7A3328F079E37D932A95C2
:1026F000E9F710C07D932A9589F60694979567951A
:10270000379517951794E118F10A430B560BC90B2F
:10271000D00998F023957E9173957A3308F070E391
:102720007C932013B8F77E9170617D9330F0839590
:1027300071E37D9370E32A95E1F71124EF90FF9008
:102740000F911F91CF91DF91992787FD9095089563
:10275000FC010590615070400110D8F7809590956C
:102760008E0F9F1F0895FB01DC010D900020E9F7FB
:10277000119701900D920020E1F70895FC0161503E
:10278000704001900110D8F7809590958E0F9F1F93
:1027900008950F931F93CF93DF93FB01238121FDB6
:1027A00003C08FEF9FEF28C022FF16C046815781DC
:1027B000248135814217530744F4A081B1819D01E2
:1027C0002F5F3F4F318320838C93268137812F5F8A
:1027D0003F4F3783268310C0EB01092F182F008449
:1027E000F185E02D0995892BE1F68E819F81019677
:1027F0009F838E83812F902FDF91CF911F910F9117
:102800000895AEE0B0E0E7E0F4E10C940B110D891F
:102810001E898F89988D26E02C831A83098397FF60
:1028200002C080E090E801979E838D83AE01455EF3
:102830005F4F698D7A8DCE0101960E94120B4D81FA
:102840005E8157FD0AC02F813885421753070CF46B
:102850009A01F801E20FF31F10822E96E4E00C9427
:102860002711FA01AA27283051F1203181F1E8948B
:102870006F936E7F6E5F7F4F8F4F9F4FAF4FB1E073
:102880003ED0B4E03CD0670F781F891F9A1FA11D6E
:10289000680F791F8A1F911DA11D6A0F711D811D6F
:1028A000911DA11D20D009F468943F912AE0269F34
:1028B00011243019305D3193DEF6CF010895462F93
:1028C0004770405D4193B3E00FD0C9F7F6CF462F74
:1028D0004F70405D4A3318F0495D31FD40524193DD
:1028E00002D0A9F7EACFB4E0A6959795879577959A
:1028F0006795BA95C9F700976105710508959B0121
:10290000AC010A2E06945795479537952795BA95A9
:10291000C9F7620F731F841F951FA01D0895F999B1
:10292000FECF92BD81BDF89A992780B50895A6E1A2
:10293000B0E044E050E00C94BD14262FF999FECF8E
:1029400092BD81BDF89A019700B4021639F01FBA02
:1029500020BD0FB6F894FA9AF99A0FBE089503961F
:10296000272F0E949E140E949D14252F0E949E14C2
:10297000242F0C949E14DC01CB01FC01F999FECFAD
:1029800006C0F2BDE1BDF89A319600B40D924150F7
:0A2990005040B8F70895F894FFCF07
:10299A00C09121004572726F72004C454420494E25
:1029AA00495400425554544F4E535F494E495400BE
:1029BA00434845434B204C45440047534D20494E1C
:1029CA0049540047534D20494E4954204F4B005714
:1029DA00454947485420494E49540047534D2049D8
:1029EA004E4954204641494C00474554204D4F44D6
:1029FA0045004E4F5420574F524B204D4F444521CE
:102A0A0000434C4252204D4F4445203F0050415311
:102A1A0053434F4445204F4B004552524F520047B3
:102A2A004554494E47205A574748540052203D20A2
:102A3A0000252E336600414C41524D212000573A61
:102A4A00003B20423A00454E54455220544F204103
:102A5A00444300252E3266005600564F4C544147D7
:102A6A00453A0053454E4420534D533A00454E547F
:102A7A00455220544F2050534D0045584954204642
:102A8A00524F4D2050534D0041540041542B435254
:102A9A0045473F0041542B434D47463D3100415481
:102AAA002B434D47533D222B373932353531393592
:062ABA003232322200005E
:00000001FF
