:100000000C9434000C9451000C9451000C94510049
:100010000C9451000C9451000C9451000C9451001C
:100020000C9451000C94A5010C9451000C945100B7
:100030000C9451000C9451000C9451000C945100FC
:100040000C9451000C9451000C942C0A0C94510007
:100050000C9451000C9451000C9451000C945100DC
:100060000C9451000C94510011241FBECFEFD8E026
:10007000DEBFCDBF12E0A0E0B1E0EAE9FEE102C0E0
:1000800005900D92A835B107D9F722E0A8E5B2E0B6
:1000900001C01D92A73BB207E1F70E94920B0C949E
:1000A0004B0F0C940000549853985C985B980895FB
:1000B000813039F0823049F489B183FB882780F997
:1000C000089589B182958170089580E00895CF9256
:1000D000DF92EF92FF92CF93DF93EB01882379F0C9
:1000E000813051F584E090E00E94170F6B017C0194
:1000F000688379838A839B8380E090E00CC08CE0E6
:1001000090E00E94170F6B017C01688379838A83DA
:100110009B8388E090E00E94170FC616D706E8067A
:10012000F90611F082E009C081E0CF20CE20CD2079
:10013000C09419F080E001C084E0DF91CF91FF907E
:10014000EF90DF90CF900895CF92DF92EF92FF92E1
:10015000CF93DF93EB018823D9F08130E1F548811B
:1001600059816A817B8184E090E00E942F0F488151
:1001700059816A817B8180E090E00E942F0F84E0AA
:1001800090E00E94170F6B017C0180E090E018C0A6
:10019000488159816A817B818CE090E00E942F0F19
:1001A000488159816A817B8188E090E00E942F0F0D
:1001B0008CE090E00E94170F6B017C0188E090E0DA
:1001C0000E94170FC616D706E806F90611F480E05C
:1001D00003C085E001C084E0DF91CF91FF90EF90F4
:1001E000DF90CF900895DF92EF92FF920F931F93CD
:1001F000CF93DF93623049F0633061F0613011F5E5
:10020000C0E1D0E001E110E009C0C4E1D0E005E1C7
:1002100010E004C0C2E1D0E003E110E07C01C801BD
:100220000E940F0FD82EF7018083CE010E940F0F7E
:10023000D81651F06FE7C8010E941D0F6FE7CE017D
:100240000E941D0F82E001C080E0DF91CF911F91DD
:100250000F91FF90EF90DF900895EF92FF920F9330
:100260001F93CF93DF93623049F0633061F06130C8
:1002700011F5C0E1D0E001E110E009C0C4E1D0E037
:1002800005E110E004C0C2E1D0E003E110E07C0130
:10029000FC016081C8010E941D0FF7016081CE0141
:1002A0000E941D0FC8010E940F0F182FCE010E943F
:1002B0000F0F181711F085E001C080E0DF91CF919A
:1002C0001F910F91FF90EF9008950F931F93CF937D
:1002D0008C0185E190E00E940F0FC82FF801808308
:1002E00084E190E00E940F0FC81761F06FE785E18D
:1002F00090E00E941D0F6FE784E190E00E941D0FC7
:1003000082E001C080E0CF911F910F910895CF93BB
:10031000DF93EC01688185E190E00E941D0F688108
:1003200084E190E00E941D0F85E190E00E940F0F94
:10033000C82F84E190E00E940F0FC81711F085E0EC
:1003400001C080E0DF91CF9108951F920F920FB608
:100350000F9211248F939F93AF93BF938091AA0222
:100360009091AB02A091AC02B091AD02892B8A2B87
:100370008B2B79F481E090E0A0E0B0E08093AA02BA
:100380009093AB02A093AC02B093AD028093A8020D
:100390000AC01092AA021092AB021092AC02109204
:1003A000AD021092A802BF91AF919F918F910F90D3
:1003B0000FBE0F901F9018950895CF93DF93D82FFD
:1003C0000E945800882311F080E00FC0C5E68D2FF1
:1003D0000E945800811109C08FE59AEE0197F1F74C
:1003E00000C00000C15099F7EFCFDF91CF91089581
:1003F00020E040E060E080E00E948C098091B6023D
:10040000823019F120E040E060E081E00E948C0938
:1004100081E00E94DD018823C1F020E040E061E03E
:1004200080E00E948C0982E00E94DD01882369F04F
:1004300020E040E060E081E00E948C0981E00E94C1
:10044000DD0181110BC083E0089520E040E060E011
:1004500080E00E948C098091B602089582E00895A0
:100460000F931F93CF93DF9300D000D0CDB7DEB7AB
:1004700081E00E9458008823B1F000E09DC081E037
:100480000E945800811111C0812F0E94A1092FEFF5
:1004900084E39CE0215080409040E1F700C00000E0
:1004A000110F193060F311E0EACF83E00E94F10AE6
:1004B00069837A838B839C83BE016F5F7F4F80E06B
:1004C0000E94A4008111D9CF81E00E9458008823A6
:1004D000F9F021E041E061E081E00E948C092FEF1A
:1004E00081EE94E0215080409040E1F700C0000090
:1004F00020E040E060E080E00E948C092FEF81EE78
:1005000094E0215080409040E1F700C00000DCCF33
:1005100082E00E9458008111B0CF82E00E94580012
:10052000082F811116C0812F0E94A1092FEF84E3AB
:100530009CE0215080409040E1F700C00000812FF6
:1005400090E095958795009711F0182FE6CF18E069
:10055000E4CF83E00E94F10A69837A838B839C83D2
:10056000BE016F5F7F4F81E00E94A400811185CFA3
:1005700082E00E9458008823F9F021E041E061E028
:1005800081E00E948C092FEF81EE94E021508040A1
:100590009040E1F700C0000020E040E060E080E033
:1005A0000E948C092FEF81EE94E021508040904012
:1005B000E1F700C00000DCCF802F0F900F900F906C
:1005C0000F90DF91CF911F910F910895F894449867
:1005D0001092B0001092B20081E08093700097E01A
:1005E0009093B1008093A80283B7817F866083BF18
:1005F00083B7816083BF28E030E080E80FB6F894CD
:1006000080936100209361000FBE789488950895CF
:10061000FFCFF89484B7877F84BFE0E6F0E0808165
:100620008861808310820895F8948FE08093600041
:1006300008950E941403FFCF1F93CF93DF93882365
:1006400059F1162FC82FDBE081E00E94580081117C
:1006500023C0812F0E94A1092FEF84E39CE0215049
:1006600080409040E1F700C00000D15069F765E09C
:1006700081E00E94000764E184E091E00E94E708C5
:100680006FE081E00E9400076C2F70E080E090E056
:1006900040E00E940807FFCFDF91CF911F9108959E
:1006A0003C9A449A2FEF84E39CE021508040904094
:1006B000E1F700C000000E945B062FEF81EE94E09E
:1006C000215080409040E1F700C000000E94820865
:1006D0002FEF80E792E0215080409040E1F700C08A
:1006E00000004AE051E061E080E00E942E090E9493
:1006F00083092FEF89E698E1215080409040E1F78F
:1007000000C0000043E151E061E080E00E942E095A
:100710000E9453002FEF89E698E1215080409040DD
:10072000E1F700C0000040E251E061E080E00E949B
:100730002E090E94B6092FEF89E698E121508040EA
:100740009040E1F700C000004AE251E061E080E043
:100750000E942E090E945D058823D1F043E351E0F9
:1007600061E080E00E942E092FEF89E698E1215098
:1007700080409040E1F700C000004FE351E061E0AD
:1007800080E00E942E090E949A0581110EC031C09E
:1007900047E451E061E080E00E942E0921E041E061
:1007A00061E080E00E948C09FFCF45E551E061E007
:1007B00080E00E942E092FEF89E698E121508040C9
:1007C0009040E1F700C0000040E651E061E080E0C9
:1007D0000E942E0960E872E089E691E00E94D5054A
:1007E0008823A1F04DE751E061E080E00E942E09EE
:1007F0000DC040E751E061E080E00E942E0920E05A
:1008000041E061E081E00E948C09FFCF2FEF89E693
:1008100098E1215080409040E1F700C0000049E895
:1008200051E061E080E00E942E090E94330B2FEF1F
:1008300089E698E1215080409040E1F700C0000037
:1008400008950F93F89483B78E7F83BF20E030E044
:1008500080E80FB6F89480936100209361000FBE8A
:100860001092AA021092AB021092AC021092AD024A
:100870001092B200109270001092B1000E945003CA
:100880001092A80245E951E061E080E00E942E0943
:1008900086EB92E00E94650163E00E941C03809158
:1008A000B602813081F04EE951E061E080E00E94C3
:1008B0002E090FE020E040E061E080E00E94F809AE
:1008C0000E941403FFCF789480E00F9108957F92E7
:1008D0008F929F92AF92BF92CF92DF92EF92FF9250
:1008E0000F931F93CF93DF93EC014A015B014115F6
:1008F00051056105704178F08EEF9FEFAFEFBFEFCC
:100900009C01AD01281939094A095B0949015A01BD
:100910007724739401C0712C8091AE029091AF0244
:10092000A091B002B091B102C090B202D090B302D7
:10093000E090B402F090B502C816D906EA06FB06AC
:1009400048F49C01AD012C193D094E095F0969016C
:100950007A0104C0C81AD90AEA0AFB0AC501B4011F
:10096000A70196010E947F0D8901A8EEB3E0A501C1
:1009700094010E94C00DA70196010E947F0DCA013B
:10098000B90128EE33E040E050E00E947F0D462F91
:10099000972FFE019E012D5F3F4F5AE0E52EF12C6F
:1009A000842FB7010E94570D805D8193462F972FAA
:1009B000E217F307A9F78EE28B8334E08AE0E82E92
:1009C000F12CFE01E30FF11DC801B7010E94570D84
:1009D000805D80838B013F5F672B99F7232F30E089
:1009E000772029F08DE2FE01E20FF31F8083F901E9
:1009F0003197EC0FFD1FDE01AE17BF0760F4908149
:100A00008C9189278C939081892780839C91892759
:100A10008D933197F1CFFE01E20FF31F1082CE01CB
:100A2000DF91CF911F910F91FF90EF90DF90CF90CA
:100A3000BF90AF909F908F907F900895FC01862F7C
:100A400062E30E944B0D805D80838EE28183892F5B
:100A500090E065E070E00E946B0D605D628386E56A
:100A60008383CF01089552980895DC0101962C915B
:100A70002111FBCFFB018191882311F08D93FBCFD6
:100A800008950F931F93CF93DF9300D0CDB7DEB7B8
:100A90008B0189839A830E944F0A61E089819A8140
:100AA0000E94780AC8010E949D0A0F900F90DF9162
:100AB000CF911F910F910C94480AEF92FF921F93D0
:100AC000CF93DF93CDB7DEB7A8970FB6F894DEBF0C
:100AD0000FBECDBFCE0101967C0188E2F7011192D5
:100AE0008A95E9F70E943A0A15E08E818F34A9F0C1
:100AF0008F818B3491F0B7018BE292E00E94410527
:100B0000FFEF20E782E0F15020408040E1F700C095
:100B10000000115051F780E001C081E0A8960FB6A7
:100B2000F894DEBF0FBECDBFDF91CF911F91FF9034
:100B3000EF900895EF92FF921F93CF93DF93CDB77D
:100B4000DEB7A8970FB6F894DEBF0FBECDBFCE01BB
:100B500001967C0188E2F70111928A95E9F715E088
:100B6000B7018EE292E00E9441058B89803319F42F
:100B70008D89813369F0FFEF29E688E1F15020404B
:100B80008040E1F700C00000115051F780E001C043
:100B900081E0A8960FB6F894DEBF0FBECDBFDF91FF
:100BA000CF911F91FF90EF900895CF92DF92EF9237
:100BB000FF920F931F93CF93DF93CDB7DEB7A89724
:100BC0000FB6F894DEBF0FBECDBF6C0188E2E82EF1
:100BD0008E010F5F1F4FF8018E2D11928A95E9F754
:100BE0000E949A05F82E882309F1F8011192EA94DF
:100BF000E9F7B80187E392E00E94410560E081E4F3
:100C000092E00E94780A8DE00E94560A8AE00E94D3
:100C1000560AC8010E949D0A60E0C6010E94780A37
:100C20008AE10E94560AC8010E949D0A8F2DA8964B
:100C30000FB6F894DEBF0FBECDBFDF91CF911F91ED
:100C40000F91FF90EF90DF90CF900895EFE1F3E0E8
:100C50003197F1F700C000002C982D9898B1907F43
:100C600098B998B1282F22952F70922B98B92D9A68
:100C7000EFE1F3E03197F1F700C000002D98EFECC1
:100C8000F7E03197F1F700C0000098B1907F98B974
:100C900098B18F70892B88B92D9A8FE193E00197D5
:100CA000F1F700C000002D98EFECF7E03197F1F775
:100CB00000C0000008958FE493EC0197F1F700C0A5
:100CC000000087B18F6087B9259A249A2C982D98B7
:100CD00088B1807F88B988B1836088B92D9A8FE107
:100CE00093E00197F1F700C000002D988FEC97E09A
:100CF0000197F1F700C0000088B1807F88B988B102
:100D0000836088B92D9A8FE193E00197F1F700C0D5
:100D100000002D988FEC97E00197F1F700C00000DC
:100D200098E79A95F1F788B1836088B92D9A8FE199
:100D300093E00197F1F700C000002D988FEC97E049
:100D40000197F1F700C0000098E79A95F1F788B194
:100D5000807F88B9419A2D9A8FE193E00197F1F74E
:100D600000C000002D988FEC97E00197F1F700C0CC
:100D7000000098E79A95F1F788E20E94260688E03D
:100D80000E9426068CE00E94260681E00E9426062C
:100D900086E00C942606EFE1F3E03197F1F700C00E
:100DA00000002D9898B1907F98B998B1282F22957E
:100DB0002F70922B98B92C9A2D9AEFE1F3E031978E
:100DC000F1F700C000002D98EFECF7E03197F1F754
:100DD00000C0000098B1907F98B998B18F70892BAE
:100DE00088B92D9A8FE193E00197F1F700C00000D8
:100DF0002D98EFECF7E03197F1F700C0000008956F
:100E0000882311F080EC01C080E8862B0C94260624
:100E10008F929F92AF92BF92CF92DF92EF92FF920A
:100E20000F931F93CF93DF9300D000D0CDB7DEB7E1
:100E30006B017C01042F97FF0AC0F094E094D094DA
:100E4000C094C11CD11CE11CF11C11E001C010E0D8
:100E500084E00E942606C114D104E104F10421F4C7
:100E600080E30E94CB0626C0C701B6012AE0822E8D
:100E7000912CA12CB12CA50194010E947F0D80E33F
:100E8000860F29833A834B835C830E94CB0629819A
:100E9000622F3A81732F4B81842F5C81952F6115CE
:100EA00071058105910539F78AE0C816D104E1047E
:100EB000F10418F480E30E94CB06112319F08DE2AF
:100EC0000E94CB06002361F080E20E94CB0680E204
:100ED0000E94CB0680E20E94CB0680E20E94CB06F5
:100EE00086E00F900F900F900F90DF91CF911F91A0
:100EF0000F91FF90EF90DF90CF90BF90AF909F90B9
:100F00008F900C942606AF92BF92CF92DF92EF9211
:100F1000FF920F931F93CF93DF931F92CDB7DEB74E
:100F20008C01A62EF42E84E00E94260601151105E0
:100F300049F480E30E94CB06BB24B3940A2DAA0C8B
:100F4000110B15C0B12C8AE0C82ED12CC801B601F6
:100F50000E94570DE62E805D79830E94CB060E2DF0
:100F60007981172FB3940115110581F7E7CF980107
:100F70002B193109B7FC3395121613062CF4B394D0
:100F80008F2D0E94CB06F3CF86E00F90DF91CF919B
:100F90001F910F91FF90EF90DF90CF90BF90AF9097
:100FA0000C9426068F929F92AF92BF92CF92DF92BF
:100FB000EF92FF920F931F93CF93DF9300D0CDB7A3
:100FC000DEB7811520E19207A0F066277727681B1E
:100FD000790B80E090E00E94090E20E030E048ECC0
:100FE00050E40E946F0E0E94DA0D4B01CC24C39492
:100FF0000FC0BC0180E090E00E94090E20E030E0CC
:1010000048EC50E40E946F0E0E94DA0D4B01C12C97
:10101000C4010A978A35910530F0F12C8AE08816D0
:10102000910428F002C0FF24F394D12C02C0DD24E7
:10103000D39484E00E9426068114910431F0840147
:10104000E12C8AE0A82EB12C09C080E30E94CB06D7
:1010500022C001151105F9F0E11015C0C801B50154
:101060000E94570D972F062F172FE39422E0E212CC
:10107000F0CF8EE269837A830E94CB0669819A81E0
:101080000115110541F0862FB5010E94570D805DB5
:101090000E94CB06E3CFFF2019F080E30E94CB062D
:1010A000DD2049F080E30E94CB068EE20E94CB0651
:1010B00080E30E94CB06CC2011F08DE201C08BE2D0
:1010C0000E94CB06F1100AC0D11008C084E6881A2D
:1010D000910824E8821623E0920618F480E20E9428
:1010E000CB0686E00F900F90DF91CF911F910F916B
:1010F000FF90EF90DF90CF90BF90AF909F908F9038
:101100000C94260681E00E9426062FEF84E39CE0E3
:10111000215080409040E1F700C0000008952D98D4
:101120002C9888B1807F88B987B1807F87B95C9A15
:101130002D9A82E08A95F1F700C086B12D9892E051
:101140009A95F1F700C02D9A92E09A95F1F700C0B8
:1011500096B12D9892E09A95F1F700C05C9897B1FE
:101160009F6097B983FB882780F908950E948F08B4
:101170008111FCCF2C982D9888B1807F88B987B1D8
:10118000807F87B95C9A8AE08A95F1F700C02C9A33
:101190002D9A9AE09A95F1F700C026B12D9A8FE129
:1011A00093E00197F1F700C000002D988FEC97E0D5
:1011B0000197F1F700C0000096B15C9887B18F608D
:1011C00087B92295207F892F8F70822B0895FF92F7
:1011D0000F931F93CF93DF931F92CDB7DEB78C0190
:1011E000F12CF801EF0DF11D8081882341F0F616F6
:1011F00031F069830E94CB06F3946981F2CF0F909E
:10120000DF91CF911F910F91FF900895EF92FF9280
:101210000F931F93CF93DF9300D0CDB7DEB78B0131
:1012200079014A8389830E948208898180680E94AB
:10123000260664E1C8010E94E7084A81842F806C79
:101240000E94260664E1C7010F900F90DF91CF91B5
:101250001F910F91FF90EF900C94E7080F931F934D
:10126000CF93DF9300D0CDB7DEB78A016A8389833D
:101270000E94820889816A81811103C0862F806C57
:1012800002C0862F80680E94260664E1C8010F9084
:101290000F90DF91CF911F910F910C94E708CF929F
:1012A000DF92EF92FF92CF93DF9300D0CDB7DEB7FE
:1012B00069017A016A8389830E94820889816A812F
:1012C000811103C0862F806C02C0862F80680E9427
:1012D000260641E0C701B6010F900F90DF91CF9134
:1012E000FF90EF90DF90CF900C94080788E00E9469
:1012F000260680E00E94CB062D982C988AE68A95D7
:10130000F1F700C00895229A579A569A559A2A984A
:101310005F985E985D980895882311F02A9A01C01D
:101320002A98662311F05F9A01C05F98442311F058
:101330005E9A01C05E98222311F05D9A08955D982F
:10134000089580FF02C02A9A01C02A9881FF02C036
:101350005F9A01C05F9882FF02C05E9A01C05E98EA
:1013600083FF02C05D9A08955D98089520E040E0F3
:1013700060E081E00E948C092FEF80E792E021502D
:1013800080409040E1F700C0000020E040E061E0D4
:1013900080E00E948C092FEF80E792E0215080408E
:1013A0009040E1F700C0000020E041E060E080E014
:1013B0000E948C092FEF80E792E0215080409040FE
:1013C000E1F700C0000021E040E060E080E00E9422
:1013D0008C092FEF80E792E0215080409040E1F7A8
:1013E00000C0000020E040E060E080E00C948C0948
:1013F000EF92FF920F931F93CF93DF93D82F162F67
:10140000F42EE22EC0E0C01701F12E2D4F2D612FDA
:101410008D2F0E948C092FEF81EE94E021508040A7
:101420009040E1F700C0000020E040E060E080E094
:101430000E948C092FEF81EE94E021508040904073
:10144000E1F700C00000CF5FDECFDF91CF911F91A9
:101450000F91FF90EF9008951F920F920FB60F9289
:1014600011248F938091C6008F910F900FBE0F9023
:101470001F90189583E390E09093C5008093C4007B
:1014800088E98093C10086E08093C2007894089533
:101490007894E1ECF0E08081806880830895F8948E
:1014A000E1ECF0E080818F778083089520E030E0E8
:1014B0009091C00095FD08C02F5F3F4F213197E20A
:1014C0003907B1F780E008958093C60081E0089560
:1014D00080E090E02091C00027FD07C00196813197
:1014E00027E29207B9F783E008958091C600089536
:1014F0000F931F93CF93DF931F92CDB7DEB78C016D
:10150000F80181918F01882329F069830E94560A8E
:101510006981F6CF662359F08DE00E94560A8AE071
:101520000F90DF91CF911F910F910C94560A0F905D
:10153000DF91CF911F910F9108950F931F93CF9338
:10154000DF93EC018C01095D1F4F8881833031F4FA
:101550001882DF91CF911F910F910895C017D10785
:10156000B9F30E94680A8993F0CF8091C60008956C
:101570006093000170930101809302019093030135
:10158000089583B1869581700895CF92DF92EF928E
:10159000FF92CF930E94C10A8111FCCFC8E1C12CF8
:1015A000D12C7601289ACC0CDD1CEE1CFF1C0E946D
:1015B000C10A882329F08FEFC81AD80AE80AF80A66
:1015C0002898C15079F7289A2898289A2898289A14
:1015D0002898C701B601CF91FF90EF90DF90CF9090
:1015E0000895CF92DF92EF92FF92CF93DF938823FB
:1015F000D9F0C82FD0E0C12CD12C76010E94C50AA9
:10160000C60ED71EE81EF91E82E08A95F1F700C0CB
:10161000DF5FDC13F3CF2D2F30E040E050E0C70157
:10162000B6010E94A10D03C020E030E0A901CA016B
:10163000B901DF91CF91FF90EF90DF90CF900895A7
:101640000F931F930E94F10A009100011091010174
:101650002091020130910301601B710B820B930BEF
:101660001F910F910895209A2198289883E00C9457
:10167000200B0E94F10A6093000170930101809396
:101680000201909303010895289808952898289AB4
:101690000895609100017091010180910201909183
:1016A0000301089585EE80937C00EAE7F0E08081F5
:1016B000866C8083EBE7F0E08081808380E280931A
:1016C0007E00089580917A00806480937A008091F2
:1016D0007A0086FDFCCF8091790008951F93CF9307
:1016E000DF930E94620B182F0E94620BC82FD0E07C
:1016F000C10FD11D0E94620B90E08C0F911D9BEADF
:10170000899F812D11248695DF91CF911F91089596
:1017100010927A0008950E94520B0E946E0B109254
:101720007A000895CF93DF931F92CDB7DEB73C9A2E
:10173000449A0E9409030E94500345E951E061E088
:1017400080E00E942E0986EB92E00E94650163E032
:101750000E941C034DEA51E061E080E00E942E09E6
:101760000AE020E040E060E081E00E94F8090E9489
:10177000F8018093B602823009F04EC049EB51E087
:1017800061E080E00E942E092FEF84E39CE021506D
:1017900080409040E1F700C000000E9430028823A2
:1017A00029F181E08983CE0101960E948701811190
:1017B00007C021E041E061E081E00E948C092CC07B
:1017C00020E041E061E080E00E948C0945EC51E0BE
:1017D00061E080E00E942E09AFEFB1E1EAE7A1509D
:1017E000B040E040E1F700C00000FFCF21E040E062
:1017F00060E081E00E948C0945EC51E061E080E00E
:101800000E942E09FFEF21E18AE7F150204080403D
:10181000E1F700C00000FFCF4BEC51E061E080E059
:101820000E942E0962EB72E080E00E94670065E092
:101830000E941C034BEC51E061E080E00E942E0905
:101840006EEA72E081E00E94670069E00E941C037A
:101850006091B2027091B3028091B4029091B5028E
:101860000E94B80A48ED51E061E080E00E942E0934
:101870006AE081E00E9400076091B60270E080E0BB
:1018800090E041E00E9408079FEFA1E1BAE7915084
:10189000A040B040E1F700C000006FE081E00E948E
:1018A00000076091B2027091B3028091B4029091EE
:1018B000B50241E00E9408076FE080E00E94000747
:1018C0006091AE027091AF028091B0029091B1022E
:1018D00041E00E940807EFEFF1E12AE7E150F04014
:1018E0002040E1F700C0000020E040E060E080E040
:1018F0000E948C090E94820888E5E82E82E0F82E7A
:1019000018E283E00E94200BAB01BC0180E892E06A
:101910000E94670440E852E060E080E00E942E09E7
:101920008FEF99E6A8E181509040A040E1F700C018
:1019300000004DED51E061E080E00E942E09BFEF14
:10194000E9E6F8E1B150E040F040E1F700C0000006
:10195000D701E12F1D92EA95E9F768EE71E088E57D
:1019600092E00E94040F60E872E088E592E00E9435
:10197000040F40E852E061E080E00E942E09FFEF92
:1019800029E688E1F15020408040E1F700C00000E6
:101990006BEE71E088E592E00E94040FE0E8F2E06F
:1019A000DF01212F1D922A95E9F740EF51E061E018
:1019B00080E00E942E098FEF99E6A8E181509040C7
:1019C000A040E1F700C000000E948B0B682F80E868
:1019D00092E00E941E0520E832E044E06DEF71E0E5
:1019E00080E00E940609BFEFE9E6F8E1B150E0406F
:1019F000F040E1F700C0000060E872E088E592E0A6
:101A00000E94040F28E532E040E066E072E080E0EA
:101A10000E94060960E872E088E592E00E94D50520
:101A20002FEF89E698E1215080409040E1F700C017
:101A3000000040E152E061E080E00E942E09AFEF3B
:101A4000B9E6E8E1A150B040E040E1F700C0000095
:101A50000E947609FFEF20E782E0F15020408040AD
:101A6000E1F700C000000E94E6028091A802811107
:101A7000FACF0E9421044DE152E061E080E00E9433
:101A80002E099FEFA9E6B8E19150A040B040E1F7E0
:101A900000C0000036CF991B79E004C0991F96174B
:101AA00008F0961B881F7A95C9F780950895AA1BA0
:101AB000BB1B51E107C0AA1FBB1FA617B70710F039
:101AC000A61BB70B881F991F5A95A9F7809590956B
:101AD000BC01CD01089597FB072E16F4009407D0A2
:101AE00077FD09D00E94570D07FC05D03EF4909574
:101AF00081959F4F0895709561957F4F0895A1E25C
:101B00001A2EAA1BBB1BFD010DC0AA1FBB1FEE1F77
:101B1000FF1FA217B307E407F50720F0A21BB30BC2
:101B2000E40BF50B661F771F881F991F1A9469F73E
:101B300060957095809590959B01AC01BD01CF019A
:101B40000895052E97FB1EF400940E94B80D57FDD2
:101B500007D00E947F0D07FC03D04EF40C94B80D03
:101B600050954095309521953F4F4F4F5F4F0895C9
:101B700090958095709561957F4F8F4F9F4F0895F9
:101B80000E94CB0DA59F900DB49F900DA49F800D3A
:101B9000911D11240895A29FB001B39FC001A39F7E
:101BA000700D811D1124911DB29F700D811D112496
:101BB000911D08950E944E0E88F09F5798F0B92FFE
:101BC0009927B751B0F0E1F0660F771F881F991F72
:101BD0001AF0BA95C9F714C0B13091F00E94680E9E
:101BE000B1E008950C94680E672F782F8827B85FAE
:101BF00039F0B93FCCF3869577956795B395D9F7CA
:101C00003EF490958095709561957F4F8F4F9F4FD3
:101C10000895E89409C097FB3EF4909580957095DF
:101C200061957F4F8F4F9F4F9923A9F0F92F96E928
:101C3000BB279395F695879577956795B795F1119D
:101C4000F8CFFAF4BB0F11F460FF1BC06F5F7F4F3A
:101C50008F4F9F4F16C0882311F096E911C077234C
:101C600021F09EE8872F762F05C0662371F096E855
:101C7000862F70E060E02AF09A95660F771F881F24
:101C8000DAF7880F9695879597F9089557FD90583C
:101C9000440F551F59F05F3F71F04795880F97FB30
:101CA000991F61F09F3F79F08795089512161306EA
:101CB0001406551FF2CF4695F1DF08C01616170619
:101CC0001806991FF1CF869571056105089408954E
:101CD000E894BB2766277727CB0197F908950E94E0
:101CE000820E0C94F30E0E94E50E38F00E94EC0E6A
:101CF00020F0952311F00C94DC0E0C94E20E1124CC
:101D00000C94690E0E94460E70F3959FC1F3950FD7
:101D100050E0551F629FF001729FBB27F00DB11D6F
:101D2000639FAA27F00DB11DAA1F649F6627B00DFF
:101D3000A11D661F829F2227B00DA11D621F739FE8
:101D4000B00DA11D621F839FA00D611D221F749FF6
:101D50003327A00D611D231F849F600D211D822F3D
:101D6000762F6A2F11249F5750409AF0F1F0882364
:101D70004AF0EE0FFF1FBB1F661F771F881F915091
:101D80005040A9F79E3F510580F00C94DC0E0C9456
:101D9000690E5F3FE4F3983ED4F386957795679597
:101DA000B795F795E7959F5FC1F7FE2B880F911DBB
:101DB0009695879597F9089597F99F6780E870E061
:101DC00060E008959FEF80EC089500240A941616B1
:101DD000170618060906089500240A941216130619
:101DE000140605060895092E0394000C11F48823A7
:101DF00052F0BB0F40F4BF2B11F460FF04C06F5FC3
:101E00007F4F8F4F9F4F0895FB01DC010D90002005
:101E1000E9F7119701900D920020E1F70895F999E3
:101E2000FECF92BD81BDF89A992780B50895A6E1AD
:101E3000B0E044E050E00C943D0F262FF999FECF1E
:101E400092BD81BDF89A019700B4021639F01FBA0D
:101E500020BD0FB6F894FA9AF99A0FBE089503962A
:101E6000272F0E941E0F0E941D0F252F0E941E0F5C
:101E7000242F0C941E0FDC01CB01FC01F999FECF3D
:101E800006C0F2BDE1BDF89A319600B40D92415002
:0A1E90005040B8F70895F894FFCF12
:101E9A00C09121004572726F72004C454420494E30
:101EAA00495400425554544F4E535F494E495400C9
:101EBA00434845434B204C45440047534D20494E27
:101ECA0049540047534D20494E4954204F4B00472F
:101EDA00534D205245470047534D20494E495420FF
:101EEA004641494C0047534D20524547204F4B002D
:101EFA0053454E4420534D530048656C6C6F210086
:101F0A0047534D20524547204641494C0053454EC0
:101F1A004420534D53204F4B0057454947485420BE
:101F2A00494E495400474554204D4F4445004E4FB1
:101F3A005420574F524B204D4F44452100434C42A9
:101F4A0052204D4F4445203F0050415353434F4484
:101F5A0045204F4B004552524F5200474554494E77
:101F6A0047205A574748540052203D2000454E54B6
:101F7A004552204C4F4F5000573A003B20423A00FE
:101F8A00454E54455220544F2041444300564F4C2D
:101F9A00544147453A0053454E4420534D533A0065
:101FAA00454E54455220544F2050534D00455849F0
:101FBA00542046524F4D2050534D00415400415435
:101FCA002B435245473F0041542B434D47463D3131
:101FDA000041542B434D47533D222B373932353577
:081FEA00313935323232220098
:00000001FF
