:100000000C9434000C9451000C9451000C94510049
:100010000C9451000C9451000C9451000C9451001C
:100020000C9451000C94A5010C9451000C945100B7
:100030000C9451000C9451000C9451000C945100FC
:100040000C9451000C9451000C9428090C9451000C
:100050000C9451000C9451000C9451000C945100DC
:100060000C9451000C94510011241FBECFEFD8E026
:10007000DEBFCDBF11E0A0E0B1E0EEEEFBE102C0DB
:1000800005900D92A83BB107D9F721E0A8EBB1E0AC
:1000900001C01D92AF3EB207E1F70E948E0A0C9498
:1000A000F50D0C940000549853985C985B98089553
:1000B000813039F0823049F489B183FB882780F997
:1000C000089589B182958170089580E00895CF9256
:1000D000DF92EF92FF92CF93DF93EB01882379F0C9
:1000E000813051F584E090E00E94C10D6B017C01EC
:1000F000688379838A839B8380E090E00CC08CE0E6
:1001000090E00E94C10D6B017C01688379838A8332
:100110009B8388E090E00E94C10DC616D706E806D2
:10012000F90611F082E009C081E0CF20CE20CD2079
:10013000C09419F080E001C084E0DF91CF91FF907E
:10014000EF90DF90CF900895CF92DF92EF92FF92E1
:10015000CF93DF93EB018823D9F08130E1F548811B
:1001600059816A817B8184E090E00E94D90D4881A9
:1001700059816A817B8180E090E00E94D90D84E002
:1001800090E00E94C10D6B017C0180E090E018C0FE
:10019000488159816A817B818CE090E00E94D90D71
:1001A000488159816A817B8188E090E00E94D90D65
:1001B0008CE090E00E94C10D6B017C0188E090E032
:1001C0000E94C10DC616D706E806F90611F480E0B4
:1001D00003C085E001C084E0DF91CF91FF90EF90F4
:1001E000DF90CF900895DF92EF92FF920F931F93CD
:1001F000CF93DF93623049F0633061F0613011F5E5
:10020000C0E1D0E001E110E009C0C4E1D0E005E1C7
:1002100010E004C0C2E1D0E003E110E07C01C801BD
:100220000E94B90DD82EF7018083CE010E94B90D2E
:10023000D81651F06FE7C8010E94C70D6FE7CE01D5
:100240000E94C70D82E001C080E0DF91CF911F9135
:100250000F91FF90EF90DF900895EF92FF920F9330
:100260001F93CF93DF93623049F0633061F06130C8
:1002700011F5C0E1D0E001E110E009C0C4E1D0E037
:1002800005E110E004C0C2E1D0E003E110E07C0130
:10029000FC016081C8010E94C70DF7016081CE0199
:1002A0000E94C70DC8010E94B90D182FCE010E94EF
:1002B000B90D181711F085E001C080E0DF91CF91F2
:1002C0001F910F91FF90EF9008950F931F93CF937D
:1002D0008C0185E190E00E94B90DC82FF801808360
:1002E00084E190E00E94B90DC81761F06FE785E1E5
:1002F00090E00E94C70D6FE784E190E00E94C70D77
:1003000082E001C080E0CF911F910F910895CF93BB
:10031000DF93EC01688185E190E00E94C70D688160
:1003200084E190E00E94C70D85E190E00E94B90D44
:10033000C82F84E190E00E94B90DC81711F085E044
:1003400001C080E0DF91CF9108951F920F920FB608
:100350000F9211248F939F93AF93BF938091E201EB
:100360009091E301A091E401B091E501892B8A2BE2
:100370008B2B79F481E090E0A0E0B0E08093E20183
:100380009093E301A093E401B093E5018093E00131
:100390000AC01092E2011092E3011092E40110925F
:1003A000E5011092E001BF91AF919F918F910F9065
:1003B0000FBE0F901F9018950895CF93DF93D82FFD
:1003C0000E945800882311F080E00FC0C5E68D2FF1
:1003D0000E945800811109C08FE59AEE0197F1F74C
:1003E00000C00000C15099F7EFCFDF91CF91089581
:1003F00020E040E060E080E00E9488088091EE010B
:10040000823019F120E040E060E081E00E9488083D
:1004100081E00E94DD018823C1F020E040E061E03E
:1004200080E00E94880882E00E94DD01882369F054
:1004300020E040E060E081E00E94880881E00E94C6
:10044000DD0181110BC083E0089520E040E060E011
:1004500080E00E9488088091EE01089582E008956E
:100460000F931F93CF93DF9300D000D0CDB7DEB7AB
:1004700081E00E9458008823B1F000E09DC081E037
:100480000E945800811111C0812F0E949D082FEFFA
:1004900084E39CE0215080409040E1F700C00000E0
:1004A000110F193060F311E0EACF83E00E94ED09EB
:1004B00069837A838B839C83BE016F5F7F4F80E06B
:1004C0000E94A4008111D9CF81E00E9458008823A6
:1004D000F9F021E041E061E081E00E9488082FEF1F
:1004E00081EE94E0215080409040E1F700C0000090
:1004F00020E040E060E080E00E9488082FEF81EE7D
:1005000094E0215080409040E1F700C00000DCCF33
:1005100082E00E9458008111B0CF82E00E94580012
:10052000082F811116C0812F0E949D082FEF84E3B0
:100530009CE0215080409040E1F700C00000812FF6
:1005400090E095958795009711F0182FE6CF18E069
:10055000E4CF83E00E94ED0969837A838B839C83D7
:10056000BE016F5F7F4F81E00E94A400811185CFA3
:1005700082E00E9458008823F9F021E041E061E028
:1005800081E00E9488082FEF81EE94E021508040A6
:100590009040E1F700C0000020E040E060E080E033
:1005A0000E9488082FEF81EE94E021508040904017
:1005B000E1F700C00000DCCF802F0F900F900F906C
:1005C0000F90DF91CF911F910F910895F894449867
:1005D0001092B0001092B20081E08093700097E01A
:1005E0009093B1008093E00183B7817F866083BFE1
:1005F00083B7816083BF28E030E080E80FB6F894CD
:1006000080936100209361000FBE789488950895CF
:100610000895F89484B7877F84BFE0E6F0E0808196
:100620008861808310820895F8948FE08093600041
:1006300008950E941403FFCFCF92DF92EF92FF92B2
:10064000CF93DF93882369F1D62FC0E0C82ED12C39
:10065000E12CF12C81E00E945800811122C08D2FE5
:100660000E949D082FEF84E39CE021508040904041
:10067000E1F700C00000CF5FCB3060F365E081E0C0
:100680000E94FC0564E184E091E00E94E3076FE0D2
:1006900081E00E94FC0540E0C701B6010E9404060B
:1006A000D9CFDF91CF91FF90EF90DF90CF90089559
:1006B0003C9A449A2FEF84E39CE021508040904084
:1006C000E1F700C000000E9457052FEF81EE94E093
:1006D000215080409040E1F700C000000E947E075A
:1006E0002FEF80E792E0215080409040E1F700C07A
:1006F00000004AE051E061E080E00E942A080E9488
:100700007F082FEF89E698E1215080409040E1F783
:1007100000C0000043E151E061E080E00E942A084F
:100720000E9453002FEF89E698E1215080409040CD
:10073000E1F700C0000040E251E061E080E00E948B
:100740002A080E94B2082FEF89E698E121508040E4
:100750009040E1F700C000004AE251E061E080E033
:100760000E942A080E9404052FEF89E698E1215093
:1007700080409040E1F700C000008091D1018F34AB
:1007800089F08091D2018B3469F06CEC71E083E3E5
:1007900091E00E9406054CEC51E061E080E00E948F
:1007A0002A08E2CF46E351E061E080E00E942A0897
:1007B0000E942F0A2FEF89E698E121508040904057
:1007C000E1F700C0000008950F93F89483B78E7F7F
:1007D00083BF20E030E080E80FB6F894809361009A
:1007E000209361000FBE1092E2011092E30110927B
:1007F000E4011092E5011092B20010927000109284
:10080000B1000E9458031092E00142E451E061E01F
:1008100080E00E942A088EEE91E00E94650163E06C
:100820000E941C038091EE01813081F04BE451E085
:1008300061E080E00E942A080FE020E040E061E0F3
:1008400080E00E94F4080E941403FFCF789480E0B7
:100850000F9108957F928F929F92AF92BF92CF9205
:10086000DF92EF92FF920F931F93CF93DF93EC01F0
:100870004A015B01411551056105704178F08EEF29
:100880009FEFAFEFBFEF9C01AD01281939094A096D
:100890005B0949015A017724739401C0712C80913E
:1008A000E6019091E701A091E801B091E901C090C3
:1008B000EA01D090EB01E090EC01F090ED01C81658
:1008C000D906EA06FB0648F49C01AD012C193D0946
:1008D0004E095F0969017A0104C0C81AD90AEA0AF7
:1008E000FB0AC501B401A70196010E94340C8901DD
:1008F000A8EEB3E0A50194010E94750CA701960132
:100900000E94340CCA01B90128EE33E040E050E007
:100910000E94340C462F972FFE019E012D5F3F4F02
:100920005AE0E52EF12C842FB7010E940C0C805D5B
:100930008193462F972FE217F307A9F78EE28B8357
:1009400034E08AE0E82EF12CFE01E30FF11DC8012E
:10095000B7010E940C0C805D80838B013F5F672B89
:1009600099F7232F30E0772029F08DE2FE01E20F86
:10097000F31F8083F9013197EC0FFD1FDE01AE17E5
:10098000BF0760F490818C9189278C93908189278F
:1009900080839C9189278D933197F1CFFE01E20FDF
:1009A000F31F1082CE01DF91CF911F910F91FF9025
:1009B000EF90DF90CF90BF90AF909F908F907F90FF
:1009C0000895FC01862F62E30E94000C805D808305
:1009D0008EE28183892F90E065E070E00E94200C18
:1009E000605D628386E58383CF0108955298089500
:1009F000DC0101962C912111FBCFFB018191882311
:100A000011F08D93FBCF08950C9436090F931F932B
:100A1000CF93DF9300D0CDB7DEB78B0189839A8364
:100A20000E944B0961E089819A810E947409C80182
:100A30000E9499090F900F90DF91CF911F910F9114
:100A40000C944409EFE1F3E03197F1F700C00000A6
:100A50002C982D9898B1907F98B998B1282F22950D
:100A60002F70922B98B92D9AEFE1F3E03197F1F7BF
:100A700000C000002D98EFECF7E03197F1F700C0CF
:100A8000000098B1907F98B998B18F70892B88B980
:100A90002D9A8FE193E00197F1F700C000002D98A7
:100AA000EFECF7E03197F1F700C0000008958FE414
:100AB00093EC0197F1F700C0000087B18F6087B910
:100AC000259A249A2C982D9888B1807F88B988B16E
:100AD000836088B92D9A8FE193E00197F1F700C008
:100AE00000002D988FEC97E00197F1F700C000000F
:100AF00088B1807F88B988B1836088B92D9A8FE1E9
:100B000093E00197F1F700C000002D988FEC97E07B
:100B10000197F1F700C0000098E79A95F1F788B1C6
:100B2000836088B92D9A8FE193E00197F1F700C0B7
:100B300000002D988FEC97E00197F1F700C00000BE
:100B400098E79A95F1F788B1807F88B9419A2D9AF4
:100B50008FE193E00197F1F700C000002D988FEC32
:100B600097E00197F1F700C0000098E79A95F1F738
:100B700088E20E94220588E00E9422058CE00E9403
:100B8000220581E00E94220586E00C942205EFE117
:100B9000F3E03197F1F700C000002D9898B1907FF5
:100BA00098B998B1282F22952F70922B98B92C9A2A
:100BB0002D9AEFE1F3E03197F1F700C000002D9896
:100BC000EFECF7E03197F1F700C0000098B1907FAB
:100BD00098B998B18F70892B88B92D9A8FE193E0DD
:100BE0000197F1F700C000002D98EFECF7E0319786
:100BF000F1F700C000000895882311F080EC01C0D7
:100C000080E8862B0C9422058F929F92AF92BF9220
:100C1000CF92DF92EF92FF920F931F93CF93DF93C8
:100C200000D000D0CDB7DEB76B017C01042F97FF59
:100C30000AC0F094E094D094C094C11CD11CE11C73
:100C4000F11C11E001C010E084E00E942205C114F3
:100C5000D104E104F10421F480E30E94C70526C019
:100C6000C701B6012AE0822E912CA12CB12CA5013E
:100C700094010E94340C80E3860F29833A834B83CE
:100C80005C830E94C7052981622F3A81732F4B81B3
:100C9000842F5C81952F611571058105910539F7C8
:100CA0008AE0C816D104E104F10418F480E30E943C
:100CB000C705112319F08DE20E94C705002361F0DA
:100CC00080E20E94C70580E20E94C70580E20E9480
:100CD000C70580E20E94C70586E00F900F900F9035
:100CE0000F90DF91CF911F910F91FF90EF90DF90C8
:100CF000CF90BF90AF909F908F900C942205AF92B1
:100D0000BF92CF92DF92EF92FF920F931F93CF93F8
:100D1000DF931F92CDB7DEB78C01A62EF42E84E0B0
:100D20000E9422050115110549F480E30E94C705C0
:100D3000BB24B3940A2DAA0C110B15C0B12C8AE068
:100D4000C82ED12CC801B6010E940C0CE62E805D85
:100D500079830E94C7050E2D7981172FB394011551
:100D6000110581F7E7CF98012B193109B7FC3395AD
:100D7000121613062CF4B3948F2D0E94C705F3CFDF
:100D800086E00F90DF91CF911F910F91FF90EF9030
:100D9000DF90CF90BF90AF900C9422058F929F92DE
:100DA000AF92BF92CF92DF92EF92FF920F931F9379
:100DB000CF93DF9300D0CDB7DEB7811520E1920746
:100DC000A0F066277727681B790B80E090E00E94EF
:100DD000BE0C20E030E048EC50E40E94240D0E945C
:100DE0008F0C4B01CC24C3940FC0BC0180E090E079
:100DF0000E94BE0C20E030E048EC50E40E94240D3C
:100E00000E948F0C4B01C12CC4010A978A359105B1
:100E100030F0F12C8AE08816910428F002C0FF24FB
:100E2000F394D12C02C0DD24D39484E00E942205E7
:100E30008114910431F08401E12C8AE0A82EB12CB8
:100E400009C080E30E94C70522C001151105F9F011
:100E5000E11015C0C801B5010E940C0C972F062F98
:100E6000172FE39422E0E212F0CF8EE269837A83B7
:100E70000E94C70569819A810115110541F0862FED
:100E8000B5010E940C0C805D0E94C705E3CFFF20D6
:100E900019F080E30E94C705DD2049F080E30E943D
:100EA000C7058EE20E94C70580E30E94C705CC20DB
:100EB00011F08DE201C08BE20E94C705F1100AC05B
:100EC000D11008C084E6881A910824E8821623E02D
:100ED000920618F480E20E94C70586E00F900F90FA
:100EE000DF91CF911F910F91FF90EF90DF90CF9006
:100EF000BF90AF909F908F900C94220581E00E944C
:100F000022052FEF84E39CE0215080409040E1F7E0
:100F100000C0000008952D982C9888B1807F88B972
:100F200087B1807F87B95C9A2D9A82E08A95F1F724
:100F300000C086B12D9892E09A95F1F700C02D9AE5
:100F400092E09A95F1F700C096B12D9892E09A95AB
:100F5000F1F700C05C9897B19F6097B983FB882731
:100F600080F908950E948B078111FCCF2C982D9851
:100F700088B1807F88B987B1807F87B95C9A8AE021
:100F80008A95F1F700C02C9A2D9A9AE09A95F1F77C
:100F900000C026B12D9A8FE193E00197F1F700C0D0
:100FA00000002D988FEC97E00197F1F700C000004A
:100FB00096B15C9887B18F6087B92295207F892F81
:100FC0008F70822B0895FF920F931F93CF93DF931F
:100FD0001F92CDB7DEB78C01F12CF801EF0DF11D9A
:100FE0008081882341F0F61631F069830E94C7059D
:100FF000F3946981F2CF0F90DF91CF911F910F9100
:10100000FF900895EF92FF920F931F93CF93DF937A
:1010100000D0CDB7DEB78B0179014A8389830E9466
:101020007E07898180680E94220564E1C8010E94D0
:10103000E3074A81842F806C0E94220564E1C70186
:101040000F900F90DF91CF911F910F91FF90EF9034
:101050000C94E3070F931F93CF93DF9300D0CDB78A
:10106000DEB78A016A8389830E947E0789816A814B
:10107000811103C0862F806C02C0862F80680E9479
:10108000220564E1C8010F900F90DF91CF911F916D
:101090000F910C94E307CF92DF92EF92FF92CF93E0
:1010A000DF9300D0CDB7DEB769017A016A83898307
:1010B0000E947E0789816A81811103C0862F806C1E
:1010C00002C0862F80680E94220541E0C701B60158
:1010D0000F900F90DF91CF91FF90EF90DF90CF9026
:1010E0000C94040688E00E94220580E00E94C70557
:1010F0002D982C988AE68A95F1F700C00895229AD7
:10110000579A569A559A2A985F985E985D980895CE
:10111000882311F02A9A01C02A98662311F05F9A59
:1011200001C05F98442311F05E9A01C05E982223AB
:1011300011F05D9A08955D98089580FF02C02A9A83
:1011400001C02A9881FF02C05F9A01C05F9882FFA8
:1011500002C05E9A01C05E9883FF02C05D9A089546
:101160005D98089520E040E060E081E00E948808FA
:101170002FEF80E792E0215080409040E1F700C0DF
:10118000000020E040E061E080E00E9488082FEF4E
:1011900080E792E0215080409040E1F700C00000DD
:1011A00020E041E060E080E00E9488082FEF80E7C7
:1011B00092E0215080409040E1F700C0000021E023
:1011C00040E060E080E00E9488082FEF80E792E036
:1011D000215080409040E1F700C0000020E040E056
:1011E00060E080E00C948808EF92FF920F931F93C9
:1011F000CF93DF93D82F162FF42EE22EC0E0C01726
:1012000001F12E2D4F2D612F8D2F0E9488082FEF79
:1012100081EE94E0215080409040E1F700C0000052
:1012200020E040E060E080E00E9488082FEF81EE3F
:1012300094E0215080409040E1F700C00000CF5F73
:10124000DECFDF91CF911F910F91FF90EF90089526
:101250001F920F920FB60F9211248F938091C600A8
:101260008F910F900FBE0F901F90189583E390E021
:101270009093C5008093C40088E98093C10086E004
:101280008093C200789408957894E1ECF0E0808136
:10129000806880830895F894E1ECF0E080818F7796
:1012A0008083089520E030E09091C00095FD08C053
:1012B0002F5F3F4F213197E23907B1F780E0089562
:1012C0008093C60081E0089580E090E02091C00006
:1012D00027FD07C00196813127E29207B9F783E025
:1012E00008958091C60008950F931F93CF93DF93C5
:1012F0001F92CDB7DEB78C01F80181918F01882351
:1013000029F069830E9452096981F6CF662359F05A
:101310008DE00E9452098AE00F90DF91CF911F91DA
:101320000F910C9452090F90DF91CF911F910F9163
:1013300008950F931F93CF93DF93EC018C010D5E03
:101340001F4F8881833031F41882DF91CF911F9134
:101350000F910895C017D107B9F30E9464098993CA
:10136000F0CF8091C6000895609300017093010151
:101370008093020190930301089583B18695817053
:101380000895CF92DF92EF92FF92CF930E94BD0912
:101390008111FCCFC8E1C12CD12C7601289ACC0C4C
:1013A000DD1CEE1CFF1C0E94BD09882329F08FEF75
:1013B000C81AD80AE80AF80A2898C15079F7289A72
:1013C0002898289A2898289A2898C701B601CF917A
:1013D000FF90EF90DF90CF900895CF92DF92EF9241
:1013E000FF92CF93DF938823D9F0C82FD0E0C12C90
:1013F000D12C76010E94C109C60ED71EE81EF91E27
:1014000082E08A95F1F700C0DF5FDC13F3CF2D2F68
:1014100030E040E050E0C701B6010E94560C03C026
:1014200020E030E0A901CA01B901DF91CF91FF901E
:10143000EF90DF90CF9008950F931F930E94ED09D6
:1014400000910001109101012091020130910301EE
:10145000601B710B820B930B1F910F910895209AC3
:101460002198289883E00C941C0A0E94ED0960934F
:10147000000170930101809302019093030108958C
:10148000289808952898289A0895609100017091ED
:1014900001018091020190910301089585EE8093EE
:1014A0007C00EAE7F0E08081866C8083EBE7F0E087
:1014B0008081808380E280937E00089580917A000D
:1014C000806480937A0080917A0086FDFCCF8091C1
:1014D000790008951F93CF93DF930E945E0A182F1F
:1014E0000E945E0AC82FD0E0C10FD11D0E945E0A83
:1014F00090E08C0F911D9BEA899F812D1124869588
:10150000DF91CF911F91089510927A0008950E9463
:101510004E0A0E946A0A10927A000895CF93DF93D0
:101520001F92CDB7DEB73C9A449A0E9409030E94ED
:10153000580342E451E061E080E00E942A088EEE08
:1015400091E00E94650163E00E941C034AE551E0BE
:1015500061E080E00E942A080AE020E040E060E0CC
:1015600081E00E94F4080E94F8018093EE0182302D
:1015700009F04BC046E651E061E080E00E942A0895
:101580002FEF84E39CE0215080409040E1F700C0C1
:1015900000000E943002882319F181E08983CE0186
:1015A00001960E948701811107C021E041E061E0BE
:1015B00081E00E94880829C020E041E061E080E0ED
:1015C0000E94880842E751E061E080E00E942A081A
:1015D000AFEFB1E1EAE7A150B040E040E1F713C05E
:1015E00021E040E060E081E00E94880842E751E0AD
:1015F00061E080E00E942A08FFEF21E18AE7F150D4
:1016000020408040E1F700C0000048E751E061E081
:1016100080E00E942A086AEE71E080E00E94670084
:1016200065E00E941C0348E751E061E080E00E9411
:101630002A0866EE71E081E00E94670069E00E947E
:101640001C036091EA017091EB018091EC01909193
:10165000ED010E94B40945E851E061E080E00E949C
:101660002A086AE081E00E94FC056091EE0170E0CA
:1016700080E090E041E00E9404069FEFA1E1BAE71C
:101680009150A040B040E1F700C000006FE081E061
:101690000E94FC056091EA017091EB018091EC01E0
:1016A0009091ED0141E00E9404066FE080E00E940D
:1016B000FC056091E6017091E7018091E80190914D
:1016C000E90141E00E940406EFEFF1E12AE7E15071
:1016D000F0402040E1F700C0000020E040E060E082
:1016E00080E00E9488080E947E0788EBE82E81E057
:1016F000F82E14E14AE851E061E080E00E942A08F7
:101700008FEF99E6A8E181509040A040E1F700C03A
:1017100000000E947208BFEFE0E7F2E0B150E04045
:10172000F040E1F700C000000E94E6028091E00175
:101730008111FACF0E94E40347E951E061E080E0C3
:101740000E942A082FEF89E698E1215080409040BE
:10175000E1F700C0000083E00E941C0AAB01BC015D
:101760008CEC91E00E942A044CEC51E060E080E0B7
:101770000E942A08AFEFB9E6E8E1A150B040E0408E
:10178000E1F700C00000D701E12F1D92EA95E9F7CB
:1017900065EA71E088EB91E00E94F8046CEC71E07E
:1017A00088EB91E00E94F80468EA71E088EB91E030
:1017B0000E94F804ECECF1E0DF01212F1D922A9544
:1017C000E9F70E94870A682F8CEC91E00E94E104FF
:1017D0006CEC71E088EB91E00E94F80428EB31E0BA
:1017E00040E06DEA71E080E00E9402088FEF99E628
:1017F000A8E181509040A040E1F700C000007ACFFE
:10180000991B79E004C0991F961708F0961B881F52
:101810007A95C9F780950895AA1BBB1B51E107C0B3
:10182000AA1FBB1FA617B70710F0A61BB70B881F70
:10183000991F5A95A9F780959095BC01CD010895FF
:1018400097FB072E16F4009407D077FD09D00E946D
:101850000C0C07FC05D03EF4909581959F4F0895A0
:10186000709561957F4F0895A1E21A2EAA1BBB1BAC
:10187000FD010DC0AA1FBB1FEE1FFF1FA217B3075C
:10188000E407F50720F0A21BB30BE40BF50B661F72
:10189000771F881F991F1A9469F760957095809536
:1018A00090959B01AC01BD01CF010895052E97FBDA
:1018B0001EF400940E946D0C57FD07D00E94340C5A
:1018C00007FC03D04EF40C946D0C50954095309568
:1018D00021953F4F4F4F5F4F08959095809570959C
:1018E00061957F4F8F4F9F4F08950E94800CA59F59
:1018F000900DB49F900DA49F800D911D112408950B
:10190000A29FB001B39FC001A39F700D811D112440
:10191000911DB29F700D811D1124911D08950E948B
:10192000030D88F09F5798F0B92F9927B751B0F061
:10193000E1F0660F771F881F991F1AF0BA95C9F753
:1019400014C0B13091F00E941D0DB1E008950C94C7
:101950001D0D672F782F8827B85F39F0B93FCCF37A
:10196000869577956795B395D9F73EF490958095D0
:10197000709561957F4F8F4F9F4F0895E89409C0F0
:1019800097FB3EF490958095709561957F4F8F4FB2
:101990009F4F9923A9F0F92F96E9BB279395F695C8
:1019A000879577956795B795F111F8CFFAF4BB0F46
:1019B00011F460FF1BC06F5F7F4F8F4F9F4F16C0AA
:1019C000882311F096E911C0772321F09EE8872F34
:1019D000762F05C0662371F096E8862F70E060E0F0
:1019E0002AF09A95660F771F881FDAF7880F969569
:1019F000879597F9089557FD9058440F551F59F052
:101A00005F3F71F04795880F97FB991F61F09F3FEB
:101A100079F087950895121613061406551FF2CF14
:101A20004695F1DF08C0161617061806991FF1CF64
:101A300086957105610508940895E894BB2766278B
:101A40007727CB0197F908950E94370D0C94A80DC4
:101A50000E949A0D38F00E94A10D20F0952311F0FC
:101A60000C94910D0C94970D11240C941E0D0E9452
:101A7000FB0C70F3959FC1F3950F50E0551F629FCB
:101A8000F001729FBB27F00DB11D639FAA27F00DD7
:101A9000B11DAA1F649F6627B00DA11D661F829FFE
:101AA0002227B00DA11D621F739FB00DA11D621FE3
:101AB000839FA00D611D221F749F3327A00D611D00
:101AC000231F849F600D211D822F762F6A2F1124E2
:101AD0009F5750409AF0F1F088234AF0EE0FFF1F15
:101AE000BB1F661F771F881F91505040A9F79E3F6C
:101AF000510580F00C94910D0C941E0D5F3FE4F3A2
:101B0000983ED4F3869577956795B795F795E795C1
:101B10009F5FC1F7FE2B880F911D9695879597F9CA
:101B2000089597F99F6780E870E060E008959FEF5F
:101B300080EC089500240A94161617061806090664
:101B4000089500240A941216130614060506089533
:101B5000092E0394000C11F4882352F0BB0F40F4BB
:101B6000BF2B11F460FF04C06F5F7F4F8F4F9F4FFB
:101B70000895F999FECF92BD81BDF89A992780B555
:101B80000895A6E1B0E044E050E00C94E70D262F64
:101B9000F999FECF92BD81BDF89A019700B4021663
:101BA00039F01FBA20BD0FB6F894FA9AF99A0FBE11
:101BB00008950396272F0E94C80D0E94C70D252F58
:101BC0000E94C80D242F0C94C80DDC01CB01FC0130
:101BD000F999FECF06C0F2BDE1BDF89A319600B486
:0E1BE0000D9241505040B8F70895F894FFCF91
:101BEE00C09121004572726F72004C454420494EDF
:101BFE00495400425554544F4E535F494E49540078
:101C0E00434845434B204C45440047534D20494ED5
:101C1E0049540041540057454947485420494E49BC
:101C2E005400474554204D4F4445004E4F542057C5
:101C3E004F524B204D4F44452100434C4252204DB4
:101C4E004F4445203F0050415353434F4445204F8E
:101C5E004B004552524F5200474554494E47205A69
:101C6E00574748540052203D2000454E54455220BF
:101C7E00544F2050534D00455849542046524F4D15
:101C8E002050534D00573A003B20423A0053454EE8
:081C9E004420534D533A0000AD
:00000001FF
