:100000000C9434000C9451000C9451000C94510049
:100010000C9451000C9451000C9451000C9451001C
:100020000C9451000C94BD020C9451000C9451009E
:100030000C9451000C9451000C9451000C945100FC
:100040000C9451000C9451000C94B3070C94510083
:100050000C9451000C9451000C9451000C945100DC
:100060000C9451000C94510011241FBECFEFD8E026
:10007000DEBFCDBF11E0A0E0B1E0E0E1F7E102C0FA
:1000800005900D92AA38B107D9F721E0AAE8B1E0AE
:1000900001C01D92AC3AB207E1F70E94D9080C9456
:1000A000860B0C940000549853985C985B980895C4
:1000B000813039F0823049F489B183FB882780F997
:1000C000089589B182958170089580E00895CF9256
:1000D000DF92EF92FF92CF93DF93EB01882379F0C9
:1000E000813051F584E090E00E94520B6B017C015D
:1000F000688379838A839B8380E090E00CC08CE0E6
:1001000090E00E94520B6B017C01688379838A83A3
:100110009B8388E090E00E94520BC616D706E80643
:10012000F90611F082E009C081E0CF20CE20CD2079
:10013000C09419F080E001C084E0DF91CF91FF907E
:10014000EF90DF90CF900895CF92DF92EF92FF92E1
:10015000CF93DF93EB018823D9F08130E1F548811B
:1001600059816A817B8184E090E00E946A0B48811A
:1001700059816A817B8180E090E00E946A0B84E073
:1001800090E00E94520B6B017C0180E090E018C06F
:10019000488159816A817B818CE090E00E946A0BE2
:1001A000488159816A817B8188E090E00E946A0BD6
:1001B0008CE090E00E94520B6B017C0188E090E0A3
:1001C0000E94520BC616D706E806F90611F480E025
:1001D00003C085E001C084E0DF91CF91FF90EF90F4
:1001E000DF90CF900895DF92EF92FF920F931F93CD
:1001F000CF93DF93623049F0633061F0613011F5E5
:10020000C0E1D0E001E110E009C0C4E1D0E005E1C7
:1002100010E004C0C2E1D0E003E110E07C01C801BD
:100220000E944A0BD82EF7018083CE010E944A0B10
:10023000D81651F06FE7C8010E94580B6FE7CE0146
:100240000E94580B82E001C080E0DF91CF911F91A6
:100250000F91FF90EF90DF900895EF92FF920F9330
:100260001F93CF93DF93623049F0633061F06130C8
:1002700011F5C0E1D0E001E110E009C0C4E1D0E037
:1002800005E110E004C0C2E1D0E003E110E07C0130
:10029000FC016081C8010E94580BF7016081CE010A
:1002A0000E94580BC8010E944A0B182FCE010E94D1
:1002B0004A0B181711F085E001C080E0DF91CF9163
:1002C0001F910F91FF90EF9008950F931F93CF937D
:1002D0008C0185E190E00E944A0BC82FF8018083D1
:1002E00084E190E00E944A0BC81761F06FE785E156
:1002F00090E00E94580B6FE784E190E00E94580B59
:1003000082E001C080E0CF911F910F910895CF93BB
:10031000DF93EC01688185E190E00E94580B6881D1
:1003200084E190E00E94580B85E190E00E944A0B26
:10033000C82F84E190E00E944A0BC81711F085E0B5
:1003400001C080E0DF91CF9108950895CF93DF93AE
:10035000D82F0E945800882311F080E00FC0C5E616
:100360008D2F0E945800811109C08FE59AEE0197E8
:10037000F1F700C00000C15099F7EFCFDF91CF91A6
:10038000089520E040E060E080E00E941307809143
:10039000AB01823019F120E040E060E081E00E9492
:1003A000130781E00E94A6018823C1F020E040E00D
:1003B00061E080E00E94130782E00E94A60188238A
:1003C00069F020E040E060E081E00E94130781E0F6
:1003D0000E94A60181110BC083E0089520E040E057
:1003E00060E080E00E9413078091AB01089582E0F5
:1003F00008950F931F93CF93DF9300D000D0CDB714
:10040000DEB781E00E9458008823B1F000E09DC073
:1004100081E00E945800811111C0812F0E9428079D
:100420002FEF84E39CE0215080409040E1F700C032
:100430000000110F193060F311E0EACF83E00E9451
:10044000780869837A838B839C83BE016F5F7F4FBB
:1004500080E00E94A4008111D9CF81E00E94580061
:100460008823F9F021E041E061E081E00E94130778
:100470002FEF81EE94E0215080409040E1F700C0E2
:10048000000020E040E060E080E00E9413072FEFD2
:1004900081EE94E0215080409040E1F700C00000E0
:1004A000DCCF82E00E9458008111B0CF82E00E9430
:1004B0005800082F811116C0812F0E9428072FEFA6
:1004C00084E39CE0215080409040E1F700C00000B0
:1004D000812F90E095958795009711F0182FE6CF22
:1004E00018E0E4CF83E00E94780869837A838B83E5
:1004F0009C83BE016F5F7F4F81E00E94A400811149
:1005000085CF82E00E9458008823F9F021E041E085
:1005100061E081E00E9413072FEF81EE94E021500B
:1005200080409040E1F700C0000020E040E060E043
:1005300080E00E9413072FEF81EE94E0215080406D
:100540009040E1F700C00000DCCF802F0F900F90AB
:100550000F900F90DF91CF911F910F9108951092FE
:10056000B0001092B20081E08093700087E0809329
:10057000B100789483E083BF08951F920F920FB665
:100580000F9211242F933F934F935F936F937F9319
:100590008F939F93AF93BF93EF93FF9380919F01AE
:1005A0009091A001A091A101B091A2018436910582
:1005B000A105B10570F40196A11DB11D80939F01A5
:1005C0009093A001A093A101B093A2010E94AF0259
:1005D00009C010929F011092A0011092A1011092E7
:1005E000A201F894FF91EF91BF91AF919F918F91EC
:1005F0007F916F915F914F913F912F910F900FBE1F
:100600000F901F9018950895F89484B7877F84BF42
:10061000E0E6F0E080818861808310820895F8949C
:100620008FE08093600008950E940F03FFCFCF9268
:10063000DF92EF92FF92CF93DF93882369F1D62F59
:10064000C0E0C82ED12CE12CF12C81E00E94580092
:10065000811122C08D2F0E9428072FEF84E39CE098
:10066000215080409040E1F700C00000CF5FCB30C8
:1006700060F365E081E00E94930464E184E091E02E
:100680000E9474066FE081E00E94930440E0C7017D
:10069000B6010E949B04D9CFDF91CF91FF90EF90DC
:1006A000DF90CF9008950E9412040E9415064AE040
:1006B00051E061E080E00E94C2060E940A0743E127
:1006C00051E061E080E00E94C2060E94530040E2D7
:1006D00051E061E080E00E94C2060E943D074AE2CC
:1006E00051E061E080E00E94C2060E94CB0380914D
:1006F0008F018F34D1F0809190018B34B1F06AE892
:1007000071E083E391E00E94CD034AE851E061E0AB
:1007100080E00E94C2062FEF89E698E121508040D8
:100720009040E1F700C00000E2CF46E351E061E015
:1007300080E00E94C2060C94BA080F930E945303F3
:1007400042E451E061E080E00E94C2068BEA91E061
:100750000E94650163E00E9417030AE020E040E088
:1007600060E081E00E947F078091AB01813081F0E1
:100770004BE451E061E080E00E94C2060FE020E01F
:1007800040E061E080E00E947F070E940F03FFCFFE
:1007900080E00F9108950C94C1070F931F93CF939E
:1007A000DF9300D0CDB7DEB78B0189839A830E9497
:1007B000D60761E089819A810E94FF07C8010E94E3
:1007C00024080F900F90DF91CF911F910F910C94FF
:1007D000CF07EFE1F3E03197F1F700C000002C986C
:1007E0002D9898B1907F98B998B1282F22952F70A5
:1007F000922B98B92D9A2D98EFECF7E03197F1F7FD
:1008000000C0000098B1907F98B998B18F70892B83
:1008100088B92D9A2D988FEC97E00197F1F700C0D9
:10082000000008958FE493EC0197F1F700C00000F9
:1008300087B18F6087B9259A249A2C982D9888B112
:10084000807F88B988B1836088B92D9A2D988FEC04
:1008500097E00197F1F700C0000088B1807F88B968
:1008600088B1836088B92D9A2D988FEC97E0019715
:10087000F1F700C0000098E79A95F1F788B183601E
:1008800088B92D9A2D988FEC97E00197F1F700C069
:10089000000098E79A95F1F788B1807F88B9419A6E
:1008A0002D9A2D988FEC97E00197F1F700C000008A
:1008B00098E79A95F1F788E20E94E90388E00E94A0
:1008C000E9038CE00E94E90381E00E94E90386E0ED
:1008D0000C94E903EFE1F3E03197F1F700C0000079
:1008E0002D9898B1907F98B998B1282F22952F70A4
:1008F000922B98B92C9A2D9A2D98EFECF7E031971E
:10090000F1F700C0000098B1907F98B998B18F704E
:10091000892B88B92D9A2D988FEC97E00197F1F7E4
:1009200000C000000895882311F080EC01C080E829
:10093000862B0C94E9038F929F92AF92BF92CF9235
:10094000DF92EF92FF920F931F93CF93DF9300D02C
:1009500000D0CDB7DEB76B017C01042F97FF0AC032
:10096000F094E094D094C094C11CD11CE11CF11C03
:1009700011E001C010E084E00E94E903C114D10439
:10098000E104F10421F480E30E946A0426C0C70157
:10099000B6012AE0822E912CA12CB12CA501940144
:1009A0000E94DF0980E3860F29833A834B835C83AF
:1009B0000E946A042981622F3A81732F4B81842F10
:1009C0005C81952F611571058105910539F78AE0E4
:1009D000C816D104E104F10418F480E30E946A040B
:1009E000112319F08DE20E946A04002361F080E275
:1009F0000E946A0480E20E946A0480E20E946A0403
:100A000080E20E946A0486E00F900F900F900F9092
:100A1000DF91CF911F910F91FF90EF90DF90CF90DA
:100A2000BF90AF909F908F900C94E903AF92BF92CC
:100A3000CF92DF92EF92FF920F931F93CF93DF93AA
:100A40001F92CDB7DEB78C01A62EF42E84E00E9453
:100A5000E9030115110549F480E30E946A04BB24EF
:100A6000B3940A2DAA0C110B15C0B12C8AE0C82E24
:100A7000D12CC801B6010E94CB09E62E805D798396
:100A80000E946A040E2D7981172FB3940115110568
:100A900081F7E7CF98012B193109B7FC339512166E
:100AA00013062CF4B3948F2D0E946A04F3CF86E0D2
:100AB0000F90DF91CF911F910F91FF90EF90DF90FA
:100AC000CF90BF90AF900C94E9038F929F92AF921A
:100AD000BF92CF92DF92EF92FF920F931F93CF932B
:100AE000DF9300D0CDB7DEB7811520E19207A0F0EB
:100AF00066277727681B790B80E090E00E944F0AF9
:100B000020E030E048EC50E40E94B50A0E94200A40
:100B10004B01CC24C3940FC0BC0180E090E00E9444
:100B20004F0A20E030E048EC50E40E94B50A0E94F1
:100B3000200A4B01C12CC4010A978A35910530F077
:100B4000F12C8AE08816910428F002C0FF24F39467
:100B5000D12C02C0DD24D39484E00E94E9038114E7
:100B6000910431F08401E12C8AE0A82EB12C09C057
:100B700080E30E946A0422C001151105F9F0E1101A
:100B800015C0C801B5010E94CB09972F062F172F5A
:100B9000E39422E0E212F0CF8EE269837A830E942E
:100BA0006A0469819A810115110541F0862FB5010A
:100BB0000E94CB09805D0E946A04E3CFFF2019F0F8
:100BC00080E30E946A04DD2049F080E30E946A0409
:100BD0008EE20E946A0480E30E946A04CC2011F035
:100BE0008DE201C08BE20E946A04F1100AC0D110AC
:100BF00008C084E6881A910824E8821623E0920649
:100C000018F480E20E946A0486E00F900F90DF9152
:100C1000CF911F910F91FF90EF90DF90CF90BF90F9
:100C2000AF909F908F900C94E90381E00E94E903BC
:100C30002FEF84E39CE0215080409040E1F700C01A
:100C4000000008952D982C9888B1807F88B987B1CD
:100C5000807F87B95C9A2D9A82E08A95F1F700C06F
:100C600086B12D9892E09A95F1F700C02D9A92E006
:100C70009A95F1F700C096B12D9892E09A95F1F708
:100C800000C05C9897B19F6097B983FB882780F973
:100C900008950E9422068111FCCF2C982D9888B1CE
:100CA000807F88B987B1807F87B95C9A8AE08A950E
:100CB000F1F700C02C9A2D9A9AE09A95F1F700C0AE
:100CC00026B12D9A2D988FEC97E00197F1F700C08F
:100CD000000096B15C9887B18F6087B92295207F1C
:100CE000892F8F70822B0895CF92DF92FF920F93FE
:100CF0001F93CF93DF931F92CDB7DEB78C01F82EF1
:100D00006C01F8018081882361F08C2D8F19861782
:100D100040F4F60181916F0169830E946A04698140
:100D2000F0CF0F90DF91CF911F910F91FF90DF9047
:100D3000CF900895EF92FF920F931F93CF93DF937D
:100D400000D0CDB7DEB78B0179014A8389830E9439
:100D50001506898180680E94E90364E1C8010E9448
:100D600074064A81842F806C0E94E90364E1C70104
:100D70000F900F90DF91CF911F910F91FF90EF9007
:100D80000C9474060F931F93CF93DF9300D0CDB7CD
:100D9000DEB78A016A8389830E94150689816A8188
:100DA000811103C0862F806C02C0862F80680E944C
:100DB000E90364E1C8010F900F90DF91CF911F917B
:100DC0000F910C947406CF92DF92EF92FF92CF9323
:100DD000DF9300D0CDB7DEB769017A016A838983DA
:100DE0000E94150689816A81811103C0862F806C5B
:100DF00002C0862F80680E94E90341E0C701B60166
:100E00000F900F90DF91CF91FF90EF90DF90CF90F8
:100E10000C949B04229A579A569A559A2A985F984E
:100E20005E985D980895882311F02A9A01C02A9847
:100E3000662311F05F9A01C05F98442311F05E9A17
:100E400001C05E98222311F05D9A08955D9808957F
:100E500080FF02C02A9A01C02A9881FF02C05F9ACF
:100E600001C05F9882FF02C05E9A01C05E9883FF56
:100E700002C05D9A08955D98089520E040E060E02A
:100E800081E00E9413072FEF89E698E1215080400E
:100E90009040E1F700C0000020E040E061E080E029
:100EA0000E9413072FEF89E698E12150804090407F
:100EB000E1F700C0000020E041E060E080E00E9437
:100EC00013072FEF89E698E1215080409040E1F729
:100ED00000C0000021E040E060E080E00E941307D5
:100EE0002FEF89E698E1215080409040E1F700C063
:100EF000000020E040E060E080E00C941307EF92F7
:100F0000FF920F931F93CF93DF93D82F162FF42EBA
:100F1000E22EC0E0C01701F12E2D4F2D612F8D2F35
:100F20000E9413072FEF81EE94E021508040904003
:100F3000E1F700C0000020E040E060E080E00E94B7
:100F400013072FEF81EE94E0215080409040E1F7AD
:100F500000C00000CF5FDECFDF91CF911F910F91D6
:100F6000FF90EF9008951F920F920FB60F921124E9
:100F70008F938091C6008F910F900FBE0F901F909E
:100F8000189583E390E09093C5008093C40088E9AE
:100F90008093C10086E08093C2007894089578948D
:100FA000E1ECF0E08081806880830895F894E1ECC2
:100FB000F0E080818F778083089520E030E0909189
:100FC000C00095FD08C02F5F3F4F213197E23907E0
:100FD000B1F780E008958093C60081E0089580E035
:100FE00090E02091C00027FD07C00196813127E2E3
:100FF0009207B9F783E008958091C60008950F9392
:101000001F93CF93DF931F92CDB7DEB78C01F8010A
:1010100081918F01882329F069830E94DD0769810E
:10102000F6CF662359F08DE00E94DD078AE00F902D
:10103000DF91CF911F910F910C94DD070F90DF91FD
:10104000CF911F910F9108950F931F93CF93DF932B
:10105000EC018C010D5E1F4F8881833031F41882C2
:10106000DF91CF911F910F910895C017D107B9F368
:101070000E94EF078993F0CF8091C6000895609396
:101080000001709301018093020190930301089580
:1010900083B1869581700895CF92DF92EF92FF928F
:1010A000CF930E9448088111FCCFC8E1C12CD12CFC
:1010B0007601289ACC0CDD1CEE1CFF1C0E9448080F
:1010C000882329F08FEFC81AD80AE80AF80A289866
:1010D000C15079F7289A2898289A2898289A289809
:1010E000C701B601CF91FF90EF90DF90CF900895A8
:1010F000CF92DF92EF92FF92CF93DF938823D9F0C4
:10110000C82FD0E0C12CD12C76010E944C08C60E0D
:10111000D71EE81EF91E82E08A95F1F700C0DF5F56
:10112000DC13F3CF2D2F30E040E050E0C701B601D3
:101130000E94010A03C020E030E0A901CA01B90100
:10114000DF91CF91FF90EF90DF90CF9008950F93B4
:101150001F930E94780800910001109101012091D5
:10116000020130910301601B710B820B930B1F91E5
:101170000F910895209A2198289883E00C94A7084D
:101180000E9478086093000170930101809302012E
:10119000909303010895289808952898289A08950F
:1011A0006091000170910101809102019091030111
:1011B0000895CF93DF931F92CDB7DEB70E9404034B
:1011C0000E94530342E451E061E080E00E94C206C5
:1011D0008BEA91E00E94650163E00E9417034AE5F3
:1011E00051E061E080E00E94C2060AE020E040E0B9
:1011F00060E081E00E947F070E94C1018093AB0103
:101200008230E1F546E651E061E080E00E94C206EE
:101210002FEF84E39CE0215080409040E1F700C034
:1012200000000E94F9018823A1F081E08983CE01AA
:1012300001960E948701811107C021E041E061E031
:1012400081E00E9413071AC020E041E061E080E0E5
:1012500004C021E040E060E081E00E94130742E723
:1012600051E061E080E00E94C2062FEF81E19AE741
:10127000215080409040E1F700C0000048E751E075
:1012800061E080E00E94C20667EA71E080E00E94AF
:10129000670065E00E94170348E751E061E080E0E5
:1012A0000E94C20667EA71E080E00E94670069E080
:1012B0000E9417036091A7017091A8018091A90174
:1012C0009091AA010E943F0845E851E061E080E06A
:1012D0000E94C2066AE081E00E9493046091AB0123
:1012E00070E080E090E041E00E949B042FEF81E1FC
:1012F0009AE7215080409040E1F700C000006FE085
:1013000081E00E9493046091A7017091A8018091EF
:10131000A9019091AA0141E00E949B046FE080E046
:101320000E9493046091A3017091A4018091A50192
:101330009091A60141E00E949B042FEF81E19AE782
:10134000215080409040E1F700C0000020E040E0E4
:1013500060E080E00E9413070E941506209A0E9418
:10136000AF020E949D030E9415060E9415066CE0C4
:1013700081E00E94930483E00E94A70841E00E945C
:101380009B042FEF81E19AE7215080409040E1F7E4
:1013900000C00000E4CFAA1BBB1B51E107C0AA1F7D
:1013A000BB1FA617B70710F0A61BB70B881F991F06
:1013B0005A95A9F780959095BC01CD010895A1E2B9
:1013C0001A2EAA1BBB1BFD010DC0AA1FBB1FEE1FBF
:1013D000FF1FA217B307E407F50720F0A21BB30B0A
:1013E000E40BF50B661F771F881F991F1A9469F786
:1013F00060957095809590959B01AC01BD01CF01E2
:101400000895052E97FB1EF400940E94180A57FDBC
:1014100007D00E94DF0907FC03D04EF40C94180A91
:1014200050954095309521953F4F4F4F5F4F089510
:1014300090958095709561957F4F8F4F9F4F089540
:101440000E94940A88F09F5798F0B92F9927B751B6
:10145000B0F0E1F0660F771F881F991F1AF0BA9558
:10146000C9F714C0B13091F00E94AE0AB1E00895FE
:101470000C94AE0A672F782F8827B85F39F0B93FF0
:10148000CCF3869577956795B395D9F73EF490950B
:101490008095709561957F4F8F4F9F4F0895E89489
:1014A00009C097FB3EF490958095709561957F4FAC
:1014B0008F4F9F4F9923A9F0F92F96E9BB2793955A
:1014C000F695879577956795B795F111F8CFFAF46A
:1014D000BB0F11F460FF1BC06F5F7F4F8F4F9F4F9B
:1014E00016C0882311F096E911C0772321F09EE8F9
:1014F000872F762F05C0662371F096E8862F70E05F
:1015000060E02AF09A95660F771F881FDAF7880F38
:101510009695879597F9089557FD9058440F551F54
:1015200059F05F3F71F04795880F97FB991F61F065
:101530009F3F79F087950895121613061406551FDC
:10154000F2CF4695F1DF08C0161617061806991F48
:10155000F1CF86957105610508940895E894BB273D
:1015600066277727CB0197F908950E94C80A0C9443
:10157000390B0E942B0B38F00E94320B20F0952380
:1015800011F00C94220B0C94280B11240C94AF0A2C
:101590000E948C0A70F3959FC1F3950F50E0551F80
:1015A000629FF001729FBB27F00DB11D639FAA27B8
:1015B000F00DB11DAA1F649F6627B00DA11D661F07
:1015C000829F2227B00DA11D621F739FB00DA11D28
:1015D000621F839FA00D611D221F749F3327A00DE2
:1015E000611D231F849F600D211D822F762F6A2F7E
:1015F00011249F5750409AF0F1F088234AF0EE0FE3
:10160000FF1FBB1F661F771F881F91505040A9F70F
:101610009E3F510580F00C94220B0C94AF0A5F3F63
:10162000E4F3983ED4F3869577956795B795F7954B
:10163000E7959F5FC1F7FE2B880F911D96958795C3
:1016400097F9089597F99F6780E870E060E0089542
:101650009FEF80EC089500240A94161617061806CA
:101660000906089500240A941216130614060506A6
:101670000895092E0394000C11F4882352F0BB0F37
:1016800040F4BF2B11F460FF04C06F5F7F4F8F4F9A
:101690009F4F0895F999FECF92BD81BDF89A992781
:1016A00080B50895A6E1B0E044E050E00C94780BDA
:1016B000262FF999FECF92BD81BDF89A019700B40B
:1016C000021639F01FBA20BD0FB6F894FA9AF99AAB
:1016D0000FBE08950396272F0E94590B0E94580BA6
:1016E000252F0E94590B242F0C94590BDC01CB01A0
:1016F000FC01F999FECF06C0F2BDE1BDF89A319622
:1017000000B40D9241505040B8F70895F894FFCFBF
:10171000C09121004572726F72004C454420494EC1
:10172000495400425554544F4E535F494E4954005A
:10173000434845434B204C45440047534D20494EB8
:1017400049540041540057454947485420494E499F
:101750005400474554204D4F4445004E4F542057A8
:101760004F524B204D4F44452100434C4252204D97
:101770004F4445203F0050415353434F4445204F71
:101780004B004552524F5200474554494E47205A4C
:0A179000574748540052203D200046
:00000001FF
