:100000000C94B5000C9461020C94D2000C94D200B4
:100010000C94D2000C94D2000C94D2000C94D20018
:100020000C94D2000C9426020C94D2000C94D200B2
:100030000C94D2000C94D2000C94D2000C94D200F8
:100040000C94D2000C94D2000C94440A0C94D2006C
:100050000C94D2000C94D2000C94D2000C94D200D8
:100060000C94D2000C94D2006E616E00696E660032
:1000700000407A10F35A00A0724E18090010A5D45F
:10008000E80000E87648170000E40B54020000CABC
:100090009A3B000000E1F505000080969800000002
:1000A00040420F000000A086010000001027000061
:1000B0000000E803000000006400000000000A00E7
:1000C000000000000100000000002C76D888DC67EA
:1000D0004F0823DFC1DFAE59E1B1B796E5E3E45342
:1000E000C63AE651997696E8E6C28426EB898C9B5F
:1000F00062ED407C6FFCEFBC9C9F40F2BAA56FA5FF
:10010000F490055A2AF75C936B6CF9676DC11BFC80
:10011000E0E40D47FEF520E6B500D0ED902E03009B
:10012000943577050080841E080000204E0A0000E8
:1001300000C80C333333330F986E12831141EF8DA7
:100140002114893BE65516CFFEE6DB18D1844B38E7
:100150001BF77C1D901DA4BBE424203284725E2218
:100160008100C9F124ECA1E53D2711241FBECFEF8A
:10017000D8E0DEBFCDBF12E0A0E0B1E0EEECFAE2E5
:1001800002C005900D92A638B107D9F722E0A6E883
:10019000B2E001C01D92A63EB207E1F70E94280F0F
:1001A0000C9465150C940000549853985C985B98D7
:1001B0000895813039F0823049F489B183FB882772
:1001C00080F9089589B182958170089580E008953D
:1001D000CF92DF92EF92FF92CF93DF93EB018823D0
:1001E00079F0813051F584E090E00E9431156B0187
:1001F0007C01688379838A839B8380E090E00CC0D4
:100200008CE090E00E9431156B017C01688379835A
:100210008A839B8388E090E00E943115C616D7063A
:10022000E806F90611F082E009C081E0CF20CE2077
:10023000CD20C09419F080E001C084E0DF91CF911F
:10024000FF90EF90DF90CF900895CF92DF92EF92E2
:10025000FF92CF93DF93EB018823D9F08130E1F552
:10026000488159816A817B8184E090E00E94491530
:10027000488159816A817B8180E090E00E94491524
:1002800084E090E00E9431156B017C0180E090E0F9
:1002900018C0488159816A817B818CE090E00E947E
:1002A0004915488159816A817B8188E090E00E94EC
:1002B00049158CE090E00E9431156B017C0188E0CB
:1002C00090E00E943115C616D706E806F90611F42B
:1002D00080E003C085E001C084E0DF91CF91FF9012
:1002E000EF90DF90CF900895DF92EF92FF920F93FF
:1002F0001F93CF93DF93623049F0633061F0613038
:1003000011F5C0E1D0E001E110E009C0C4E1D0E0A6
:1003100005E110E004C0C2E1D0E003E110E07C019F
:10032000C8010E942915D82EF7018083CE010E94B2
:100330002915D81651F06FE7C8010E9437156FE7ED
:10034000CE010E94371582E001C080E0DF91CF919D
:100350001F910F91FF90EF90DF900895EF92FF9221
:100360000F931F93CF93DF93623049F0633061F0B6
:10037000613011F5C0E1D0E001E110E009C0C4E155
:10038000D0E005E110E004C0C2E1D0E003E110E0FC
:100390007C01FC016081C8010E943715F701608172
:1003A000CE010E943715C8010E942915182FCE01D1
:1003B0000E942915181711F085E001C080E0DF9137
:1003C000CF911F910F91FF90EF9008950F931F937E
:1003D000CF938C0185E190E00E942915C82FF80188
:1003E000808384E190E00E942915C81761F06FE7CF
:1003F00085E190E00E9437156FE784E190E00E946C
:10040000371582E001C080E0CF911F910F910895D0
:10041000CF93DF93EC01688185E190E00E9437156E
:10042000688184E190E00E94371585E190E00E94A8
:100430002915C82F84E190E00E942915C81711F0F2
:1004400085E001C080E0DF91CF9108951F920F9267
:100450000FB60F9211242F938F939F93AF93BF9357
:100460008091D9029091DA02A091DB02B091DC0276
:100470008C3125E29207A105B1057CF40196A11DFE
:10048000B11D8093D9029093DA02A093DB02B0935E
:10049000DC0281E08093D7020AC01092D902109248
:1004A000DA021092DB021092DC021092D702BF91A6
:1004B000AF919F918F912F910F900FBE0F901F9032
:1004C00018951F920F920FB60F9211248F9381E00F
:1004D0008093D6028F910F900FBE0F901F901895AA
:1004E0000895CF93DF93D82F0E94D900882311F06D
:1004F00080E00FC0C5E68D2F0E94D900811109C090
:100500008FE59AEE0197F1F700C00000C15099F70E
:10051000EFCFDF91CF91089520E040E060E080E0F0
:100520000E94A4098091E502823019F120E040E0A8
:1005300060E081E00E94A40981E00E9471028823AA
:10054000C1F020E040E061E080E00E94A40982E088
:100550000E947102882369F020E040E060E081E0C1
:100560000E94A40981E00E94710281110BC083E006
:10057000089520E040E060E080E00E94A4098091BE
:10058000E502089582E008950F931F93CF93DF93C0
:1005900000D000D0CDB7DEB781E00E94D90088231B
:1005A000B1F000E09DC081E00E94D900811111C02E
:1005B000812F0E94B9092FEF84E39CE021508040F5
:1005C0009040E1F700C00000110F193060F311E016
:1005D000EACF83E00E94090B69837A838B839C8333
:1005E000BE016F5F7F4F80E00E9425018111D9CF4E
:1005F00081E00E94D9008823F9F021E041E061E028
:1006000081E00E94A4092FEF81EE94E02150804008
:100610009040E1F700C0000020E040E060E080E0B2
:100620000E94A4092FEF81EE94E021508040904079
:10063000E1F700C00000DCCF82E00E94D900811108
:10064000B0CF82E00E94D900082F811116C0812FFF
:100650000E94B9092FEF84E39CE021508040904034
:10066000E1F700C00000812F90E0959587950097F5
:1006700011F0182FE6CF18E0E4CF83E00E94090BB9
:1006800069837A838B839C83BE016F5F7F4F81E098
:100690000E942501811185CF82E00E94D900882324
:1006A000F9F021E041E061E081E00E94A4092FEF30
:1006B00081EE94E0215080409040E1F700C00000BE
:1006C00020E040E060E080E00E94A4092FEF81EE8E
:1006D00094E0215080409040E1F700C00000DCCF62
:1006E000802F0F900F900F900F90DF91CF911F915F
:1006F0000F910895F89444981092B0001092B200AF
:1007000081E08093700097E09093B1008093D702CE
:1007100083B7817F866083BF83B7816083BF28E012
:1007200030E080E80FB6F894809361002093610078
:100730000FBE789488950895F89484B7877F84BF16
:10074000E0E6F0E080818861808310820895F8946B
:100750008FE08093600008950E94A703FFCF0E945E
:10076000A50B8930924090F044E051E061E080E0D8
:100770000E9446098FEF99E628E181509040204081
:10078000E1F700C000000E94A703FFCF4EE051E058
:1007900061E080E00E9446098FEF99E628E18150F0
:1007A00090402040E1F700C000000E948E098FEFCA
:1007B00090E722E0815090402040E1F700C0000027
:1007C0004498F8940C947A03CF92DF92EF92FF92C0
:1007D000CF93DF93882379F1D62FC0E0C82ED12C98
:1007E000E12CF12C81E00E94D900811124C08D2FD1
:1007F0000E94B9092FEF84E39CE021508040904093
:10080000E1F700C00000CF5FCB3060F365E081E02E
:100810000E94180764E186E191E00E94FF086FE002
:1008200081E00E94180740E0C701B6010E9420073E
:100830000E94AF03D7CFDF91CF91FF90EF90DF9071
:10084000CF9008956EEA72E08CE191E00E94550528
:100850004EEA52E060E080E00E9446092FEF89E610
:1008600098E1215080409040E1F700C000000E94D4
:100870007105882339F046E251E061E080E00E9492
:1008800046090EC042E351E061E080E00E94460963
:1008900021E041E061E080E00E94A4090E94AF03F2
:1008A0002FEF89E698E1215080409040E1F700C0A9
:1008B000000040E451E061E080E00E9446090E94AF
:1008C000AE05882339F048E451E061E080E00E9401
:1008D00046090EC043E551E061E080E00E94460910
:1008E00020E041E061E081E00E94A4090E94AF03A2
:1008F0002FEF89E698E1215080409040E1F700C059
:1009000000000895529881E0809369008DBB08959E
:100910003C9A449A2FEF84E39CE021508040904021
:10092000E1F700C000000E9473062FEF81EE94E013
:10093000215080409040E1F700C000000E949A08DA
:100940002FEF80E792E0215080409040E1F700C017
:1009500000000E94820440E651E061E080E00E94D5
:1009600046090E949B092FEF89E698E121508040BB
:100970009040E1F700C0000049E651E061E080E00E
:100980000E9446090E94D4002FEF89E698E1215089
:1009900080409040E1F700C0000046E751E061E090
:1009A00080E00E9446090E94CE092FEF89E698E177
:1009B000215080409040E1F700C0000040E851E045
:1009C00061E080E00E9446090E947105882331F0B1
:1009D0006EEA72E089E891E00E9455054EEA52E025
:1009E00060E080E00E9446092FEF89E698E12150FF
:1009F00080409040E1F700C0000043E951E061E031
:100A000080E00E9446090E944B0B2FEF89E698E197
:100A1000215080409040E1F700C0000008950F93FE
:100A2000F89483B78E7F83BF20E030E080E80FB674
:100A3000F89480936100209361000FBE1092D90258
:100A40001092DA021092DB021092DC021092B200D5
:100A5000109270001092B1000E9488041092D70288
:100A60004FE951E061E080E00E94460985EE92E0A6
:100A70000E94E60163E00E94E4038091E502813078
:100A800081F048EA51E061E080E00E9446090FE011
:100A900020E040E061E080E00E94100A0E94A7038D
:100AA000FFCF789480E00F9108950F931F93CF9319
:100AB000DF9300D0CDB7DEB78B0189839A830E9484
:100AC000670A61E089819A810E94900AC8010E94A8
:100AD000B50A0F900F90DF91CF911F910F910C9459
:100AE000600AEF92FF921F93CF93DF93CDB7DEB7EB
:100AF000A8970FB6F894DEBF0FBECDBFCE0101960A
:100B00007C0188E2F70111928A95E9F70E94520A66
:100B100015E08E818F34A9F08F818B3491F0B7016D
:100B200088E592E00E945505FFEF20E782E0F15052
:100B300020408040E1F700C00000115051F780E0F4
:100B400001C081E0A8960FB6F894DEBF0FBECDBFFE
:100B5000DF91CF911F91FF90EF900895EF92FF9258
:100B60001F93CF93DF93CDB7DEB7A8970FB6F89456
:100B7000DEBF0FBECDBFCE0101967C0188E2F7013A
:100B800011928A95E9F715E0B7018BE592E00E9492
:100B900055058B89803319F48D89813369F0FFEF16
:100BA00029E688E1F15020408040E1F700C00000D4
:100BB000115051F780E001C081E0A8960FB6F8947B
:100BC000DEBF0FBECDBFDF91CF911F91FF90EF90A1
:100BD0000895CF92DF92EF92FF920F931F93CF93DE
:100BE000DF93CDB7DEB7A8970FB6F894DEBF0FBE80
:100BF000CDBF6C0188E2E82E8E010F5F1F4FF80118
:100C00008E2D11928A95E9F70E94AE05F82E882361
:100C100029F1F8011192EA94E9F7B80184E692E02B
:100C20000E9455050E94670A60E08EE692E00E94ED
:100C3000900A8DE00E946E0A8AE00E946E0AC80146
:100C40000E94B50A60E0C6010E94900A8AE10E94F3
:100C50006E0AC8010E94B50A0E94600A8F2DA896EC
:100C60000FB6F894DEBF0FBECDBFDF91CF911F91BD
:100C70000F91FF90EF90DF90CF900895EFE1F3E0B8
:100C80003197F1F700C000002C982D9898B1907F13
:100C900098B998B1282F22952F70922B98B92D9A38
:100CA000EFE1F3E03197F1F700C000002D98EFEC91
:100CB000F7E03197F1F700C0000098B1907F98B944
:100CC00098B18F70892B88B92D9A8FE193E00197A5
:100CD000F1F700C000002D98EFECF7E03197F1F745
:100CE00000C0000008958FE493EC0197F1F700C075
:100CF000000087B18F6087B9259A249A2C982D9887
:100D000088B1807F88B988B1836088B92D9A8FE1D6
:100D100093E00197F1F700C000002D988FEC97E069
:100D20000197F1F700C0000088B1807F88B988B1D1
:100D3000836088B92D9A8FE193E00197F1F700C0A5
:100D400000002D988FEC97E00197F1F700C00000AC
:100D500098E79A95F1F788B1836088B92D9A8FE169
:100D600093E00197F1F700C000002D988FEC97E019
:100D70000197F1F700C0000098E79A95F1F788B164
:100D8000807F88B9419A2D9A8FE193E00197F1F71E
:100D900000C000002D988FEC97E00197F1F700C09C
:100DA000000098E79A95F1F788E20E943E0688E0F5
:100DB0000E943E068CE00E943E0681E00E943E06B4
:100DC00086E00C943E06EFE1F3E03197F1F700C0C6
:100DD00000002D9898B1907F98B998B1282F22954E
:100DE0002F70922B98B92C9A2D9AEFE1F3E031975E
:100DF000F1F700C000002D98EFECF7E03197F1F724
:100E000000C0000098B1907F98B998B18F70892B7D
:100E100088B92D9A8FE193E00197F1F700C00000A7
:100E20002D98EFECF7E03197F1F700C0000008953E
:100E3000882311F080EC01C080E8862B0C943E06DC
:100E40008F929F92AF92BF92CF92DF92EF92FF92DA
:100E50000F931F93CF93DF9300D000D0CDB7DEB7B1
:100E60006B017C01042F97FF0AC0F094E094D094AA
:100E7000C094C11CD11CE11CF11C11E001C010E0A8
:100E800084E00E943E06C114D104E104F10421F47F
:100E900080E30E94E30626C0C701B6012AE0822E45
:100EA000912CA12CB12CA50194010E94561180E334
:100EB000860F29833A834B835C830E94E306298152
:100EC000622F3A81732F4B81842F5C81952F61159E
:100ED00071058105910539F78AE0C816D104E1044E
:100EE000F10418F480E30E94E306112319F08DE267
:100EF0000E94E306002361F080E20E94E30680E2A4
:100F00000E94E30680E20E94E30680E20E94E3067C
:100F100086E00F900F900F900F90DF91CF911F916F
:100F20000F91FF90EF90DF90CF90BF90AF909F9088
:100F30008F900C943E06AF92BF92CF92DF92EF92C9
:100F4000FF920F931F93CF93DF931F92CDB7DEB71E
:100F50008C01A62EF42E84E00E943E060115110598
:100F600049F480E30E94E306BB24B3940A2DAA0C43
:100F7000110B15C0B12C8AE0C82ED12CC801B601C6
:100F80000E944211E62E805D79830E94E3060E2DB9
:100F90007981172FB3940115110581F7E7CF9801D7
:100FA0002B193109B7FC3395121613062CF4B394A0
:100FB0008F2D0E94E306F3CF86E00F90DF91CF9153
:100FC0001F910F91FF90EF90DF90CF90BF90AF9067
:100FD0000C943E068F929F92AF92BF92CF92DF9277
:100FE000EF92FF920F931F93CF93DF9300D0CDB773
:100FF000DEB7811520E19207A0F066277727681BEE
:10100000790B80E090E00E946F1220E030E048EC25
:1010100050E40E94FD120E9440124B01CC24C39464
:101020000FC0BC0180E090E00E946F1220E030E031
:1010300048EC50E40E94FD120E9440124B01C12C6A
:10104000C4010A978A35910530F0F12C8AE08816A0
:10105000910428F002C0FF24F394D12C02C0DD24B7
:10106000D39484E00E943E068114910431F08401FF
:10107000E12C8AE0A82EB12C09C080E30E94E3068F
:1010800022C001151105F9F0E11015C0C801B50124
:101090000E944211972F062F172FE39422E0E212AD
:1010A000F0CF8EE269837A830E94E30669819A8198
:1010B0000115110541F0862FB5010E944211805D96
:1010C0000E94E306E3CFFF2019F080E30E94E306CD
:1010D000DD2049F080E30E94E3068EE20E94E306F1
:1010E00080E30E94E306CC2011F08DE201C08BE288
:1010F0000E94E306F1100AC0D11008C084E6881AE5
:10110000910824E8821623E0920618F480E20E94F7
:10111000E30686E00F900F90DF91CF911F910F9122
:10112000FF90EF90DF90CF90BF90AF909F908F9007
:101130000C943E0681E00E943E062FEF84E39CE083
:10114000215080409040E1F700C0000008952D98A4
:101150002C9888B1807F88B987B1807F87B95C9AE5
:101160002D9A82E08A95F1F700C086B12D9892E021
:101170009A95F1F700C02D9A92E09A95F1F700C088
:1011800096B12D9892E09A95F1F700C05C9897B1CE
:101190009F6097B983FB882780F908950E94A7086C
:1011A0008111FCCF2C982D9888B1807F88B987B1A8
:1011B000807F87B95C9A8AE08A95F1F700C02C9A03
:1011C0002D9A9AE09A95F1F700C026B12D9A8FE1F9
:1011D00093E00197F1F700C000002D988FEC97E0A5
:1011E0000197F1F700C0000096B15C9887B18F605D
:1011F00087B92295207F892F8F70822B0895FF92C7
:101200000F931F93CF93DF931F92CDB7DEB78C015F
:10121000F12CF801EF0DF11D8081882341F0F616C5
:1012200031F069830E94E306F3946981F2CF0F9055
:10123000DF91CF911F910F91FF900895EF92FF9250
:101240000F931F93CF93DF9300D0CDB7DEB78B0101
:1012500079014A8389830E949A08898180680E9463
:101260003E0664E1C8010E94FF084A81842F806C19
:101270000E943E0664E1C7010F900F90DF91CF916D
:101280001F910F91FF90EF900C94FF080F931F9305
:10129000CF93DF9300D0CDB7DEB78A016A8389830D
:1012A0000E949A0889816A81811103C0862F806C0F
:1012B00002C0862F80680E943E0664E1C8010F903C
:1012C0000F90DF91CF911F910F910C94FF08CF9257
:1012D000DF92EF92FF92CF93DF9300D0CDB7DEB7CE
:1012E00069017A016A8389830E949A0889816A81E7
:1012F000811103C0862F806C02C0862F80680E94F7
:101300003E0641E0C701B6010F900F90DF91CF91EB
:10131000FF90EF90DF90CF900C94200788E00E9420
:101320003E0680E00E94E3062D982C988AE68A9576
:10133000F1F700C00895229A579A569A559A2A981A
:101340005F985E985D980895882311F02A9A01C0ED
:101350002A98662311F05F9A01C05F98442311F028
:101360005E9A01C05E98222311F05D9A08955D98FF
:10137000089580FF02C02A9A01C02A9881FF02C006
:101380005F9A01C05F9882FF02C05E9A01C05E98BA
:1013900083FF02C05D9A08955D98089520E040E0C3
:1013A00060E081E00E94A4092FEF80E792E02150E5
:1013B00080409040E1F700C0000020E040E061E0A4
:1013C00080E00E94A4092FEF80E792E02150804046
:1013D0009040E1F700C0000020E041E060E080E0E4
:1013E0000E94A4092FEF80E792E0215080409040B6
:1013F000E1F700C0000021E040E060E080E00E94F2
:10140000A4092FEF80E792E0215080409040E1F75F
:1014100000C0000020E040E060E080E00C94A409FF
:10142000EF92FF920F931F93CF93DF93D82F162F36
:10143000F42EE22EC0E0C01701F12E2D4F2D612FAA
:101440008D2F0E94A4092FEF81EE94E0215080405F
:101450009040E1F700C0000020E040E060E080E064
:101460000E94A4092FEF81EE94E02150804090402B
:10147000E1F700C00000CF5FDECFDF91CF911F9179
:101480000F91FF90EF9008951F920F920FB60F9259
:1014900011248F938091C6008F910F900FBE0F90F3
:1014A0001F90189583E390E09093C5008093C4004B
:1014B00088E98093C10086E08093C2007894089503
:1014C0007894E1ECF0E08081806880830895F8945E
:1014D000E1ECF0E080818F778083089520E030E0B8
:1014E0009091C00095FD08C02F5F3F4F213197E2DA
:1014F0003907B1F780E008958093C60081E0089530
:1015000080E090E02091C00027FD07C00196813166
:1015100027E29207B9F783E008958091C600089505
:101520000F931F93CF93DF931F92CDB7DEB78C013C
:10153000F80181918F01882329F069830E946E0A46
:101540006981F6CF662359F08DE00E946E0A8AE029
:101550000F90DF91CF911F910F910C946E0A0F9015
:10156000DF91CF911F910F9108950F931F93CF9308
:10157000DF93EC018C01095D1F4F8881833031F4CA
:101580001882DF91CF911F910F910895C017D10755
:10159000B9F30E94800A8993F0CF8091C600089524
:1015A0006093000170930101809302019093030105
:1015B000089583B1869581700895CF92DF92EF925E
:1015C000FF92CF930E94D90A8111FCCFC8E1C12CB0
:1015D000D12C7601289ACC0CDD1CEE1CFF1C0E943D
:1015E000D90A882329F08FEFC81AD80AE80AF80A1E
:1015F0002898C15079F7289A2898289A2898289AE4
:101600002898C701B601CF91FF90EF90DF90CF905F
:101610000895CF92DF92EF92FF92CF93DF938823CA
:10162000D9F0C82FD0E0C12CD12C76010E94DD0A60
:10163000C60ED71EE81EF91E82E08A95F1F700C09B
:10164000DF5FDC13F3CF2D2F30E040E050E0C70127
:10165000B6010E94781103C020E030E0A901CA0160
:10166000B901DF91CF91FF90EF90DF90CF90089577
:101670000F931F930E94090B00910001109101012B
:101680002091020130910301601B710B820B930BBF
:101690001F910F910895209A2198289883E00C9427
:1016A000380B0E94090B6093000170930101809335
:1016B0000201909303010895289808952898289A84
:1016C0000895609100017091010180910201909153
:1016D0000301089585EC80937C00EAE7F0E08081C7
:1016E000866C8083EBE7F0E08081808380E28093EA
:1016F0007E00089580917A00806480937A008091C2
:101700007A0086FDFCCF8091780090917900089551
:101710000F931F93CF93DF930E947A0BEC010E94EB
:101720007A0B8C010E947A0B800F911F8C0F9D1FEA
:1017300063E070E00E944211CB01DF91CF911F91D5
:101740000F91089510927A0008950E946A0B0E94EA
:10175000880B10927A000895A3E1B0E0E2EBFBE081
:101760000C9497116C014B012A01FC01178216821F
:10177000838181FF43C3AE014F5F5F4F3A01F601A2
:101780009381F40193FD859193FF81914F0188230B
:1017900009F430C3853239F493FD859193FF81912B
:1017A0004F01853239F4B60190E00E946314520172
:1017B0002501E5CF10E0F12C20E02032A0F48B329F
:1017C00069F030F4803259F0833269F420612CC022
:1017D0008D3239F0803339F4216026C022602460D4
:1017E00023C0286021C027FD27C030ED380F3A30D4
:1017F00078F426FF06C0FAE01F9F300D1124132F46
:1018000013C04AE0F49E300D1124F32E20620CC068
:101810008E3221F426FDEEC2206406C08C3611F40F
:10182000206802C0883641F4F40193FD859193FF4E
:1018300081914F018111C1CF9BEB980F933018F428
:101840002061805E06C09BE9980F933008F071C15B
:101850002F7E26FF16E02F73322E853619F4206472
:10186000322E08C0863621F4F22FF0683F2E02C0D7
:101870001111115037FE07C01C3350F4EE24E394CD
:10188000E10E27E00BC0183038F027E017E005C064
:1018900027E04CE3E42E02C0212FE12C520144E06A
:1018A000A40EB11CF20160817181828193810E2DA1
:1018B000A3010E946A132C01098100FF02C003FFEB
:1018C00007C031FC08C032FE09C030E2232E07C039
:1018D0002DE2222E04C09BE2292E01C0212C802F54
:1018E0008C7019F0211068C2A8C237FE0FC0E40C3A
:1018F00004FF04C08A81813309F4EA941E1474F54C
:10190000F8E0FE1578F588E0E82E2CC036FC2AC0F9
:10191000812F90E0841595059CF02CEF42162FEF57
:10192000520674F0432D4068342E0AC0E2E0F0E025
:10193000EC0FFD1FE10FF11D8081803319F4115070
:101940001111F4CF37FE0EC0EE24E394E10E812F87
:1019500090E0481659062CF4141904C0EE24E394C0
:1019600001C010E037FE06C01414150434F4C2019F
:10197000019605C085E090E002C081E090E0211072
:101980000196112331F0212F30E02F5F3F4F820F5E
:10199000931F2F2D30E08217930714F4F81A01C01B
:1019A000F12C832D897049F4FF2039F0B60180E2D3
:1019B00090E00E946314FA94F7CF222029F0B60138
:1019C000822D90E00E94631433FC09C0FF2039F09F
:1019D000B60180E390E00E946314FA94F7CF37FEDB
:1019E0005AC0942D852D57FE02C090E080E0292E2C
:1019F000382E20E030E0A2014E1951095D874C8756
:101A0000A201421953095F874E87612F70E0442776
:101A10005527461B570B598B488B5FEF251635060C
:101A200049F4B6018EE290E02A8B3B8B0E9463144E
:101A30003B892A89421453046CF04C855D8542151C
:101A4000530544F4EE85FF85E20FF31FE60DF71D05
:101A5000818101C080E351E0251A31082F5F3F4F9B
:101A600048895989241635064CF0B60190E02A8B36
:101A70003B8B0E9463142A893B89CFCF2414350401
:101A800039F49A81963318F4953311F404FF81E305
:101A9000B60190E04BC08A81813309F00F7EB60118
:101AA00090E00E946314111105C034FC18C085E653
:101AB00090E017C0B6018EE290E00E94631482E0CD
:101AC000EE24E394E80EF301E80FF11D8081B601E6
:101AD00090E00E94631411508E2D91F7E6CF85E4BB
:101AE00090E0B6010E94631457FC05C041145104F4
:101AF00039F404FF05C05194419451088DE201C0AE
:101B00008BE2B60190E00E94631480E39AE04916EC
:101B100051042CF08F5F5AE0451A5108F7CFB601F7
:101B200090E00E946314B601C201C0960E94631443
:101B300057C1833631F0833779F0833509F058C0C7
:101B400021C05201E2E0AE0EB11CF2018081898316
:101B500001E010E0230114C05201F2E0AF0EB11C0D
:101B6000F2014080518026FF03C0612F70E002C067
:101B70006FEF7FEFC2012A8B0E9458148C012A89D3
:101B80002F7715C05201F2E0AF0EB11CF201408078
:101B9000518026FF03C0612F70E002C06FEF7FEF1E
:101BA000C2012A8B0E9442148C012A892068322E9D
:101BB00023FD1AC08F2D90E008171907A8F4B6016D
:101BC00080E290E00E946314FA94F4CFF20137FCB3
:101BD000859137FE81912F01B60190E00E94631438
:101BE000F110FA94015011090115110579F7F8C0A7
:101BF000843611F0893659F5520127FF09C0F4E007
:101C0000AF0EB11CF20160817181828193810AC0A3
:101C1000F2E0AF0EB11CF20160817181072E000C61
:101C2000880B990B2F76322E97FF09C090958095DF
:101C3000709561957F4F8F4F9F4F2068322E2AE01D
:101C400030E0A3010E94CB14E82EE6183FC0022F1B
:101C5000853721F40F7E2AE030E01DC0097F8F36E2
:101C600091F018F4883559F0C5C0803719F08837DD
:101C700011F0C0C0006104FF09C0046007C024FF68
:101C800008C0066006C028E030E005C020E130E072
:101C900002C020E132E0520107FF09C0F4E0AF0EBC
:101CA000B11CF201608171818281938108C0F2E0F0
:101CB000AF0EB11CF2016081718180E090E0A30160
:101CC0000E94CB14E82EE6180F77302E36FE0BC09C
:101CD000332D3E7FE11650F434FE0AC032FC08C0BA
:101CE000332D3E7E05C00E2D332D03C00E2D01C0B9
:101CF000012F34FF0CC0FE01EE0DF11D80818033F9
:101D000011F4397E08C032FF05C00E5F04C0832F76
:101D1000867809F00F5F33FD13C030FF06C01E2D1B
:101D20000F1518F41F0D101B0F2D0F1568F4B601B9
:101D300080E290E03B8B0E9463140F5F3B89F5CFFC
:101D40000F1510F4F01A01C0F12C34FF12C0B601C7
:101D500080E390E03B8B0E9463143B8932FF17C005
:101D600031FD03C088E790E002C088E590E0B6014D
:101D70000CC0832F867859F031FF02C08BE201C07E
:101D800080E237FD8DE2B60190E00E946314E11617
:101D900038F4B60180E390E00E9463141150F7CF4D
:101DA000EA94F301EE0DF11D8081B60190E00E94EE
:101DB0006314E110F5CF14C0F4E0FF1558F584E08A
:101DC000F81A33FE1EC0211026C003FF2AC008E601
:101DD00010E0F32DF0713F2EF8018491811124C0A1
:101DE000FF2009F4E5CCB60180E290E00E94631484
:101DF000FA94F6CFF6018681978126C08FEF9FEF88
:101E000023C0B60180E290E00E946314FA94F110BE
:101E1000F8CFD9CFF12CB601822D90E00E94631447
:101E2000D4CF0CE610E0D5CF31108052B60190E04F
:101E30000E9463140F5F1F4FCFCF23E02F1510F4C4
:101E400083E0BECFF12CC1CF6396E2E10C94B311D5
:101E5000CF93DF931F92CDB7DEB73C9A449A0E948E
:101E60009C030E9488044FE951E061E080E00E94F9
:101E7000460985EE92E00E94E60163E00E94E403D9
:101E800047EB51E061E080E00E9446090AE020E073
:101E900040E060E081E00E94100A0E948C02809382
:101EA000E502823009F04DC043EC51E061E080E092
:101EB0000E9446092FEF34E38CE0215030408040EF
:101EC000E1F700C000000E94C402882319F181E0FC
:101ED0008983CE0101960E940802811107C021E08A
:101EE00041E061E081E00E94A4092BC020E041E0D4
:101EF00061E080E00E94A4094FEC51E061E080E0E5
:101F00000E9446099FEFE1E1FAE79150E040F0407E
:101F1000E1F713C021E040E060E081E00E94A40905
:101F20004FEC51E061E080E00E9446092FEF31E183
:101F30008AE7215030408040E1F700C000000E9455
:101F4000AF0345ED51E061E080E00E94460961EE9B
:101F500072E080E00E94E80065E00E94E40345ED45
:101F600051E061E080E00E9446096DED72E081E0A1
:101F70000E94E80069E00E94E4036091E102709130
:101F8000E2028091E3029091E4020E94D00A42EEC4
:101F900051E061E080E00E9446096AE081E00E9431
:101FA00018076091E50270E080E090E041E00E9457
:101FB00020079FEFE1E1FAE79150E040F040E1F7C0
:101FC00000C000006FE081E00E9418076091E1020C
:101FD0007091E2028091E3029091E40241E00E945C
:101FE00020076FE080E00E9418076091DD02709189
:101FF000DE028091DF029091E00241E00E94200722
:102000002FEF31E18AE7215030408040E1F700C0F6
:10201000000020E040E060E080E00E94A4090E940F
:102020009A0887EEC82E81E0D82E98E2F92E0EEAA3
:1020300012E026E8822E22E0922E39E0A32E32E032
:10204000B32E83E00E94380B0E9471122B013C01D9
:102050008091DD029091DE02A091DF02B091E0025A
:102060002091E1023091E2024091E3025091E402BA
:10207000BC01CD01621B730B840B950B0E94711286
:102080009B01AC01C301B2010E94CE119F938F93BB
:102090007F936F93DF92CF921F92FF921F930F93C4
:1020A0000E949B144EEA52E060E080E00E944609E4
:1020B0009FEFE9E6F8E19150E040F040E1F700C021
:1020C0000000F4012F2D11922A95E9F70FB6F8942C
:1020D000DEBF0FBECDBF8091D602882341F06CEEEB
:1020E00071E086E892E00E944D141092D60264EFEF
:1020F00071E086E892E00E944D146EEA72E086E894
:1021000092E00E944D144EEA52E061E080E00E94AD
:1021100046099FEFE9E6F8E19150E040F040E1F731
:1021200000C0000067EF71E086E892E00E944D1465
:10213000F8012F2D11922A95E9F74CEF51E061E05B
:1021400080E00E9446093FEF89E698E131508040E7
:102150009040E1F700C000000E94A50BBC0180E0A8
:1021600090E00E946F1220E030E044E353E40E94CC
:10217000CE119F938F937F936F93BF92AF921F92D5
:10218000FF921F930F930E949B146EE072E08EEA01
:1021900092E00E944D142EEA32E044E060E172E0E9
:1021A00080E00E941E09EFEFF9E628E1E150F040DF
:1021B0002040E1F700C000006EEA72E086E892E09D
:1021C0000E944D1426E832E040E069E172E080E0D0
:1021D0000E941E090E9422046EEA72E086E892E0E4
:1021E0000E94E9050FB6F894DEBF0FBECDBF88236D
:1021F00019F043E252E002C04FE252E061E080E0B9
:102200000E944609FFEF29E638E1F15020403040B6
:10221000E1F700C000004DE352E061E080E00E9481
:1022200046098FEF99E6E8E181509040E040E1F700
:1022300000C000000E948E09FFEF20E732E0F1505D
:1022400020403040E1F700C000000E947A038091F6
:10225000D60281111092D7028091D7028111F5CF59
:102260000E940F054AE452E061E080E00E944609C6
:102270008FEF99E6E8E181509040E040E1F700C03F
:102280000000DFCEAA1BBB1B51E107C0AA1FBB1F6A
:10229000A617B70710F0A61BB70B881F991F5A95F2
:1022A000A9F780959095BC01CD010895A1E21A2E61
:1022B000AA1BBB1BFD010DC0AA1FBB1FEE1FFF1FEA
:1022C000A217B307E407F50720F0A21BB30BE40B3A
:1022D000F50B661F771F881F991F1A9469F7609581
:1022E0007095809590959B01AC01BD01CF0108953B
:1022F000052E97FB1EF400940E948F1157FD07D006
:102300000E94561107FC03D04EF40C948F11509587
:102310004095309521953F4F4F4F5F4F08959095D1
:102320008095709561957F4F8F4F9F4F08952F92A5
:102330003F924F925F926F927F928F929F92AF9255
:10234000BF92CF92DF92EF92FF920F931F93CF93A2
:10235000DF93CDB7DEB7CA1BDB0B0FB6F894DEBF39
:102360000FBECDBF09942A88398848885F846E845F
:102370007D848C849B84AA84B984C884DF80EE80A9
:10238000FD800C811B81AA81B981CE0FD11D0FB6B2
:10239000F894DEBF0FBECDBFED0108950E94E2119B
:1023A0000C94C3120E94BC1258F00E94B51240F067
:1023B00029F45F3F29F00C94AC1251110C94F712E0
:1023C0000C94B2120E94D41268F39923B1F35523EE
:1023D00091F3951B550BBB27AA2762177307840738
:1023E00038F09F5F5F4F220F331F441FAA1FA9F3CE
:1023F00035D00E2E3AF0E0E832D091505040E695BC
:10240000001CCAF72BD0FE2F29D0660F771F881F1C
:10241000BB1F261737074807AB07B0E809F0BB0B0F
:10242000802DBF01FF2793585F4F3AF09E3F510523
:1024300078F00C94AC120C94F7125F3FE4F3983EE2
:10244000D4F3869577956795B795F7959F5FC9F70C
:10245000880F911D9695879597F90895E1E0660F8D
:10246000771F881FBB1F621773078407BA0720F006
:10247000621B730B840BBA0BEE1F88F7E09508956F
:102480000E94DC1288F09F5798F0B92F9927B75116
:10249000B0F0E1F0660F771F881F991F1AF0BA9508
:1024A000C9F714C0B13091F00E94F612B1E008955E
:1024B0000C94F612672F782F8827B85F39F0B93F50
:1024C000CCF3869577956795B395D9F73EF49095BB
:1024D0008095709561957F4F8F4F9F4F0895E89439
:1024E00009C097FB3EF490958095709561957F4F5C
:1024F0008F4F9F4F9923A9F0F92F96E9BB2793950A
:10250000F695879577956795B795F111F8CFFAF419
:10251000BB0F11F460FF1BC06F5F7F4F8F4F9F4F4A
:1025200016C0882311F096E911C0772321F09EE8A8
:10253000872F762F05C0662371F096E8862F70E00E
:1025400060E02AF09A95660F771F881FDAF7880FE8
:102550009695879597F9089597F99F6780E870E0B9
:1025600060E008959FEF80EC089500240A94161609
:10257000170618060906089500240A941216130671
:10258000140605060895092E0394000C11F48823FF
:1025900052F0BB0F40F4BF2B11F460FF04C06F5F1B
:1025A0007F4F8F4F9F4F089557FD9058440F551FF1
:1025B00059F05F3F71F04795880F97FB991F61F0C5
:1025C0009F3F79F087950895121613061406551F3C
:1025D000F2CF4695F1DF08C0161617061806991FA8
:1025E000F1CF86957105610508940895E894BB279D
:1025F00066277727CB0197F908950E9410130C9452
:10260000C3120E94B51238F00E94BC1220F095232C
:1026100011F00C94AC120C94B21211240C94F71219
:102620000E94D41270F3959FC1F3950F50E0551F8F
:10263000629FF001729FBB27F00DB11D639FAA2717
:10264000F00DB11DAA1F649F6627B00DA11D661F66
:10265000829F2227B00DA11D621F739FB00DA11D87
:10266000621F839FA00D611D221F749F3327A00D41
:10267000611D231F849F600D211D822F762F6A2FDD
:1026800011249F5750409AF0F1F088234AF0EE0F42
:10269000FF1FBB1F661F771F881F91505040A9F76F
:1026A0009E3F510580F00C94AC120C94F7125F3FE2
:1026B000E4F3983ED4F3869577956795B795F795AB
:1026C000E7959F5FC1F7FE2B880F911D9695879523
:1026D00097F90895283008F027E03327DA01990F99
:1026E000311D87FD916000966105710539F43260F6
:1026F0002E5F3D9330E32A95E1F708959F3F30F038
:1027000080387105610509F03C5F3C5F3D93913075
:1027100008F08068911DDF93CF931F930F93FF9272
:10272000EF92192F987F9695E92F96959695E90F38
:10273000FF27E653FF4F99273327EE24FF24A701F5
:10274000E70105900894079428F4360FE71EF81E59
:10275000491F511D660F771F881F991F0694A1F707
:102760000590079428F4E70EF81E491F561FC11D57
:10277000770F881F991F661F0694A1F7059007948D
:1027800028F4F80E491F561FC71FD11D880F991F27
:10279000661F771F0694A1F70590079420F4490F50
:1027A000561FC71FD81F990F661F771F881F0694D3
:1027B000A9F784911095177041F0D695C795579554
:1027C0004795F794E7941A95C1F7E0E7F0E068942D
:1027D0001590159135916591959105907FE27395CE
:1027E000E118F10A430B560BC90BD009C0F7E10CF5
:1027F000F11E431F561FC91FD01D7EF4703311F404
:102800008A95E6CFE894015030F0080F0AF40027CB
:10281000021708F4202F2395022F7A3328F079E34A
:102820007D932A95E9F710C07D932A9589F6069441
:1028300097956795379517951794E118F10A430B0B
:10284000560BC90BD00998F023957E9173957A3376
:1028500008F070E37C932013B8F77E9170617D934C
:1028600030F0839571E37D9370E32A95E1F71124AD
:10287000EF90FF900F911F91CF91DF91992787FDE6
:1028800090950895FC010590615070400110D8F7B3
:10289000809590958E0F9F1F0895FB01DC010D9090
:1028A0000020E9F7119701900D920020E1F70895BB
:1028B000FC016150704001900110D8F7809590950F
:1028C0008E0F9F1F08950F931F93CF93DF93FB01EC
:1028D000238121FD03C08FEF9FEF28C022FF16C088
:1028E00046815781248135814217530744F4A081E2
:1028F000B1819D012F5F3F4F318320838C932681CF
:1029000037812F5F3F4F3783268310C0EB01092F9C
:10291000182F0084F185E02D0995892BE1F68E8131
:102920009F8101969F838E83812F902FDF91CF917E
:102930001F910F910895AEE0B0E0E1EAF4E10C944C
:10294000A5110D891E898F89988D26E02C831A8305
:10295000098397FF02C080E090E801979E838D83F2
:10296000AE01455E5F4F698D7A8DCE0101960E9462
:10297000AC0B4D815E8157FD0AC02F81388542170F
:1029800053070CF49A01F801E20FF31F10822E9600
:10299000E4E00C94C111FA01AA27283051F120314A
:1029A00081F1E8946F936E7F6E5F7F4F8F4F9F4FE3
:1029B000AF4FB1E03ED0B4E03CD0670F781F891F25
:1029C0009A1FA11D680F791F8A1F911DA11D6A0FF3
:1029D000711D811D911DA11D20D009F468943F91A6
:1029E0002AE0269F11243019305D3193DEF6CF01A5
:1029F0000895462F4770405D4193B3E00FD0C9F76B
:102A0000F6CF462F4F70405D4A3318F0495D31FDD7
:102A10004052419302D0A9F7EACFB4E0A69597952A
:102A2000879577956795BA95C9F700976105710500
:102A300008959B01AC010A2E06945795479537954A
:102A40002795BA95C9F7620F731F841F951FA01DA4
:102A50000895F999FECF92BD81BDF89A992780B566
:102A60000895A6E1B0E044E050E00C945715262FFD
:102A7000F999FECF92BD81BDF89A019700B4021674
:102A800039F01FBA20BD0FB6F894FA9AF99A0FBE22
:102A900008950396272F0E9438150E943715252F79
:102AA0000E943815242F0C943815DC01CB01FC0151
:102AB000F999FECF06C0F2BDE1BDF89A319600B497
:0E2AC0000D9241505040B8F70895F894FFCFA2
:102ACE00C091210054525920524553455400474F4E
:102ADE0020444F574E004572726F720041542B4383
:102AEE0046554E3D310047534D20494E4954204FD7
:102AFE004B0047534D20494E4954204641494C0006
:102B0E0047534D205245470047534D2052454720CD
:102B1E004F4B0047534D20524547204641494C00EC
:102B2E004C454420494E495400425554544F4E533F
:102B3E005F494E495400434845434B204C454400A1
:102B4E0047534D20494E49540041542B4346554E50
:102B5E003D300057454947485420494E4954004797
:102B6E004554204D4F4445004E4F5420574F524B25
:102B7E00204D4F44452100434C4252204D4F444579
:102B8E00203F0050415353434F4445204F4B004587
:102B9E0052524F5200474554494E47205A574748C4
:102BAE00540052203D2000252E336600414C4152E8
:102BBE004D212000573A003B20423A00454E5445E5
:102BCE005220544F2041444300252E3266005600B9
:102BDE00564F4C544147453A0053454E4420534DB1
:102BEE00533A0053454E4420534D53204F4B005300
:102BFE00454E4420534D53204641494C00454E54BA
:102C0E00455220544F2050534D00455849542046AC
:102C1E00524F4D2050534D0041540041542B4352BE
:102C2E0045473F0041542B434D47463D31004154EB
:102C3E002B434D47533D222B3739323535313935FC
:062C4E00323232220000C8
:00000001FF
