:100000000C9434000C9451000C9451000C94510049
:100010000C9451000C9451000C9451000C9451001C
:100020000C9451000C94A5010C9451000C945100B7
:100030000C9451000C9451000C9451000C945100FC
:100040000C9451000C9451000C94B0070C94510086
:100050000C9451000C9451000C9451000C945100DC
:100060000C9451000C94510011241FBECFEFD8E026
:10007000DEBFCDBF11E0A0E0B1E0E0E7F7E102C0F4
:1000800005900D92A63AB107D9F721E0A6EAB1E0B2
:1000900001C01D92A83CB207E1F70E94D6080C945B
:1000A000B60B0C940000549853985C985B98089594
:1000B000813039F0823049F489B183FB882780F997
:1000C000089589B182958170089580E00895CF9256
:1000D000DF92EF92FF92CF93DF93EB01882379F0C9
:1000E000813051F584E090E00E94820B6B017C012D
:1000F000688379838A839B8380E090E00CC08CE0E6
:1001000090E00E94820B6B017C01688379838A8373
:100110009B8388E090E00E94820BC616D706E80613
:10012000F90611F082E009C081E0CF20CE20CD2079
:10013000C09419F080E001C084E0DF91CF91FF907E
:10014000EF90DF90CF900895CF92DF92EF92FF92E1
:10015000CF93DF93EB018823D9F08130E1F548811B
:1001600059816A817B8184E090E00E949A0B4881EA
:1001700059816A817B8180E090E00E949A0B84E043
:1001800090E00E94820B6B017C0180E090E018C03F
:10019000488159816A817B818CE090E00E949A0BB2
:1001A000488159816A817B8188E090E00E949A0BA6
:1001B0008CE090E00E94820B6B017C0188E090E073
:1001C0000E94820BC616D706E806F90611F480E0F5
:1001D00003C085E001C084E0DF91CF91FF90EF90F4
:1001E000DF90CF900895DF92EF92FF920F931F93CD
:1001F000CF93DF93623049F0633061F0613011F5E5
:10020000C0E1D0E001E110E009C0C4E1D0E005E1C7
:1002100010E004C0C2E1D0E003E110E07C01C801BD
:100220000E947A0BD82EF7018083CE010E947A0BB0
:10023000D81651F06FE7C8010E94880B6FE7CE0116
:100240000E94880B82E001C080E0DF91CF911F9176
:100250000F91FF90EF90DF900895EF92FF920F9330
:100260001F93CF93DF93623049F0633061F06130C8
:1002700011F5C0E1D0E001E110E009C0C4E1D0E037
:1002800005E110E004C0C2E1D0E003E110E07C0130
:10029000FC016081C8010E94880BF7016081CE01DA
:1002A0000E94880BC8010E947A0B182FCE010E9471
:1002B0007A0B181711F085E001C080E0DF91CF9133
:1002C0001F910F91FF90EF9008950F931F93CF937D
:1002D0008C0185E190E00E947A0BC82FF8018083A1
:1002E00084E190E00E947A0BC81761F06FE785E126
:1002F00090E00E94880B6FE784E190E00E94880BF9
:1003000082E001C080E0CF911F910F910895CF93BB
:10031000DF93EC01688185E190E00E94880B6881A1
:1003200084E190E00E94880B85E190E00E947A0BC6
:10033000C82F84E190E00E947A0BC81711F085E085
:1003400001C080E0DF91CF9108951F920F920FB608
:100350000F9211242F938F939F93AF93BF9380910C
:10036000BB019091BC01A091BD01B091BE01803153
:1003700027E29207A105B10560F40196A11DB11D08
:100380008093BB019093BC01A093BD01B093BE01CB
:1003900009C01092BB011092BC011092BD011092D5
:1003A000BE01F894BF91AF919F918F912F910F90C3
:1003B0000FBE0F901F9018950895CF93DF93D82FFD
:1003C0000E945800882311F080E00FC0C5E68D2FF1
:1003D0000E945800811109C08FE59AEE0197F1F74C
:1003E00000C00000C15099F7EFCFDF91CF91089581
:1003F00020E040E060E080E00E9410078091C701AB
:10040000823019F120E040E060E081E00E941007B6
:1004100081E00E94DD018823C1F020E040E061E03E
:1004200080E00E94100782E00E94DD01882369F0CD
:1004300020E040E060E081E00E94100781E00E943F
:10044000DD0181110BC083E0089520E040E060E011
:1004500080E00E9410078091C701089582E008950E
:100460000F931F93CF93DF9300D000D0CDB7DEB7AB
:1004700081E00E9458008823B1F000E09DC081E037
:100480000E945800811111C0812F0E9425072FEF73
:1004900084E39CE0215080409040E1F700C00000E0
:1004A000110F193060F311E0EACF83E00E94750864
:1004B00069837A838B839C83BE016F5F7F4F80E06B
:1004C0000E94A4008111D9CF81E00E9458008823A6
:1004D000F9F021E041E061E081E00E9410072FEF98
:1004E00081EE94E0215080409040E1F700C0000090
:1004F00020E040E060E080E00E9410072FEF81EEF6
:1005000094E0215080409040E1F700C00000DCCF33
:1005100082E00E9458008111B0CF82E00E94580012
:10052000082F811116C0812F0E9425072FEF84E329
:100530009CE0215080409040E1F700C00000812FF6
:1005400090E095958795009711F0182FE6CF18E069
:10055000E4CF83E00E94750869837A838B839C8350
:10056000BE016F5F7F4F81E00E94A400811185CFA3
:1005700082E00E9458008823F9F021E041E061E028
:1005800081E00E9410072FEF81EE94E0215080401F
:100590009040E1F700C0000020E040E060E080E033
:1005A0000E9410072FEF81EE94E021508040904090
:1005B000E1F700C00000DCCF802F0F900F900F906C
:1005C0000F90DF91CF911F910F9108951092B0007D
:1005D0001092B20081E08093700087E08093B100B8
:1005E000F89483B7817F866083BF83B7816083BFC0
:1005F0007894889508950895F89484B7877F84BF88
:10060000E0E6F0E080818861808310820895F894AC
:100610008FE08093600008950E940703FFCFCF9280
:10062000DF92EF92FF92CF93DF93882369F1D62F69
:10063000C0E0C82ED12CE12CF12C81E00E945800A2
:10064000811122C08D2F0E9425072FEF84E39CE0AB
:10065000215080409040E1F700C00000CF5FCB30D8
:1006600060F365E081E00E94970464E184E091E03A
:100670000E9478066FE081E00E94970440E0C70185
:10068000B6010E949F04D9CFDF91CF91FF90EF90E8
:10069000DF90CF9008950E9416040E9419064AE048
:1006A00051E061E080E00E94BF060E94070743E13D
:1006B00051E061E080E00E94BF060E94530040E2EA
:1006C00051E061E080E00E94BF060E943A074AE2E2
:1006D00051E061E080E00E94BF060E94CF0380915C
:1006E000AB018F34D1F08091AC018B34B1F066EA6C
:1006F00071E083E391E00E94D10346EA51E061E0BA
:1007000080E00E94BF062FEF89E698E121508040EB
:100710009040E1F700C00000E2CF46E351E061E025
:1007200080E00E94BF062FEF84E39CE021508040D0
:100730009040E1F700C000000C94B7080F9383B716
:100740008E7F83BF0E944B0342E451E061E080E072
:100750000E94BF0687EC91E00E94650163E00E9461
:100760000F030AE020E040E060E081E00E947C07A7
:100770008091C701813081F04BE451E061E080E07D
:100780000E94BF060FE020E040E061E080E00E94B0
:100790007C070E940703FFCF80E00F9108950C941F
:1007A000BE070F931F93CF93DF9300D0CDB7DEB773
:1007B0008B0189839A830E94D30761E089819A81A2
:1007C0000E94FC07C8010E9421080F900F90DF9142
:1007D000CF911F910F910C94CC07EFE1F3E031978B
:1007E000F1F700C000002C982D9898B1907F98B92F
:1007F00098B1282F22952F70922B98B92D9A2D9869
:10080000EFECF7E03197F1F700C0000098B1907F6E
:1008100098B998B18F70892B88B92D9A2D988FEC43
:1008200097E00197F1F700C0000008958FE493EC82
:100830000197F1F700C0000087B18F6087B9259A52
:10084000249A2C982D9888B1807F88B988B18360CC
:1008500088B92D9A2D988FEC97E00197F1F700C099
:10086000000088B1807F88B988B1836088B92D9AEB
:100870002D988FEC97E00197F1F700C0000098E702
:100880009A95F1F788B1836088B92D9A2D988FECED
:1008900097E00197F1F700C0000098E79A95F1F70B
:1008A00088B1807F88B9419A2D9A2D988FEC97E076
:1008B0000197F1F700C0000098E79A95F1F788E2F8
:1008C0000E94ED0388E00E94ED038CE00E94ED039E
:1008D00081E00E94ED0386E00C94ED03EFE1F3E08C
:1008E0003197F1F700C000002D9898B1907F98B92A
:1008F00098B1282F22952F70922B98B92C9A2D9A67
:100900002D98EFECF7E03197F1F700C0000098B1B7
:10091000907F98B998B18F70892B88B92D9A2D98AE
:100920008FEC97E00197F1F700C00000089588234D
:1009300011F080EC01C080E8862B0C94ED038F92BF
:100940009F92AF92BF92CF92DF92EF92FF920F935E
:100950001F93CF93DF9300D000D0CDB7DEB76B01EC
:100960007C01042F97FF0AC0F094E094D094C094C7
:10097000C11CD11CE11CF11C11E001C010E084E09D
:100980000E94ED03C114D104E104F10421F480E3D9
:100990000E946E0426C0C701B6012AE0822E912C67
:1009A000A12CB12CA50194010E940F0A80E3860FAF
:1009B00029833A834B835C830E946E042981622FD2
:1009C0003A81732F4B81842F5C81952F61157105BE
:1009D0008105910539F78AE0C816D104E104F104D4
:1009E00018F480E30E946E04112319F08DE20E9436
:1009F0006E04002361F080E20E946E0480E20E9497
:100A00006E0480E20E946E0480E20E946E0486E022
:100A10000F900F900F900F90DF91CF911F910F913A
:100A2000FF90EF90DF90CF90BF90AF909F908F900E
:100A30000C94ED03AF92BF92CF92DF92EF92FF92B0
:100A40000F931F93CF93DF931F92CDB7DEB78C0127
:100A5000A62EF42E84E00E94ED030115110549F441
:100A600080E30E946E04BB24B3940A2DAA0C110BE0
:100A700015C0B12C8AE0C82ED12CC801B6010E9445
:100A8000FB09E62E805D79830E946E040E2D79812C
:100A9000172FB3940115110581F7E7CF98012B1992
:100AA0003109B7FC3395121613062CF4B3948F2D2D
:100AB0000E946E04F3CF86E00F90DF91CF911F91DB
:100AC0000F91FF90EF90DF90CF90BF90AF900C947C
:100AD000ED038F929F92AF92BF92CF92DF92EF92EF
:100AE000FF920F931F93CF93DF9300D0CDB7DEB764
:100AF000811520E19207A0F066277727681B790B04
:100B000080E090E00E947F0A20E030E048EC50E472
:100B10000E94E50A0E94500A4B01CC24C3940FC0E6
:100B2000BC0180E090E00E947F0A20E030E048ECC9
:100B300050E40E94E50A0E94500A4B01C12CC401F6
:100B40000A978A35910530F0F12C8AE088169104D5
:100B500028F002C0FF24F394D12C02C0DD24D394EA
:100B600084E00E94ED038114910431F08401E12CB2
:100B70008AE0A82EB12C09C080E30E946E0422C036
:100B800001151105F9F0E11015C0C801B5010E9469
:100B9000FB09972F062F172FE39422E0E212F0CFE4
:100BA0008EE269837A830E946E0469819A810115BD
:100BB000110541F0862FB5010E94FB09805D0E945E
:100BC0006E04E3CFFF2019F080E30E946E04DD2065
:100BD00049F080E30E946E048EE20E946E0480E37E
:100BE0000E946E04CC2011F08DE201C08BE20E94C5
:100BF0006E04F1100AC0D11008C084E6881A91086A
:100C000024E8821623E0920618F480E20E946E0423
:100C100086E00F900F90DF91CF911F910F91FF9081
:100C2000EF90DF90CF90BF90AF909F908F900C94FB
:100C3000ED0381E00E94ED032FEF84E39CE021505F
:100C400080409040E1F700C0000008952D982C9856
:100C500088B1807F88B987B1807F87B95C9A2D9AE7
:100C600082E08A95F1F700C086B12D9892E09A95BE
:100C7000F1F700C02D9A92E09A95F1F700C096B175
:100C80002D9892E09A95F1F700C05C9897B19F601B
:100C900097B983FB882780F908950E942606811161
:100CA000FCCF2C982D9888B1807F88B987B1807F40
:100CB00087B95C9A8AE08A95F1F700C02C9A2D9A40
:100CC0009AE09A95F1F700C026B12D9A2D988FECF5
:100CD00097E00197F1F700C0000096B15C9887B1EA
:100CE0008F6087B92295207F892F8F70822B08957E
:100CF000FF920F931F93CF93DF931F92CDB7DEB771
:100D00008C01F12CF801EF0DF11D8081882341F059
:100D1000F61631F069830E946E04F3946981F2CF74
:100D20000F90DF91CF911F910F91FF900895EF9257
:100D3000FF920F931F93CF93DF9300D0CDB7DEB711
:100D40008B0179014A8389830E9419068981806811
:100D50000E94ED0364E1C8010E9478064A81842F55
:100D6000806C0E94ED0364E1C7010F900F90DF914A
:100D7000CF911F910F91FF90EF900C9478060F93F5
:100D80001F93CF93DF9300D0CDB7DEB78A016A837C
:100D900089830E94190689816A81811103C0862F87
:100DA000806C02C0862F80680E94ED0364E1C80158
:100DB0000F900F90DF91CF911F910F910C947806B7
:100DC000CF92DF92EF92FF92CF93DF9300D0CDB717
:100DD000DEB769017A016A8389830E9419068981D5
:100DE0006A81811103C0862F806C02C0862F8068C3
:100DF0000E94ED0341E0C701B6010F900F90DF9113
:100E0000CF91FF90EF90DF90CF900C949F04229AA7
:100E1000579A569A559A2A985F985E985D980895C1
:100E2000882311F02A9A01C02A98662311F05F9A4C
:100E300001C05F98442311F05E9A01C05E9822239E
:100E400011F05D9A08955D98089580FF02C02A9A76
:100E500001C02A9881FF02C05F9A01C05F9882FF9B
:100E600002C05E9A01C05E9883FF02C05D9A089539
:100E70005D98089520E040E060E081E00E94100766
:100E80002FEF89E698E1215080409040E1F700C0C3
:100E9000000020E040E061E080E00E9410072FEFBA
:100EA00089E698E1215080409040E1F700C00000C1
:100EB00020E041E060E080E00E9410072FEF89E62B
:100EC00098E1215080409040E1F700C0000021E00F
:100ED00040E060E080E00E9410072FEF89E698E193
:100EE000215080409040E1F700C0000020E040E049
:100EF00060E080E00C941007EF92FF920F931F9335
:100F0000CF93DF93D82F162FF42EE22EC0E0C01718
:100F100001F12E2D4F2D612F8D2F0E9410072FEFE5
:100F200081EE94E0215080409040E1F700C0000045
:100F300020E040E060E080E00E9410072FEF81EEAB
:100F400094E0215080409040E1F700C00000CF5F66
:100F5000DECFDF91CF911F910F91FF90EF90089519
:100F60001F920F920FB60F9211248F938091C6009B
:100F70008F910F900FBE0F901F90189583E390E014
:100F80009093C5008093C40088E98093C10086E0F7
:100F90008093C200789408957894E1ECF0E0808129
:100FA000806880830895F894E1ECF0E080818F7789
:100FB0008083089520E030E09091C00095FD08C046
:100FC0002F5F3F4F213197E23907B1F780E0089555
:100FD0008093C60081E0089580E090E02091C000F9
:100FE00027FD07C00196813127E29207B9F783E018
:100FF00008958091C60008950F931F93CF93DF93B8
:101000001F92CDB7DEB78C01F80181918F01882343
:1010100029F069830E94DA076981F6CF662359F0C7
:101020008DE00E94DA078AE00F90DF91CF911F9147
:101030000F910C94DA070F90DF91CF911F910F91D0
:1010400008950F931F93CF93DF93EC018C010D5EF6
:101050001F4F8881833031F41882DF91CF911F9127
:101060000F910895C017D107B9F30E94EC07899337
:10107000F0CF8091C6000895609300017093010144
:101080008093020190930301089583B18695817046
:101090000895CF92DF92EF92FF92CF930E9445087E
:1010A0008111FCCFC8E1C12CD12C7601289ACC0C3F
:1010B000DD1CEE1CFF1C0E944508882329F08FEFE1
:1010C000C81AD80AE80AF80A2898C15079F7289A65
:1010D0002898289A2898289A2898C701B601CF916D
:1010E000FF90EF90DF90CF900895CF92DF92EF9234
:1010F000FF92CF93DF938823D9F0C82FD0E0C12C83
:10110000D12C76010E944908C60ED71EE81EF91E92
:1011100082E08A95F1F700C0DF5FDC13F3CF2D2F5B
:1011200030E040E050E0C701B6010E94310A03C040
:1011300020E030E0A901CA01B901DF91CF91FF9011
:10114000EF90DF90CF9008950F931F930E94750842
:1011500000910001109101012091020130910301E1
:10116000601B710B820B930B1F910F910895209AB6
:101170002198289883E00C94A4080E947508609335
:10118000000170930101809302019093030108957F
:10119000289808952898289A0895609100017091E0
:1011A000010180910201909103010895CF93DF9393
:1011B0001F92CDB7DEB70E94FC020E944B0342E4AF
:1011C00051E061E080E00E94BF0687EC91E00E9460
:1011D000650163E00E940F034AE551E061E080E0B1
:1011E0000E94BF060AE020E040E060E081E00E944B
:1011F0007C070E94F8018093C7018230E1F546E642
:1012000051E061E080E00E94BF062FEF84E39CE0A4
:10121000215080409040E1F700C000000E94300261
:101220008823A1F081E08983CE0101960E94870185
:10123000811107C021E041E061E081E00E941007D8
:101240001AC020E041E061E080E004C021E040E01D
:1012500060E081E00E94100742E751E061E080E039
:101260000E94BF062FEF81E19AE721508040904015
:10127000E1F700C0000048E751E061E080E00E9433
:10128000BF0663EC71E080E00E94670065E00E94A9
:101290000F0348E751E061E080E00E94BF0663EC85
:1012A00071E080E00E94670069E00E940F03609196
:1012B000C3017091C4018091C5019091C6010E9443
:1012C0003C0845E851E061E080E00E94BF066AE02A
:1012D00081E00E9497046091C70170E080E090E097
:1012E00041E00E949F042FEF81E19AE72150804066
:1012F0009040E1F700C000006FE081E00E94970499
:101300006091C3017091C4018091C5019091C601A3
:1013100041E00E949F046FE080E00E94970460918A
:10132000BF017091C0018091C1019091C20141E063
:101330000E949F042FEF81E19AE721508040904066
:10134000E1F700C0000020E040E060E080E00E94A3
:1013500010070E941906209A4AE851E061E080E0F7
:101360000E94BF062FEF89E698E12150804090400F
:10137000E1F700C000000E94E6020E949E0347E9D8
:1013800051E061E080E00E94BF062FEF89E698E11E
:10139000215080409040E1F700C000002091BB0147
:1013A0003091BC014091BD015091BE016CE081E0E3
:1013B0000E94E0062FEF89E698E12150804090409E
:1013C000E1F700C000000E9419060E9419066CE0B7
:1013D00081E00E94970483E00E94A40841E00E94FB
:1013E0009F042FEF81E19AE7215080409040E1F780
:1013F00000C00000B1CFAA1BBB1B51E107C0AA1F50
:10140000BB1FA617B70710F0A61BB70B881F991FA5
:101410005A95A9F780959095BC01CD010895A1E258
:101420001A2EAA1BBB1BFD010DC0AA1FBB1FEE1F5E
:10143000FF1FA217B307E407F50720F0A21BB30BA9
:10144000E40BF50B661F771F881F991F1A9469F725
:1014500060957095809590959B01AC01BD01CF0181
:101460000895052E97FB1EF400940E94480A57FD2C
:1014700007D00E940F0A07FC03D04EF40C94480AD0
:1014800050954095309521953F4F4F4F5F4F0895B0
:1014900090958095709561957F4F8F4F9F4F0895E0
:1014A0000E94C40A88F09F5798F0B92F9927B75126
:1014B000B0F0E1F0660F771F881F991F1AF0BA95F8
:1014C000C9F714C0B13091F00E94DE0AB1E008956E
:1014D0000C94DE0A672F782F8827B85F39F0B93F60
:1014E000CCF3869577956795B395D9F73EF49095AB
:1014F0008095709561957F4F8F4F9F4F0895E89429
:1015000009C097FB3EF490958095709561957F4F4B
:101510008F4F9F4F9923A9F0F92F96E9BB279395F9
:10152000F695879577956795B795F111F8CFFAF409
:10153000BB0F11F460FF1BC06F5F7F4F8F4F9F4F3A
:1015400016C0882311F096E911C0772321F09EE898
:10155000872F762F05C0662371F096E8862F70E0FE
:1015600060E02AF09A95660F771F881FDAF7880FD8
:101570009695879597F9089557FD9058440F551FF4
:1015800059F05F3F71F04795880F97FB991F61F005
:101590009F3F79F087950895121613061406551F7C
:1015A000F2CF4695F1DF08C0161617061806991FE8
:1015B000F1CF86957105610508940895E894BB27DD
:1015C00066277727CB0197F908950E94F80A0C94B3
:1015D000690B0E945B0B38F00E94620B20F0952390
:1015E00011F00C94520B0C94580B11240C94DF0A3C
:1015F0000E94BC0A70F3959FC1F3950F50E0551FF0
:10160000629FF001729FBB27F00DB11D639FAA2757
:10161000F00DB11DAA1F649F6627B00DA11D661FA6
:10162000829F2227B00DA11D621F739FB00DA11DC7
:10163000621F839FA00D611D221F749F3327A00D81
:10164000611D231F849F600D211D822F762F6A2F1D
:1016500011249F5750409AF0F1F088234AF0EE0F82
:10166000FF1FBB1F661F771F881F91505040A9F7AF
:101670009E3F510580F00C94520B0C94DF0A5F3FA3
:10168000E4F3983ED4F3869577956795B795F795EB
:10169000E7959F5FC1F7FE2B880F911D9695879563
:1016A00097F9089597F99F6780E870E060E00895E2
:1016B0009FEF80EC089500240A941616170618066A
:1016C0000906089500240A94121613061406050646
:1016D0000895092E0394000C11F4882352F0BB0FD7
:1016E00040F4BF2B11F460FF04C06F5F7F4F8F4F3A
:1016F0009F4F0895F999FECF92BD81BDF89A992721
:1017000080B50895A6E1B0E044E050E00C94A80B49
:10171000262FF999FECF92BD81BDF89A019700B4AA
:10172000021639F01FBA20BD0FB6F894FA9AF99A4A
:101730000FBE08950396272F0E94890B0E94880BE5
:10174000252F0E94890B242F0C94890BDC01CB01DF
:10175000FC01F999FECF06C0F2BDE1BDF89A3196C1
:1017600000B40D9241505040B8F70895F894FFCF5F
:10177000C09121004572726F72004C454420494E61
:10178000495400425554544F4E535F494E495400FA
:10179000434845434B204C45440047534D20494E58
:1017A00049540041540057454947485420494E493F
:1017B0005400474554204D4F4445004E4F54205748
:1017C0004F524B204D4F44452100434C4252204D37
:1017D0004F4445203F0050415353434F4445204F11
:1017E0004B004552524F5200474554494E47205AEC
:1017F000574748540052203D2000456E74657220C2
:10180000746F2050534D00455849542046524F4D57
:061810002050534D0000C2
:00000001FF
