:100000000C94B5000C94D2000C94D2000C94D20045
:100010000C94D2000C94D2000C94D2000C94D20018
:100020000C94D2000C9426020C94D2000C94D200B2
:100030000C94D2000C94D2000C94D2000C94D200F8
:100040000C94D2000C94D2000C94690A0C94D20047
:100050000C94D2000C94D2000C94D2000C94D200D8
:100060000C94D2000C94D2006E616E00696E660032
:1000700000407A10F35A00A0724E18090010A5D45F
:10008000E80000E87648170000E40B54020000CABC
:100090009A3B000000E1F505000080969800000002
:1000A00040420F000000A086010000001027000061
:1000B0000000E803000000006400000000000A00E7
:1000C000000000000100000000002C76D888DC67EA
:1000D0004F0823DFC1DFAE59E1B1B796E5E3E45342
:1000E000C63AE651997696E8E6C28426EB898C9B5F
:1000F00062ED407C6FFCEFBC9C9F40F2BAA56FA5FF
:10010000F490055A2AF75C936B6CF9676DC11BFC80
:10011000E0E40D47FEF520E6B500D0ED902E03009B
:10012000943577050080841E080000204E0A0000E8
:1001300000C80C333333330F986E12831141EF8DA7
:100140002114893BE65516CFFEE6DB18D1844B38E7
:100150001BF77C1D901DA4BBE424203284725E2218
:100160008100C9F124ECA1E53D2711241FBECFEF8A
:10017000D8E0DEBFCDBF12E0A0E0B1E0E0EBFBE2F3
:1001800002C005900D92A632B107D9F722E0A6E28F
:10019000B2E001C01D92AD38B207E1F70E944B0FEB
:1001A0000C94D6150C940000549853985C985B9866
:1001B0000895813039F0823049F489B183FB882772
:1001C00080F9089589B182958170089580E008953D
:1001D000CF92DF92EF92FF92CF93DF93EB018823D0
:1001E00079F0813051F584E090E00E94A2156B0116
:1001F0007C01688379838A839B8380E090E00CC0D4
:100200008CE090E00E94A2156B017C0168837983E9
:100210008A839B8388E090E00E94A215C616D706C9
:10022000E806F90611F082E009C081E0CF20CE2077
:10023000CD20C09419F080E001C084E0DF91CF911F
:10024000FF90EF90DF90CF900895CF92DF92EF92E2
:10025000FF92CF93DF93EB018823D9F08130E1F552
:10026000488159816A817B8184E090E00E94BA15BF
:10027000488159816A817B8180E090E00E94BA15B3
:1002800084E090E00E94A2156B017C0180E090E088
:1002900018C0488159816A817B818CE090E00E947E
:1002A000BA15488159816A817B8188E090E00E947B
:1002B000BA158CE090E00E94A2156B017C0188E0E9
:1002C00090E00E94A215C616D706E806F90611F4BA
:1002D00080E003C085E001C084E0DF91CF91FF9012
:1002E000EF90DF90CF900895DF92EF92FF920F93FF
:1002F0001F93CF93DF93623049F0633061F0613038
:1003000011F5C0E1D0E001E110E009C0C4E1D0E0A6
:1003100005E110E004C0C2E1D0E003E110E07C019F
:10032000C8010E949A15D82EF7018083CE010E9441
:100330009A15D81651F06FE7C8010E94A8156FE70B
:10034000CE010E94A81582E001C080E0DF91CF912C
:100350001F910F91FF90EF90DF900895EF92FF9221
:100360000F931F93CF93DF93623049F0633061F0B6
:10037000613011F5C0E1D0E001E110E009C0C4E155
:10038000D0E005E110E004C0C2E1D0E003E110E0FC
:100390007C01FC016081C8010E94A815F701608101
:1003A000CE010E94A815C8010E949A15182FCE01EF
:1003B0000E949A15181711F085E001C080E0DF91C6
:1003C000CF911F910F91FF90EF9008950F931F937E
:1003D000CF938C0185E190E00E949A15C82FF80117
:1003E000808384E190E00E949A15C81761F06FE75E
:1003F00085E190E00E94A8156FE784E190E00E94FB
:10040000A81582E001C080E0CF911F910F9108955F
:10041000CF93DF93EC01688185E190E00E94A815FD
:10042000688184E190E00E94A81585E190E00E9437
:100430009A15C82F84E190E00E949A15C81711F010
:1004400085E001C080E0DF91CF9108951F920F9267
:100450000FB60F9211248F939F93AF93BF93809108
:10046000780290917902A0917A02B0917B021816DD
:1004700019061A061B067CF00196A11DB11D80937A
:10048000780290937902A0937A02B0937B0281E084
:10049000809376020AC0109278021092790210922C
:1004A0007A0210927B0210927602BF91AF919F91D7
:1004B0008F910F900FBE0F901F9018950895CF93B6
:1004C000DF93D82F0E94D900882311F080E00FC05D
:1004D000C5E68D2F0E94D900811109C08FE59AEEE3
:1004E0000197F1F700C00000C15099F7EFCFDF91FD
:1004F000CF91089520E040E060E080E00E94C909CB
:1005000080918C02823019F120E040E060E081E0CF
:100510000E94C90981E00E945F028823C1F020E0A7
:1005200040E061E080E00E94C90982E00E945F0231
:10053000882369F020E040E060E081E00E94C90982
:1005400081E00E945F0281110BC083E0089520E0EA
:1005500040E060E080E00E94C90980918C0208952B
:1005600082E008950F931F93CF93DF9300D000D0C4
:10057000CDB7DEB781E00E94D9008823B1F000E05A
:100580009DC081E00E94D900811111C0812F0E947D
:10059000DE092FEF84E39CE0215080409040E1F79A
:1005A00000C00000110F193060F311E0EACF83E0C2
:1005B0000E942E0B69837A838B839C83BE016F5FBD
:1005C0007F4F80E00E9425018111D9CF81E00E94F8
:1005D000D9008823F9F021E041E061E081E00E9448
:1005E000C9092FEF81EE94E0215080409040E1F75F
:1005F00000C0000020E040E060E080E00E94C90907
:100600002FEF81EE94E0215080409040E1F700C050
:100610000000DCCF82E00E94D9008111B0CF82E0DF
:100620000E94D900082F811116C0812F0E94DE0977
:100630002FEF84E39CE0215080409040E1F700C020
:100640000000812F90E095958795009711F0182F65
:10065000E6CF18E0E4CF83E00E942E0B69837A8313
:100660008B839C83BE016F5F7F4F81E00E942501D9
:10067000811185CF82E00E94D9008823F9F021E022
:1006800041E061E081E00E94C9092FEF81EE94E032
:10069000215080409040E1F700C0000020E040E0A1
:1006A00060E080E00E94C9092FEF81EE94E02150C4
:1006B00080409040E1F700C00000DCCF802F0F9019
:1006C0000F900F900F90DF91CF911F910F91089590
:1006D000F89444981092B0001092B20081E0809398
:1006E000700097E09093B1008093760283B7817F8A
:1006F000866083BF83B7816083BF28E030E080E8F5
:100700000FB6F89480936100209361000FBE789437
:1007100088950895FFCFF89484B7877F84BFE0E67B
:10072000F0E080818861808310820895F8948FE0E2
:100730008093600008950E949603FFCF1F93CF938C
:10074000DF93882359F1162FC82FDBE081E00E9448
:10075000D900811123C0812F0E94DE092FEF84E38D
:100760009CE0215080409040E1F700C00000D15053
:1007700069F765E081E00E943D0764E184E091E073
:100780000E9424096FE081E00E943D076C2F70E019
:1007900080E090E040E00E944507FFCFDF91CF91DD
:1007A0001F9108953C9A449A2FEF84E39CE02150D6
:1007B00080409040E1F700C000000E9498062FEFB3
:1007C00081EE94E0215080409040E1F700C00000AD
:1007D0000E94BF082FEF80E792E0215080409040B8
:1007E000E1F700C000004AE051E061E080E00E94D3
:1007F0006B090E94C0092FEF89E698E121508040E3
:100800009040E1F700C0000043E151E061E080E08A
:100810000E946B090E94D4002FEF89E698E12150D5
:1008200080409040E1F700C0000040E251E061E00C
:1008300080E00E946B090E94F3092FEF89E698E19E
:10084000215080409040E1F700C000004AE251E0B2
:1008500061E080E00E946B090E949A05882309F1FB
:1008600043E351E061E080E00E946B092FEF89E6ED
:1008700098E1215080409040E1F700C000004FE334
:1008800051E061E080E00E946B090E94700B2FEF45
:1008900089E698E1215080409040E1F700C00000D7
:1008A00008954BE451E061E080E00E946B0921E093
:1008B00041E061E080E00E94C909FFCF0F93F89406
:1008C00083B78E7F83BF20E030E080E80FB6F894D6
:1008D00080936100209361000FBE10927802109205
:1008E000790210927A0210927B021092B20010925A
:1008F00070001092B1000E94D2031092760249E576
:1009000051E061E080E00E946B098CE892E00E9477
:10091000E60163E00E949E0380918C02813081F0A9
:1009200042E651E061E080E00E946B090FE020E0C8
:1009300040E061E080E00E94350A0E949603FFCF0C
:10094000789480E00F9108957F928F929F92AF925A
:10095000BF92CF92DF92EF92FF920F931F93CF93AC
:10096000DF93EC014A015B014115510561057041BE
:1009700078F08EEF9FEFAFEFBFEF9C01AD0128192C
:1009800039094A095B0949015A017724739401C066
:10099000712C80917C0290917D02A0917E02B09199
:1009A0007F02C0908002D0908102E0908202F0909D
:1009B0008302C816D906EA06FB064CF49C01AD0179
:1009C0002C193D094E095F0969017A0104C0C81A52
:1009D000D90AEA0AFB0AC501B401A70196010E94DF
:1009E000AD118901A8EEB3E0A50194010E94EE11BA
:1009F000A70196010E94AD11CA01B90128EE33E0AA
:100A000040E050E00E94AD11462F972FFE019E015D
:100A10002D5F3F4F5AE0E52EF12C842FB7010E9445
:100A20008511805D8193462F972FE217F307A9F771
:100A30008EE28B8334E08AE0E82EF12CFE01E30F96
:100A4000F11DC801B7010E948511805D80838B0173
:100A50003F5F672B99F7232F30E0772029F08DE255
:100A6000FE01E20FF31F8083F9013197EC0FFD1FA8
:100A7000DE01AE17BF0760F490818C9189278C93BB
:100A80009081892780839C9189278D933197F1CF1D
:100A9000FE01E20FF31F1082CE01DF91CF911F9173
:100AA0000F91FF90EF90DF90CF90BF90AF909F900D
:100AB0008F907F900895FC01862F62E30E94791148
:100AC000805D80838EE28183892F90E065E070E015
:100AD0000E949911605D628386E58383CF0108954A
:100AE00052980895DC0101962C912111FBCFFB0156
:100AF0008191882311F08D93FBCF08950F931F935D
:100B0000CF93DF9300D0CDB7DEB78B0189839A8373
:100B10000E948C0A61E089819A810E94B50AC8010D
:100B20000E94DA0A0F900F90DF91CF911F910F91E1
:100B30000C94850AEF92FF921F93CF93DF93CDB76A
:100B4000DEB7A8970FB6F894DEBF0FBECDBFCE01BB
:100B500001967C0188E2F70111928A95E9F70E94DB
:100B6000770A15E08E818F34A9F08F818B3491F054
:100B7000B70189EF91E00E947E05FFEF20E782E058
:100B8000F15020408040E1F700C00000115051F7C3
:100B900080E001C081E0A8960FB6F894DEBF0FBEDA
:100BA000CDBFDF91CF911F91FF90EF900895EF920D
:100BB000FF921F93CF93DF93CDB7DEB7A8970FB601
:100BC000F894DEBF0FBECDBFCE0101967C0188E256
:100BD000F70111928A95E9F715E0B7018CEF91E0E2
:100BE0000E947E058B89803319F48D89813369F0E9
:100BF000FFEF29E688E1F15020408040E1F700C096
:100C00000000115051F780E001C081E0A8960FB6B6
:100C1000F894DEBF0FBECDBFDF91CF911F91FF9043
:100C2000EF900895CF92DF92EF92FF920F931F9370
:100C3000CF93DF93CDB7DEB7A8970FB6F894DEBF9A
:100C40000FBECDBF6C0188E2E82E8E010F5F1F4FF3
:100C5000F8018E2D11928A95E9F70E94D705F82E9A
:100C6000882309F1F8011192EA94E9F7B80185E0C7
:100C700092E00E947E0560E08FE092E00E94B50A5B
:100C80008DE00E94930A8AE00E94930AC8010E94A4
:100C9000DA0A60E0C6010E94B50A8AE10E94930A5E
:100CA000C8010E94DA0A8F2DA8960FB6F894DEBF0D
:100CB0000FBECDBFDF91CF911F910F91FF90EF90AD
:100CC000DF90CF900895EFE1F3E03197F1F700C0A6
:100CD00000002C982D9898B1907F98B998B1282F42
:100CE00022952F70922B98B92D9AEFE1F3E031976E
:100CF000F1F700C000002D98EFECF7E03197F1F725
:100D000000C0000098B1907F98B998B18F70892B7E
:100D100088B92D9A8FE193E00197F1F700C00000A8
:100D20002D98EFECF7E03197F1F700C0000008953F
:100D30008FE493EC0197F1F700C0000087B18F605A
:100D400087B9259A249A2C982D9888B1807F88B9E4
:100D500088B1836088B92D9A8FE193E00197F1F70C
:100D600000C000002D988FEC97E00197F1F700C0CC
:100D7000000088B1807F88B988B1836088B92D9AD6
:100D80008FE193E00197F1F700C000002D988FEC00
:100D900097E00197F1F700C0000098E79A95F1F706
:100DA00088B1836088B92D9A8FE193E00197F1F7BC
:100DB00000C000002D988FEC97E00197F1F700C07C
:100DC000000098E79A95F1F788B1807F88B9419A39
:100DD0002D9A8FE193E00197F1F700C000002D9864
:100DE0008FEC97E00197F1F700C0000098E79A9523
:100DF000F1F788E20E94630688E00E9463068CE0B7
:100E00000E94630681E00E94630686E00C946306FC
:100E1000EFE1F3E03197F1F700C000002D9898B1B1
:100E2000907F98B998B1282F22952F70922B98B95E
:100E30002C9A2D9AEFE1F3E03197F1F700C0000012
:100E40002D98EFECF7E03197F1F700C0000098B172
:100E5000907F98B998B18F70892B88B92D9A8FE1BE
:100E600093E00197F1F700C000002D98EFECF7E058
:100E70003197F1F700C000000895882311F080EC4D
:100E800001C080E8862B0C9463068F929F92AF92EC
:100E9000BF92CF92DF92EF92FF920F931F93CF9367
:100EA000DF9300D000D0CDB7DEB76B017C01042FFB
:100EB00097FF0AC0F094E094D094C094C11CD11C58
:100EC000E11CF11C11E001C010E084E00E94630607
:100ED000C114D104E104F10421F480E30E94080765
:100EE00026C0C701B6012AE0822E912CA12CB12C7C
:100EF000A50194010E94AD1180E3860F29833A83F6
:100F00004B835C830E9408072981622F3A81732FEB
:100F10004B81842F5C81952F6115710581059105A9
:100F200039F78AE0C816D104E104F10418F480E32B
:100F30000E940807112319F08DE20E940807002380
:100F400061F080E20E94080780E20E94080780E2C8
:100F50000E94080780E20E94080786E00F900F9029
:100F60000F900F90DF91CF911F910F91FF90EF9015
:100F7000DF90CF90BF90AF909F908F900C946306BE
:100F8000AF92BF92CF92DF92EF92FF920F931F9397
:100F9000CF93DF931F92CDB7DEB78C01A62EF42E30
:100FA00084E00E9463060115110549F480E30E9464
:100FB0000807BB24B3940A2DAA0C110B15C0B12C41
:100FC0008AE0C82ED12CC801B6010E948511E62EF8
:100FD000805D79830E9408070E2D7981172FB394C5
:100FE0000115110581F7E7CF98012B193109B7FCDD
:100FF0003395121613062CF4B3948F2D0E94080714
:10100000F3CF86E00F90DF91CF911F910F91FF906A
:10101000EF90DF90CF90BF90AF900C9463068F92CB
:101020009F92AF92BF92CF92DF92EF92FF920F9377
:101030001F93CF93DF9300D0CDB7DEB7811520E1AA
:101040009207A0F066277727681B790B80E090E075
:101050000E94E01220E030E048EC50E40E946E1361
:101060000E94B1124B01CC24C3940FC0BC0180E09C
:1010700090E00E94E01220E030E048EC50E40E9452
:101080006E130E94B1124B01C12CC4010A978A351C
:10109000910530F0F12C8AE08816910428F002C006
:1010A000FF24F394D12C02C0DD24D39484E00E9469
:1010B00063068114910431F08401E12C8AE0A82EAA
:1010C000B12C09C080E30E94080722C00115110558
:1010D000F9F0E11015C0C801B5010E948511972FE4
:1010E000062F172FE39422E0E212F0CF8EE26983FD
:1010F0007A830E94080769819A810115110541F0E0
:10110000862FB5010E948511805D0E940807E3CFFC
:10111000FF2019F080E30E940807DD2049F080E3FA
:101120000E9408078EE20E94080780E30E940807D9
:10113000CC2011F08DE201C08BE20E940807F11073
:101140000AC0D11008C084E6881A910824E88216E3
:1011500023E0920618F480E20E94080786E00F90D0
:101160000F90DF91CF911F910F91FF90EF90DF9043
:10117000CF90BF90AF909F908F900C94630681E0CA
:101180000E9463062FEF84E39CE021508040904052
:10119000E1F700C0000008952D982C9888B1807F59
:1011A00088B987B1807F87B95C9A2D9A82E08A9549
:1011B000F1F700C086B12D9892E09A95F1F700C042
:1011C0002D9A92E09A95F1F700C096B12D9892E091
:1011D0009A95F1F700C05C9897B19F6097B983FB2F
:1011E000882780F908950E94CC088111FCCF2C98A3
:1011F0002D9888B1807F88B987B1807F87B95C9A44
:101200008AE08A95F1F700C02C9A2D9A9AE09A9577
:10121000F1F700C026B12D9A8FE193E00197F1F725
:1012200000C000002D988FEC97E00197F1F700C007
:10123000000096B15C9887B18F6087B92295207FB6
:10124000892F8F70822B0895FF920F931F93CF9356
:10125000DF931F92CDB7DEB78C01F12CF801EF0DB3
:10126000F11D8081882341F0F61631F069830E94D8
:101270000807F3946981F2CF0F90DF91CF911F910E
:101280000F91FF900895EF92FF920F931F93CF93CA
:10129000DF9300D0CDB7DEB78B0179014A83898314
:1012A0000E94BF08898180680E94630664E1C801CA
:1012B0000E9424094A81842F806C0E94630664E1A5
:1012C000C7010F900F90DF91CF911F910F91FF9069
:1012D000EF900C9424090F931F93CF93DF9300D0CA
:1012E000CDB7DEB78A016A8389830E94BF088981EE
:1012F0006A81811103C0862F806C02C0862F8068AE
:101300000E94630664E1C8010F900F90DF91CF91B6
:101310001F910F910C942409CF92DF92EF92FF92CC
:10132000CF93DF9300D0CDB7DEB769017A016A832E
:1013300089830E94BF0889816A81811103C0862F39
:10134000806C02C0862F80680E94630641E0C7015E
:10135000B6010F900F90DF91CF91FF90EF90DF904B
:10136000CF900C94450788E00E94630680E00E94BD
:1013700008072D982C988AE68A95F1F700C0089501
:10138000229A579A569A559A2A985F985E985D982D
:101390000895882311F02A9A01C02A98662311F033
:1013A0005F9A01C05F98442311F05E9A01C05E9875
:1013B000222311F05D9A08955D98089580FF02C080
:1013C0002A9A01C02A9881FF02C05F9A01C05F98E3
:1013D00082FF02C05E9A01C05E9883FF02C05D9AE0
:1013E00008955D98089520E040E060E081E00E946B
:1013F000C9092FEF80E792E0215080409040E1F74B
:1014000000C0000020E040E061E080E00E94C909E7
:101410002FEF80E792E0215080409040E1F700C03C
:10142000000020E041E060E080E00E94C9092FEF69
:1014300080E792E0215080409040E1F700C000003A
:1014400021E040E060E080E00E94C9092FEF80E7E2
:1014500092E0215080409040E1F700C0000020E081
:1014600040E060E080E00C94C909EF92FF920F9396
:101470001F93CF93DF93D82F162FF42EE22EC0E0C8
:10148000C01701F12E2D4F2D612F8D2F0E94C909FC
:101490002FEF81EE94E0215080409040E1F700C0B2
:1014A000000020E040E060E080E00E94C9092FEFEA
:1014B00081EE94E0215080409040E1F700C00000B0
:1014C000CF5FDECFDF91CF911F910F91FF90EF9013
:1014D00008951F920F920FB60F9211248F9380914F
:1014E000C6008F910F900FBE0F901F90189583E349
:1014F00090E09093C5008093C40088E98093C10078
:1015000086E08093C200789408957894E1ECF0E04E
:101510008081806880830895F894E1ECF0E0808118
:101520008F778083089520E030E09091C00095FD92
:1015300008C02F5F3F4F213197E23907B1F780E0B4
:1015400008958093C60081E0089580E090E02091A6
:10155000C00027FD07C00196813127E29207B9F745
:1015600083E008958091C60008950F931F93CF9351
:10157000DF931F92CDB7DEB78C01F80181918F0107
:10158000882329F069830E94930A6981F6CF662334
:1015900059F08DE00E94930A8AE00F90DF91CF917D
:1015A0001F910F910C94930A0F90DF91CF911F918F
:1015B0000F9108950F931F93CF93DF93EC018C014C
:1015C000095D1F4F8881833031F41882DF91CF91FC
:1015D0001F910F910895C017D107B9F30E94A50A72
:1015E0008993F0CF8091C6000895609300017093B5
:1015F00001018093020190930301089583B18695C0
:1016000081700895CF92DF92EF92FF92CF930E9464
:10161000FE0A8111FCCFC8E1C12CD12C7601289A99
:10162000CC0CDD1CEE1CFF1C0E94FE0A882329F056
:101630008FEFC81AD80AE80AF80A2898C15079F733
:10164000289A2898289A2898289A2898C701B60195
:10165000CF91FF90EF90DF90CF900895CF92DF92DF
:10166000EF92FF92CF93DF938823D9F0C82FD0E079
:10167000C12CD12C76010E94020BC60ED71EE81E8B
:10168000F91E82E08A95F1F700C0DF5FDC13F3CF2B
:101690002D2F30E040E050E0C701B6010E94CF118D
:1016A00003C020E030E0A901CA01B901DF91CF9168
:1016B000FF90EF90DF90CF9008950F931F930E94BB
:1016C0002E0B009100011091010120910201309137
:1016D0000301601B710B820B930B1F910F910895F7
:1016E000209A2198289883E00C945D0B0E942E0B81
:1016F00060930001709301018093020190930301B4
:101700000895289808952898289A089560910001CE
:10171000709101018091020190910301089585EE7D
:1017200080937C00EAE7F0E08081866C8083EBE7C1
:10173000F0E08081808380E280937E000895809134
:101740007A00806480937A0080917A0086FDFCCFD5
:101750008091790008951F93CF93DF930E949F0B90
:10176000182F0E949F0BC82FD0E0C10FD11D0E94DF
:101770009F0B90E08C0F911D9BEA899F812D112476
:101780008695DF91CF911F91089510927A00089568
:101790000E948F0B0E94AB0B10927A000895A3E178
:1017A000B0E0E5EDFBE00C94F9116C014B012A016E
:1017B000FC0117821682838181FF43C3AE014F5F14
:1017C0005F4F3A01F6019381F40193FD859193FFF8
:1017D00081914F01882309F430C3853239F493FD98
:1017E000859193FF81914F01853239F4B60190E0E4
:1017F0000E94D41452012501E5CF10E0F12C20E025
:101800002032A0F48B3269F030F4803259F0833208
:1018100069F420612CC08D3239F0803339F42160B5
:1018200026C02260246023C0286021C027FD27C075
:1018300030ED380F3A3078F426FF06C0FAE01F9FEB
:10184000300D1124132F13C04AE0F49E300D1124E3
:10185000F32E20620CC08E3221F426FDEEC22064ED
:1018600006C08C3611F4206802C0883641F4F401B9
:1018700093FD859193FF81914F018111C1CF9BEB26
:10188000980F933018F42061805E06C09BE9980F92
:10189000933008F071C12F7E26FF16E02F73322E91
:1018A000853619F42064322E08C0863621F4F22FD2
:1018B000F0683F2E02C01111115037FE07C01C33D3
:1018C00050F4EE24E394E10E27E00BC0183038F01A
:1018D00027E017E005C027E04CE3E42E02C0212FEB
:1018E000E12C520144E0A40EB11CF201608171812F
:1018F000828193810E2DA3010E94DB132C010981AB
:1019000000FF02C003FF07C031FC08C032FE09C05F
:1019100030E2232E07C02DE2222E04C09BE2292EA6
:1019200001C0212C802F8C7019F0211068C2A8C230
:1019300037FE0FC0E40C04FF04C08A81813309F430
:10194000EA941E1474F5F8E0FE1578F588E0E82EA8
:101950002CC036FC2AC0812F90E0841595059CF0A0
:101960002CEF42162FEF520674F0432D4068342EB0
:101970000AC0E2E0F0E0EC0FFD1FE10FF11D8081F5
:10198000803319F411501111F4CF37FE0EC0EE243C
:10199000E394E10E812F90E0481659062CF41419B7
:1019A00004C0EE24E39401C010E037FE06C0141416
:1019B000150434F4C201019605C085E090E002C030
:1019C00081E090E021100196112331F0212F30E0C9
:1019D0002F5F3F4F820F931F2F2D30E08217930709
:1019E00014F4F81A01C0F12C832D897049F4FF20FA
:1019F00039F0B60180E290E00E94D414FA94F7CF57
:101A0000222029F0B601822D90E00E94D41433FCEC
:101A100009C0FF2039F0B60180E390E00E94D414A1
:101A2000FA94F7CF37FE5AC0942D852D57FE02C089
:101A300090E080E0292E382E20E030E0A2014E19FF
:101A400051095D874C87A201421953095F874E8770
:101A5000612F70E044275527461B570B598B488B45
:101A60005FEF2516350649F4B6018EE290E02A8B29
:101A70003B8B0E94D4143B892A89421453046CF096
:101A80004C855D854215530544F4EE85FF85E20FD4
:101A9000F31FE60DF71D818101C080E351E0251A97
:101AA00031082F5F3F4F48895989241635064CF07D
:101AB000B60190E02A8B3B8B0E94D4142A893B8983
:101AC000CFCF2414350439F49A81963318F4953322
:101AD00011F404FF81E3B60190E04BC08A818133A9
:101AE00009F00F7EB60190E00E94D414111105C0D8
:101AF00034FC18C085E690E017C0B6018EE290E095
:101B00000E94D41482E0EE24E394E80EF301E80F7F
:101B1000F11D8081B60190E00E94D41411508E2DE9
:101B200091F7E6CF85E490E0B6010E94D41457FC0B
:101B300005C04114510439F404FF05C05194419487
:101B400051088DE201C08BE2B60190E00E94D414EE
:101B500080E39AE0491651042CF08F5F5AE0451A51
:101B60005108F7CFB60190E00E94D414B601C2012B
:101B7000C0960E94D41457C1833631F0833779F070
:101B8000833509F058C021C05201E2E0AE0EB11C0D
:101B9000F2018081898301E010E0230114C0520129
:101BA000F2E0AF0EB11CF2014080518026FF03C06D
:101BB000612F70E002C06FEF7FEFC2012A8B0E949D
:101BC000C9148C012A892F7715C05201F2E0AF0E9B
:101BD000B11CF2014080518026FF03C0612F70E0EC
:101BE00002C06FEF7FEFC2012A8B0E94B3148C01F9
:101BF0002A892068322E23FD1AC08F2D90E0081705
:101C00001907A8F4B60180E290E00E94D414FA9477
:101C1000F4CFF20137FC859137FE81912F01B60197
:101C200090E00E94D414F110FA94015011090115AA
:101C3000110579F7F8C0843611F0893659F552014B
:101C400027FF09C0F4E0AF0EB11CF2016081718181
:101C5000828193810AC0F2E0AF0EB11CF201608173
:101C60007181072E000C880B990B2F76322E97FF6F
:101C700009C090958095709561957F4F8F4F9F4FCC
:101C80002068322E2AE030E0A3010E943C15E82EA5
:101C9000E6183FC0022F853721F40F7E2AE030E09E
:101CA0001DC0097F8F3691F018F4883559F0C5C0F2
:101CB000803719F0883711F0C0C0006104FF09C0F7
:101CC000046007C024FF08C0066006C028E030E0BA
:101CD00005C020E130E002C020E132E0520107FF00
:101CE00009C0F4E0AF0EB11CF20160817181828104
:101CF000938108C0F2E0AF0EB11CF20160817181E6
:101D000080E090E0A3010E943C15E82EE6180F77D2
:101D1000302E36FE0BC0332D3E7FE11650F434FEDC
:101D20000AC032FC08C0332D3E7E05C00E2D332D77
:101D300003C00E2D01C0012F34FF0CC0FE01EE0DBB
:101D4000F11D8081803311F4397E08C032FF05C057
:101D50000E5F04C0832F867809F00F5F33FD13C038
:101D600030FF06C01E2D0F1518F41F0D101B0F2D70
:101D70000F1568F4B60180E290E03B8B0E94D4140A
:101D80000F5F3B89F5CF0F1510F4F01A01C0F12C4D
:101D900034FF12C0B60180E390E03B8B0E94D41464
:101DA0003B8932FF17C031FD03C088E790E002C0D5
:101DB00088E590E0B6010CC0832F867859F031FF9A
:101DC00002C08BE201C080E237FD8DE2B60190E0F7
:101DD0000E94D414E11638F4B60180E390E00E942A
:101DE000D4141150F7CFEA94F301EE0DF11D808168
:101DF000B60190E00E94D414E110F5CF14C0F4E0D5
:101E0000FF1558F584E0F81A33FE1EC0211026C0D5
:101E100003FF2AC008E610E0F32DF0713F2EF80111
:101E20008491811124C0FF2009F4E5CCB60180E241
:101E300090E00E94D414FA94F6CFF601868197813F
:101E400026C08FEF9FEF23C0B60180E290E00E9492
:101E5000D414FA94F110F8CFD9CFF12CB601822D19
:101E600090E00E94D414D4CF0CE610E0D5CF31100E
:101E70008052B60190E00E94D4140F5F1F4FCFCF65
:101E800023E02F1510F483E0BECFF12CC1CF639671
:101E9000E2E10C941512CF93DF931F92CDB7DEB71A
:101EA0003C9A449A0E948B030E94D20349E551E078
:101EB00061E080E00E946B098CE892E00E94E601FC
:101EC00063E00E949E0341E751E061E080E00E94F0
:101ED0006B090AE020E040E060E081E00E94350A02
:101EE0000E947A0280938C02823009F04EC04DE746
:101EF00051E061E080E00E946B092FEF84E39CE0F9
:101F0000215080409040E1F700C000000E94B202E2
:101F1000882329F181E08983CE0101960E9408027D
:101F2000811107C021E041E061E081E00E94C90920
:101F30002CC020E041E061E080E00E94C90949E84E
:101F400051E061E080E00E946B09EFEFF1E12AE7E8
:101F5000E150F0402040E1F700C00000FFCF21E059
:101F600040E060E081E00E94C90949E851E061E099
:101F700080E00E946B098FEF91E1EAE78150904089
:101F8000E040E1F700C00000FFCF4FE851E061E022
:101F900080E00E946B0968E872E080E00E94E8003F
:101FA00065E00E949E038091880290918902A09131
:101FB0008A02B0918B028093800290938102A09359
:101FC0008202B09383024FE851E061E080E00E941A
:101FD0006B0964E872E081E00E94E80069E00E9419
:101FE0009E038091840290918502A0918602B09117
:101FF000870280937C0290937D02A0937E02B0932F
:102000007F026091800270918102809182029091A2
:1020100083020E94F50A4CE951E061E080E00E94F1
:102020006B096AE081E00E943D0760918C0270E0DC
:1020300080E090E041E00E944507FFEF21E18AE760
:10204000F15020408040E1F700C000006FE081E0E7
:102050000E943D076091800270918102809182020E
:102060009091830241E00E9445076FE080E00E946A
:102070003D0760917C0270917D0280917E0290917B
:102080007F0241E00E9445079FEFE1E1FAE79150AE
:10209000E040F040E1F700C0000020E040E060E0F8
:1020A00080E00E94C9090E94BF0881EAC82E81E031
:1020B000D82E98E2F92E0EE412E026E2822E22E0DB
:1020C000922E36ECA32E31E0B32E83E00E945D0BFE
:1020D0000E94E2122B013C0180917C0290917D02D2
:1020E000A0917E02B0917F02209180023091810206
:1020F0004091820250918302BC01CD01621B730B9F
:10210000840B950B0E94E2129B01AC01C301B2014A
:102110000E943F129F938F937F936F93DF92CF9292
:102120001F92FF921F930F930E940C154EE452E0F2
:1021300060E080E00E946B092FEF89E698E1215072
:1021400080409040E1F700C0000046EA51E061E0C5
:1021500080E00E946B09EFEFF9E628E1E150F040E2
:102160002040E1F700C00000F4012F2D11922A95C4
:10217000E9F761EB71E086E292E00E94BE146EE442
:1021800072E086E292E00E94BE144EE452E061E00A
:1021900080E00E946B098FEF99E6E8E18150904062
:1021A000E040E1F700C0000064EB71E086E292E0FD
:1021B0000E94BE14F8012F2D11922A95E9F749EBE0
:1021C00051E061E080E00E946B098FEF99E6E8E161
:1021D00081509040E040E1F700C000000E94C80B31
:1021E000682F70E080E090E00E94E21220E030E092
:1021F00048E452E40E943F129F938F937F936F9322
:10220000BF92AF921F92FF921F930F930E940C15E3
:102210002EE432E044E06BEC71E080E00E94430980
:10222000FFEF29E688E1F15020408040E1F700C04F
:1022300000006EE472E086E292E00E94BE1426E2A4
:1022400032E040E064ED71E080E00E9443099FEFDE
:10225000E9E6F8E19150E040F040E1F700C000000D
:102260002FEF89E698E1215080409040E1F700C0CF
:102270000000EFEFF9E628E1E150F0402040E1F7FF
:1022800000C000004EED51E061E080E00E946B096B
:102290008FEF99E6E8E181509040E040E1F700C01F
:1022A00000000E94B309FFEF20E782E0F1502040D8
:1022B0008040E1F700C000000FB6F894DEBF0FBE0B
:1022C000CDBF0E946803809176028111FACF0E94EF
:1022D0005E044BEE51E061E080E00E946B09FFEF8D
:1022E00029E688E1F15020408040E1F700C000007D
:1022F000ECCE991B79E004C0991F961708F0961B45
:10230000881F7A95C9F780950895AA1BBB1B51E1D8
:1023100007C0AA1FBB1FA617B70710F0A61BB70B55
:10232000881F991F5A95A9F780959095BC01CD01FA
:10233000089597FB072E16F4009407D077FD09D077
:102340000E94851107FC05D03EF4909581959F4F22
:102350000895709561957F4F0895A1E21A2EAA1BEA
:10236000BB1BFD010DC0AA1FBB1FEE1FFF1FA21745
:10237000B307E407F50720F0A21BB30BE40BF50B42
:10238000661F771F881F991F1A9469F760957095CB
:10239000809590959B01AC01BD01CF010895052E5C
:1023A00097FB1EF400940E94E61157FD07D00E948F
:1023B000AD1107FC03D04EF40C94E61150954095F6
:1023C000309521953F4F4F4F5F4F089590958095E1
:1023D000709561957F4F8F4F9F4F08950E943012E7
:1023E000A59F900DB49F900DA49F800D911D112469
:1023F00008952F923F924F925F926F927F928F92A9
:102400009F92AF92BF92CF92DF92EF92FF920F9383
:102410001F93CF93DF93CDB7DEB7CA1BDB0B0FB68D
:10242000F894DEBF0FBECDBF09942A88398848884A
:102430005F846E847D848C849B84AA84B984C884E0
:10244000DF80EE80FD800C811B81AA81B981CE0FD7
:10245000D11D0FB6F894DEBF0FBECDBFED010895BC
:10246000A29FB001B39FC001A39F700D811D1124D5
:10247000911DB29F700D811D1124911D08950E9420
:1024800053120C9434130E942D1358F00E942613FB
:1024900040F029F45F3F29F00C941D1351110C9466
:1024A00068130C9423130E94451368F39923B1F326
:1024B000552391F3951B550BBB27AA27621773076A
:1024C000840738F09F5F5F4F220F331F441FAA1FFE
:1024D000A9F335D00E2E3AF0E0E832D091505040BA
:1024E000E695001CCAF72BD0FE2F29D0660F771F68
:1024F000881FBB1F261737074807AB07B0E809F04E
:10250000BB0B802DBF01FF2793585F4F3AF09E3FD2
:10251000510578F00C941D130C9468135F3FE4F39D
:10252000983ED4F3869577956795B795F7959F5F15
:10253000C9F7880F911D9695879597F90895E1E061
:10254000660F771F881FBB1F621773078407BA07C0
:1025500020F0621B730B840BBA0BEE1F88F7E0951B
:1025600008950E944D1388F09F5798F0B92F99272E
:10257000B751B0F0E1F0660F771F881F991F1AF06E
:10258000BA95C9F714C0B13091F00E946713B1E059
:1025900008950C946713672F782F8827B85F39F058
:1025A000B93FCCF3869577956795B395D9F73EF407
:1025B00090958095709561957F4F8F4F9F4F0895AF
:1025C000E89409C097FB3EF49095809570956195CD
:1025D0007F4F8F4F9F4F9923A9F0F92F96E9BB2783
:1025E0009395F695879577956795B795F111F8CFFF
:1025F000FAF4BB0F11F460FF1BC06F5F7F4F8F4F6A
:102600009F4F16C0882311F096E911C0772321F05F
:102610009EE8872F762F05C0662371F096E8862FF7
:1026200070E060E02AF09A95660F771F881FDAF74E
:10263000880F9695879597F9089597F99F6780E891
:1026400070E060E008959FEF80EC089500240A9404
:102650001616170618060906089500240A9412167D
:102660001306140605060895092E0394000C11F4B0
:10267000882352F0BB0F40F4BF2B11F460FF04C05D
:102680006F5F7F4F8F4F9F4F089557FD9058440FB6
:10269000551F59F05F3F71F04795880F97FB991FC1
:1026A00061F09F3F79F0879508951216130614067E
:1026B000551FF2CF4695F1DF08C01616170618060B
:1026C000991FF1CF86957105610508940895E894E6
:1026D000BB2766277727CB0197F908950E948113BE
:1026E0000C9434130E94261338F00E942D1320F00E
:1026F000952311F00C941D130C94231311240C94A6
:1027000068130E94451370F3959FC1F3950F50E035
:10271000551F629FF001729FBB27F00DB11D639F93
:10272000AA27F00DB11DAA1F649F6627B00DA11D39
:10273000661F829F2227B00DA11D621F739FB00DDF
:10274000A11D621F839FA00D611D221F749F33274F
:10275000A00D611D231F849F600D211D822F762FE8
:102760006A2F11249F5750409AF0F1F088234AF0C5
:10277000EE0FFF1FBB1F661F771F881F9150504031
:10278000A9F79E3F510580F00C941D130C9468131B
:102790005F3FE4F3983ED4F3869577956795B795B8
:1027A000F795E7959F5FC1F7FE2B880F911D9695D2
:1027B000879597F90895283008F027E03327DA0144
:1027C000990F311D87FD916000966105710539F4FF
:1027D00032602E5F3D9330E32A95E1F708959F3FE5
:1027E00030F080387105610509F03C5F3C5F3D9336
:1027F000913008F08068911DDF93CF931F930F9362
:10280000FF92EF92192F987F9695E92F96959695BE
:10281000E90FFF27E653FF4F99273327EE24FF24C4
:10282000A701E70105900894079428F4360FE71EE6
:10283000F81E491F511D660F771F881F991F0694A8
:10284000A1F70590079428F4E70EF81E491F561FBC
:10285000C11D770F881F991F661F0694A1F7059069
:10286000079428F4F80E491F561FC71FD11D880F63
:10287000991F661F771F0694A1F70590079420F40F
:10288000490F561FC71FD81F990F661F771F881F34
:102890000694A9F784911095177041F0D695C795C5
:1028A00057954795F794E7941A95C1F7E0E7F0E05C
:1028B00068941590159135916591959105907FE2F9
:1028C0007395E118F10A430B560BC90BD009C0F7F9
:1028D000E10CF11E431F561FC91FD01D7EF470333B
:1028E00011F48A95E6CFE894015030F0080F0AF40D
:1028F0000027021708F4202F2395022F7A3328F09F
:1029000079E37D932A95E9F710C07D932A9589F69E
:10291000069497956795379517951794E118F10ADE
:10292000430B560BC90BD00998F023957E917395F4
:102930007A3308F070E37C932013B8F77E917061CE
:102940007D9330F0839571E37D9370E32A95E1F7F1
:102950001124EF90FF900F911F91CF91DF91992754
:1029600087FD90950895FC0105906150704001101D
:10297000D8F7809590958E0F9F1F0895FB01DC017D
:102980000D900020E9F7119701900D920020E1F7DA
:102990000895FC016150704001900110D8F78095B6
:1029A00090958E0F9F1F08950F931F93CF93DF93E2
:1029B000FB01238121FD03C08FEF9FEF28C022FF81
:1029C00016C046815781248135814217530744F44C
:1029D000A081B1819D012F5F3F4F318320838C9374
:1029E000268137812F5F3F4F3783268310C0EB014D
:1029F000092F182F0084F185E02D0995892BE1F628
:102A00008E819F8101969F838E83812F902FDF91EE
:102A1000CF911F910F910895AEE0B0E0E2E1F5E1B2
:102A20000C9407120D891E898F89988D26E02C83BE
:102A30001A83098397FF02C080E090E801979E8384
:102A40008D83AE01455E5F4F698D7A8DCE01019613
:102A50000E94CF0B4D815E8157FD0AC02F813885C2
:102A6000421753070CF49A01F801E20FF31F10828A
:102A70002E96E4E00C942312FA01AA27283051F193
:102A8000203181F1E8946F936E7F6E5F7F4F8F4F9F
:102A90009F4FAF4FB1E03ED0B4E03CD0670F781FFE
:102AA000891F9A1FA11D680F791F8A1F911DA11DE3
:102AB0006A0F711D811D911DA11D20D009F468941C
:102AC0003F912AE0269F11243019305D3193DEF6C4
:102AD000CF010895462F4770405D4193B3E00FD07A
:102AE000C9F7F6CF462F4F70405D4A3318F0495D65
:102AF00031FD4052419302D0A9F7EACFB4E0A69548
:102B00009795879577956795BA95C9F70097610569
:102B1000710508959B01AC010A2E069457954795BF
:102B200037952795BA95C9F7620F731F841F951FB4
:102B3000A01D0895F999FECF92BD81BDF89A9927FD
:102B400080B50895A6E1B0E044E050E00C94C815CB
:102B5000262FF999FECF92BD81BDF89A019700B456
:102B6000021639F01FBA20BD0FB6F894FA9AF99AF6
:102B70000FBE08950396272F0E94A9150E94A8153D
:102B8000252F0E94A915242F0C94A915DC01CB0137
:102B9000FC01F999FECF06C0F2BDE1BDF89A31966D
:102BA00000B40D9241505040B8F70895F894FFCF0B
:102BB000C09121004572726F72004C454420494E0D
:102BC000495400425554544F4E535F494E495400A6
:102BD000434845434B204C45440047534D20494E04
:102BE00049540047534D20494E4954204F4B0057FC
:102BF000454947485420494E49540047534D2049C0
:102C00004E4954204641494C00474554204D4F44BD
:102C100045004E4F5420574F524B204D4F444521B5
:102C200000434C4252204D4F4445203F00504153F9
:102C300053434F4445204F4B004552524F5200479B
:102C40004554494E47205A574748540052203D208A
:102C500000252E336600454E544552204C4F4F50B0
:102C600000573A003B20423A00454E54455220540A
:102C70004F2041444300252E326600564F4C5441AC
:102C800047453A0053454E4420534D533A00454E74
:102C900054455220544F2050534D0045584954201C
:102CA00046524F4D2050534D0041540041542B4348
:102CB0005245473F0041542B434D47463D3100416B
:102CC000542B434D47533D222B373932353531395B
:062CD00035323232220011
:00000001FF
