:100000000C9434000C9451000C9451000C94510049
:100010000C9451000C9451000C9451000C9451001C
:100020000C9451000C94BD020C9451000C9451009E
:100030000C9451000C9451000C9451000C945100FC
:100040000C9451000C9451000C94BC070C9451007A
:100050000C9451000C9451000C9451000C945100DC
:100060000C9451000C94510011241FBECFEFD8E026
:10007000DEBFCDBF11E0A0E0B1E0E8E7F8E102C0EB
:1000800005900D92A83BB107D9F721E0A8EBB1E0AC
:1000900001C01D92AA3DB207E1F70E94E2080C944C
:1000A0003A0C0C940000549853985C985B9808950F
:1000B000813039F0823049F489B183FB882780F997
:1000C000089589B182958170089580E00895CF9256
:1000D000DF92EF92FF92CF93DF93EB01882379F0C9
:1000E000813051F584E090E00E94060C6B017C01A8
:1000F000688379838A839B8380E090E00CC08CE0E6
:1001000090E00E94060C6B017C01688379838A83EE
:100110009B8388E090E00E94060CC616D706E8068E
:10012000F90611F082E009C081E0CF20CE20CD2079
:10013000C09419F080E001C084E0DF91CF91FF907E
:10014000EF90DF90CF900895CF92DF92EF92FF92E1
:10015000CF93DF93EB018823D9F08130E1F548811B
:1001600059816A817B8184E090E00E941E0C488165
:1001700059816A817B8180E090E00E941E0C84E0BE
:1001800090E00E94060C6B017C0180E090E018C0BA
:10019000488159816A817B818CE090E00E941E0C2D
:1001A000488159816A817B8188E090E00E941E0C21
:1001B0008CE090E00E94060C6B017C0188E090E0EE
:1001C0000E94060CC616D706E806F90611F480E070
:1001D00003C085E001C084E0DF91CF91FF90EF90F4
:1001E000DF90CF900895DF92EF92FF920F931F93CD
:1001F000CF93DF93623049F0633061F0613011F5E5
:10020000C0E1D0E001E110E009C0C4E1D0E005E1C7
:1002100010E004C0C2E1D0E003E110E07C01C801BD
:100220000E94FE0BD82EF7018083CE010E94FE0BA8
:10023000D81651F06FE7C8010E940C0C6FE7CE0191
:100240000E940C0C82E001C080E0DF91CF911F91F1
:100250000F91FF90EF90DF900895EF92FF920F9330
:100260001F93CF93DF93623049F0633061F06130C8
:1002700011F5C0E1D0E001E110E009C0C4E1D0E037
:1002800005E110E004C0C2E1D0E003E110E07C0130
:10029000FC016081C8010E940C0CF7016081CE0155
:1002A0000E940C0CC8010E94FE0B182FCE010E9468
:1002B000FE0B181711F085E001C080E0DF91CF91AF
:1002C0001F910F91FF90EF9008950F931F93CF937D
:1002D0008C0185E190E00E94FE0BC82FF80180831D
:1002E00084E190E00E94FE0BC81761F06FE785E1A2
:1002F00090E00E940C0C6FE784E190E00E940C0CEF
:1003000082E001C080E0CF911F910F910895CF93BB
:10031000DF93EC01688185E190E00E940C0C68811C
:1003200084E190E00E940C0C85E190E00E94FE0BBD
:10033000C82F84E190E00E94FE0BC81711F085E001
:1003400001C080E0DF91CF9108950895CF93DF93AE
:10035000D82F0E945800882311F080E00FC0C5E616
:100360008D2F0E945800811109C08FE59AEE0197E8
:10037000F1F700C00000C15099F7EFCFDF91CF91A6
:10038000089520E040E060E080E00E941C0780913A
:10039000D901823019F120E040E060E081E00E9464
:1003A0001C0781E00E94A6018823C1F020E040E004
:1003B00061E080E00E941C0782E00E94A601882381
:1003C00069F020E040E060E081E00E941C0781E0ED
:1003D0000E94A60181110BC083E0089520E040E057
:1003E00060E080E00E941C078091D901089582E0BE
:1003F00008950F931F93CF93DF9300D000D0CDB714
:10040000DEB781E00E9458008823B1F000E09DC073
:1004100081E00E945800811111C0812F0E94310794
:100420002FEF84E39CE0215080409040E1F700C032
:100430000000110F193060F311E0EACF83E00E9451
:10044000810869837A838B839C83BE016F5F7F4FB2
:1004500080E00E94A4008111D9CF81E00E94580061
:100460008823F9F021E041E061E081E00E941C076F
:100470002FEF81EE94E0215080409040E1F700C0E2
:10048000000020E040E060E080E00E941C072FEFC9
:1004900081EE94E0215080409040E1F700C00000E0
:1004A000DCCF82E00E9458008111B0CF82E00E9430
:1004B0005800082F811116C0812F0E9431072FEF9D
:1004C00084E39CE0215080409040E1F700C00000B0
:1004D000812F90E095958795009711F0182FE6CF22
:1004E00018E0E4CF83E00E94810869837A838B83DC
:1004F0009C83BE016F5F7F4F81E00E94A400811149
:1005000085CF82E00E9458008823F9F021E041E085
:1005100061E081E00E941C072FEF81EE94E0215002
:1005200080409040E1F700C0000020E040E060E043
:1005300080E00E941C072FEF81EE94E02150804064
:100540009040E1F700C00000DCCF802F0F900F90AB
:100550000F900F90DF91CF911F910F9108951092FE
:10056000B0001092B20081E08093700087E0809329
:10057000B100789483E083BF08951F920F920FB665
:100580000F9211242F933F934F935F936F937F9319
:100590008F939F93AF93BF93EF93FF938091CD0180
:1005A0009091CE01A091CF01B091D00184369105F8
:1005B000A105B10570F40196A11DB11D8093CD0177
:1005C0009093CE01A093CF01B093D0010E94AF02CF
:1005D00009C01092CD011092CE011092CF0110925D
:1005E000D001F894FF91EF91BF91AF919F918F91BE
:1005F0007F916F915F914F913F912F910F900FBE1F
:100600000F901F9018950895F89484B7877F84BF42
:10061000E0E6F0E080818861808310820895F8949C
:100620008FE08093600008950E940F03FFCF0F9327
:10063000CF930E9463040E94660661E080E00E94FE
:10064000E40468E084E091E00E94C5060E9413077C
:100650000E94660661E080E00E94E4046CE08DE0A8
:1006600091E00E94C5060E9453000E94660661E068
:1006700080E00E94E40469E08AE191E00E94C506FE
:100680000E9446070E941C048091BD018F3441F1F5
:100690008091BE018B3421F168EB71E084E291E03E
:1006A0000E941E040E9466062FEF89E698E1215001
:1006B00080409040E1F700C0000060E081E00E94CF
:1006C000E40464E188EB91E00E94C5062FEF89E61F
:1006D00098E1215080409040E1F700C00000D4CF65
:1006E0000E94660661E080E00E94E4046CE087E21C
:1006F00091E00E94C5060E94C3080E94660661E060
:1007000080E00E94E4046BE083E391E00E94C50670
:1007100089ED91E00E946501C82F8823A9F065E06A
:1007200081E00E94E40464E18FE391E00E94C50649
:1007300065E080E00E94E4046C2F70E080E090E0CF
:1007400041E00E94EC04FFCF0AE020E040E060E0DE
:1007500081E00E9488078091D9018130F1F00E94E8
:10076000660661E080E00E94E4046BE085E491E0CD
:100770000E94C5062FEF84E39CE02150804090400A
:10078000E1F700C000000FE020E040E061E080E021
:100790000E9488070E940F03FFCF80E0CF910F9146
:1007A0000895CF92DF92EF92FF920F931F93CF9312
:1007B000DF938823C1F1D42F8B01C0E0C82ED12C48
:1007C000E12CF12C81E00E94580081112CC08D2F6A
:1007D0000E9431072FEF84E39CE02150804090403D
:1007E000E1F700C00000CF5FCB3060F30E946606E7
:1007F00065E081E00E94E40464E184E591E00E9408
:10080000C5066FE081E00E94E40440E0C701B60144
:100810000E94EC0465E080E00E94E40464E1C80109
:100820000E94C506CFCFDF91CF911F910F91FF900E
:10083000EF90DF90CF9008950C94CA070F931F9309
:10084000CF93DF9300D0CDB7DEB78B0189839A8336
:100850000E94DF0761E089819A810E940808C8012F
:100860000E942D080F900F90DF91CF911F910F9153
:100870000C94D807EFE1F3E03197F1F700C00000E6
:100880002C982D9898B1907F98B998B1282F2295DF
:100890002F70922B98B92D9A2D98EFECF7E03197A5
:1008A000F1F700C0000098B1907F98B998B18F70AF
:1008B000892B88B92D9A2D988FEC97E00197F1F745
:1008C00000C0000008958FE493EC0197F1F700C099
:1008D000000087B18F6087B9259A249A2C982D98AB
:1008E00088B1807F88B988B1836088B92D9A2D98A6
:1008F0008FEC97E00197F1F700C0000088B1807F8E
:1009000088B988B1836088B92D9A2D988FEC97E0CB
:100910000197F1F700C0000098E79A95F1F788B1C8
:10092000836088B92D9A2D988FEC97E00197F1F7A5
:1009300000C0000098E79A95F1F788B1807F88B9E8
:10094000419A2D9A2D988FEC97E00197F1F700C00E
:10095000000098E79A95F1F788E20E943A0488E04F
:100960000E943A048CE00E943A0481E00E943A041A
:1009700086E00C943A04EFE1F3E03197F1F700C020
:1009800000002D9898B1907F98B998B1282F2295A2
:100990002F70922B98B92C9A2D9A2D98EFECF7E0A6
:1009A0003197F1F700C0000098B1907F98B998B1E5
:1009B0008F70892B88B92D9A2D988FEC97E001972D
:1009C000F1F700C000000895882311F080EC01C009
:1009D00080E8862B0C943A048F929F92AF92BF923C
:1009E000CF92DF92EF92FF920F931F93CF93DF93FB
:1009F00000D000D0CDB7DEB76B017C01042F97FF8C
:100A00000AC0F094E094D094C094C11CD11CE11CA5
:100A1000F11C11E001C010E084E00E943A04C1140E
:100A2000D104E104F10421F480E30E94BB0426C058
:100A3000C701B6012AE0822E912CA12CB12CA50170
:100A400094010E94930A80E3860F29833A834B83A3
:100A50005C830E94BB042981622F3A81732F4B81F2
:100A6000842F5C81952F611571058105910539F7FA
:100A70008AE0C816D104E104F10418F480E30E946E
:100A8000BB04112319F08DE20E94BB04002361F026
:100A900080E20E94BB0480E20E94BB0480E20E94CC
:100AA000BB0480E20E94BB0486E00F900F900F9081
:100AB0000F90DF91CF911F910F91FF90EF90DF90FA
:100AC000CF90BF90AF909F908F900C943A04AF92CC
:100AD000BF92CF92DF92EF92FF920F931F93CF932B
:100AE000DF931F92CDB7DEB78C01A62EF42E84E0E3
:100AF0000E943A040115110549F480E30E94BB04E9
:100B0000BB24B3940A2DAA0C110B15C0B12C8AE09A
:100B1000C82ED12CC801B6010E947F0AE62E805D46
:100B200079830E94BB040E2D7981172FB394011590
:100B3000110581F7E7CF98012B193109B7FC3395DF
:100B4000121613062CF4B3948F2D0E94BB04F3CF1E
:100B500086E00F90DF91CF911F910F91FF90EF9062
:100B6000DF90CF90BF90AF900C943A048F929F92F9
:100B7000AF92BF92CF92DF92EF92FF920F931F93AB
:100B8000CF93DF9300D0CDB7DEB7811520E1920778
:100B9000A0F066277727681B790B80E090E00E9421
:100BA000030B20E030E048EC50E40E94690B0E9407
:100BB000D40A4B01CC24C3940FC0BC0180E090E068
:100BC0000E94030B20E030E048EC50E40E94690BE7
:100BD0000E94D40A4B01C12CC4010A978A359105A1
:100BE00030F0F12C8AE08816910428F002C0FF242E
:100BF000F394D12C02C0DD24D39484E00E943A0403
:100C00008114910431F08401E12C8AE0A82EB12CEA
:100C100009C080E30E94BB0422C001151105F9F050
:100C2000E11015C0C801B5010E947F0A972F062F59
:100C3000172FE39422E0E212F0CF8EE269837A83E9
:100C40000E94BB0469819A810115110541F0862F2C
:100C5000B5010E947F0A805D0E94BB04E3CFFF20A4
:100C600019F080E30E94BB04DD2049F080E30E947C
:100C7000BB048EE20E94BB0480E30E94BB04CC2034
:100C800011F08DE201C08BE20E94BB04F1100AC09A
:100C9000D11008C084E6881A910824E8821623E05F
:100CA000920618F480E20E94BB0486E00F900F9039
:100CB000DF91CF911F910F91FF90EF90DF90CF9038
:100CC000BF90AF909F908F900C943A0481E00E9467
:100CD0003A042FEF84E39CE0215080409040E1F7FC
:100CE00000C0000008952D982C9888B1807F88B9A5
:100CF00087B1807F87B95C9A2D9A82E08A95F1F757
:100D000000C086B12D9892E09A95F1F700C02D9A17
:100D100092E09A95F1F700C096B12D9892E09A95DD
:100D2000F1F700C05C9897B19F6097B983FB882763
:100D300080F908950E9473068111FCCF2C982D989C
:100D400088B1807F88B987B1807F87B95C9A8AE053
:100D50008A95F1F700C02C9A2D9A9AE09A95F1F7AE
:100D600000C026B12D9A2D988FEC97E00197F1F7EE
:100D700000C0000096B15C9887B18F6087B922955A
:100D8000207F892F8F70822B0895CF92DF92FF9260
:100D90000F931F93CF93DF931F92CDB7DEB78C01D4
:100DA000F82E6C01F8018081882361F08C2D8F1959
:100DB000861740F4F60181916F0169830E94BB049C
:100DC0006981F0CF0F90DF91CF911F910F91FF902C
:100DD000DF90CF900895EF92FF920F931F93CF93E0
:100DE000DF9300D0CDB7DEB78B0179014A838983C9
:100DF0000E946606898180680E943A0464E1C80105
:100E00000E94C5064A81842F806C0E943A0464E1E6
:100E1000C7010F900F90DF91CF911F910F91FF901D
:100E2000EF900C94C506229A579A569A559A2A988A
:100E30005F985E985D980895882311F02A9A01C002
:100E40002A98662311F05F9A01C05F98442311F03D
:100E50005E9A01C05E98222311F05D9A08955D9814
:100E6000089580FF02C02A9A01C02A9881FF02C01B
:100E70005F9A01C05F9882FF02C05E9A01C05E98CF
:100E800083FF02C05D9A08955D98089520E040E0D8
:100E900060E081E00E941C072FEF89E698E1215075
:100EA00080409040E1F700C0000020E040E061E0B9
:100EB00080E00E941C072FEF89E698E121508040D6
:100EC0009040E1F700C0000020E041E060E080E0F9
:100ED0000E941C072FEF89E698E121508040904046
:100EE000E1F700C0000021E040E060E080E00E9407
:100EF0001C072FEF89E698E1215080409040E1F7F0
:100F000000C0000020E040E060E080E00C941C079E
:100F1000EF92FF920F931F93CF93DF93D82F162F4B
:100F2000F42EE22EC0E0C01701F12E2D4F2D612FBF
:100F30008D2F0E941C072FEF81EE94E021508040FE
:100F40009040E1F700C0000020E040E060E080E079
:100F50000E941C072FEF81EE94E0215080409040CA
:100F6000E1F700C00000CF5FDECFDF91CF911F918E
:100F70000F91FF90EF9008951F920F920FB60F926E
:100F800011248F938091C6008F910F900FBE0F9008
:100F90001F90189583E390E09093C5008093C40060
:100FA00088E98093C10086E08093C2007894089518
:100FB0007894E1ECF0E08081806880830895F89473
:100FC000E1ECF0E080818F778083089520E030E0CD
:100FD0009091C00095FD08C02F5F3F4F213197E2EF
:100FE0003907B1F780E008958093C60081E0089545
:100FF00080E090E02091C00027FD07C0019681317C
:1010000027E29207B9F783E008958091C60008951A
:101010000F931F93CF93DF931F92CDB7DEB78C0151
:10102000F80181918F01882329F069830E94E607E6
:101030006981F6CF662359F08DE00E94E6078AE0C9
:101040000F90DF91CF911F910F910C94E6070F90B5
:10105000DF91CF911F910F9108950F931F93CF931D
:10106000DF93EC018C010D5E1F4F8881833031F4DA
:101070001882DF91CF911F910F910895C017D1076A
:10108000B9F30E94F8078993F0CF8091C6000895C4
:10109000609300017093010180930201909303011A
:1010A000089583B1869581700895CF92DF92EF9273
:1010B000FF92CF930E9451088111FCCFC8E1C12C4F
:1010C000D12C7601289ACC0CDD1CEE1CFF1C0E9452
:1010D0005108882329F08FEFC81AD80AE80AF80ABD
:1010E0002898C15079F7289A2898289A2898289AF9
:1010F0002898C701B601CF91FF90EF90DF90CF9075
:101100000895CF92DF92EF92FF92CF93DF938823DF
:10111000D9F0C82FD0E0C12CD12C76010E945508FF
:10112000C60ED71EE81EF91E82E08A95F1F700C0B0
:10113000DF5FDC13F3CF2D2F30E040E050E0C7013C
:10114000B6010E94B50A03C020E030E0A901CA013F
:10115000B901DF91CF91FF90EF90DF90CF9008958C
:101160000F931F930E9481080091000110910101CB
:101170002091020130910301601B710B820B930BD4
:101180001F910F910895209A2198289883E00C943C
:10119000B0080E9481086093000170930101809360
:1011A0000201909303010895289808952898289A99
:1011B0000895609100017091010180910201909168
:1011C00003010895CF93DF931F92CDB7DEB70E943E
:1011D00004030E9463040E94660661E080E00E94AE
:1011E000E40468E084E091E00E94C5060E941307D1
:1011F0000E94660661E080E00E94E4046CE08DE0FD
:1012000091E00E94C5060E9453000E94660661E0BC
:1012100080E00E94E40469E08AE191E00E94C50652
:101220000E9446070E941C048091BD018F3441F149
:101230008091BE018B3421F10E9466062FEF89E672
:1012400098E1215080409040E1F700C0000068EB39
:1012500071E084E291E00E941E0460E081E00E945F
:10126000E40464E188EB91E00E94C5062FEF89E673
:1012700098E1215080409040E1F700C00000D4CFB9
:101280000E94660661E080E00E94E4046CE087E270
:1012900091E00E94C5060E94C3080E94660661E0B4
:1012A00080E00E94E4046BE083E391E00E94C506C5
:1012B00089ED91E00E94650143E06AE571E00E94DA
:1012C000D1030E94660661E080E00E94E4046BE0C6
:1012D00083E691E00E94C5060AE020E040E060E07D
:1012E00081E00E9488070E94C1018093D901823069
:1012F000D9F50E94660661E080E00E94E4046BE09C
:101300008FE691E00E94C5062FEF84E39CE0215018
:1013100080409040E1F700C000000E94F90188235E
:10132000A1F081E08983CE0101960E94870181119D
:1013300007C021E041E061E081E00E941C0714C089
:1013400020E041E061E080E004C021E040E060E0B6
:1013500081E00E941C072FEF81E19AE72150804035
:101360009040E1F700C000000E94660661E080E066
:101370000E94E4046CE08BE791E00E94C50665EDF5
:1013800071E080E00E94670045E068E871E00E943B
:10139000D1030E94660661E080E00E94E4046CE0F4
:1013A00084E991E00E94C50665ED71E080E00E944D
:1013B000670049E061EA71E00E94D1030E9466067D
:1013C00060E080E00E94E40482E50E94BB046AE0E1
:1013D00081E00E94E4046091D90170E080E090E037
:1013E00041E00E94EC042FEF81E19AE72150804018
:1013F0009040E1F700C000006FE081E00E94E4044B
:101400006091D5017091D6018091D7019091D8015A
:1014100041E00E94EC046091D5017091D601809169
:10142000D7019091D8010E9448086FE080E00E94A7
:10143000E4046091D1017091D2018091D301909127
:10144000D40141E00E94EC042FEF81E19AE72150A2
:1014500080409040E1F700C000002FEF83ED90E363
:10146000215080409040E1F700C0000020E040E0C3
:1014700060E080E00E941C070E946606209A0E949D
:10148000AF020E9417030E94660660E080E00E949F
:10149000E40464E18DEA91E00E94C5066CE081E01D
:1014A0000E94E4040E94D90841E00E94EC042FEF5E
:1014B00081E19AE7215080409040E1F700C00000B0
:1014C0002FEF84E39CE0215080409040E1F700C082
:1014D00000000E9466066CE081E00E94E40483E064
:1014E0000E94B00841E00E94EC042FEF83ED90E3EE
:1014F000215080409040E1F700C00000C0CFAA1BFF
:10150000BB1B51E107C0AA1FBB1FA617B70710F0EE
:10151000A61BB70B881F991F5A95A9F78095909520
:10152000BC01CD010895A1E21A2EAA1BBB1BFD012F
:101530000DC0AA1FBB1FEE1FFF1FA217B307E407B2
:10154000F50720F0A21BB30BE40BF50B661F771F0A
:10155000881F991F1A9469F76095709580959095EA
:101560009B01AC01BD01CF010895052E97FB1EF430
:1015700000940E94CC0A57FD07D00E94930A07FCF2
:1015800003D04EF40C94CC0A50954095309521959B
:101590003F4F4F4F5F4F089590958095709561959F
:1015A0007F4F8F4F9F4F08950E94480B88F09F57A1
:1015B00098F0B92F9927B751B0F0E1F0660F771F77
:1015C000881F991F1AF0BA95C9F714C0B13091F06D
:1015D0000E94620BB1E008950C94620B672F782F84
:1015E0008827B85F39F0B93FCCF386957795679532
:1015F000B395D9F73EF490958095709561957F4F9E
:101600008F4F9F4F0895E89409C097FB3EF4909543
:101610008095709561957F4F8F4F9F4F9923A9F0CB
:10162000F92F96E9BB279395F6958795779567955A
:10163000B795F111F8CFFAF4BB0F11F460FF1BC09E
:101640006F5F7F4F8F4F9F4F16C0882311F096E931
:1016500011C0772321F09EE8872F762F05C06623DF
:1016600071F096E8862F70E060E02AF09A95660F98
:10167000771F881FDAF7880F9695879597F9089551
:1016800057FD9058440F551F59F05F3F71F0479533
:10169000880F97FB991F61F09F3F79F08795089518
:1016A000121613061406551FF2CF4695F1DF08C037
:1016B000161617061806991FF1CF86957105610554
:1016C00008940895E894BB2766277727CB0197F9FC
:1016D00008950E947C0B0C94ED0B0E94DF0B38F0F8
:1016E0000E94E60B20F0952311F00C94D60B0C947D
:1016F000DC0B11240C94630B0E94400B70F3959F3C
:10170000C1F3950F50E0551F629FF001729FBB27F8
:10171000F00DB11D639FAA27F00DB11DAA1F649F94
:101720006627B00DA11D661F829F2227B00DA11D47
:10173000621F739FB00DA11D621F839FA00D611DCD
:10174000221F749F3327A00D611D231F849F600DEE
:10175000211D822F762F6A2F11249F5750409AF017
:10176000F1F088234AF0EE0FFF1FBB1F661F771FA3
:10177000881F91505040A9F79E3F510580F00C946E
:10178000D60B0C94630B5F3FE4F3983ED4F386953D
:1017900077956795B795F795E7959F5FC1F7FE2B0E
:1017A000880F911D9695879597F9089597F99F67EA
:1017B00080E870E060E008959FEF80EC08950024D9
:1017C0000A941616170618060906089500240A94A6
:1017D00012161306140605060895092E0394000C2C
:1017E00011F4882352F0BB0F40F4BF2B11F460FFBB
:1017F00004C06F5F7F4F8F4F9F4F0895F999FECFC1
:1018000092BD81BDF89A992780B50895A6E1B0E010
:1018100044E050E00C942C0C262FF999FECF92BD99
:1018200081BDF89A019700B4021639F01FBA20BDA5
:101830000FB6F894FA9AF99A0FBE08950396272FD7
:101840000E940D0C0E940C0C252F0E940D0C242FC1
:101850000C940D0CDC01CB01FC01F999FECF06C004
:10186000F2BDE1BDF89A319600B40D92415050405E
:08187000B8F70895F894FFCFCA
:10187800C09121004C454420494E495400425554DA
:10188800544F4E5320494E495400434845434B203A
:101898004C45440041540057454947485420494E57
:1018A800495400474554494E47204D4F444500454B
:1018B80072526567004E4F5420574F524B204D4F80
:1018C800444521004572726F7200474554204D4FC0
:1018D800444500434C4252204D4F4445203F005060
:1018E800415353434F4445204F4B00474554494EBD
:1018F80047205A5747485400474554205A574549A6
:1019080047485400474554494E4720545747485480
:1019180000474554205457454947485400206F66AE
:08192800667365743A200000AB
:00000001FF
