:100000000C9434000C9451000C9451000C94510049
:100010000C9451000C9451000C9451000C9451001C
:100020000C9451000C94A5010C9451000C945100B7
:100030000C9451000C9451000C9451000C945100FC
:100040000C9451000C9451000C9484080C945100B1
:100050000C9451000C9451000C9451000C945100DC
:100060000C9451000C94510011241FBECFEFD8E026
:10007000DEBFCDBF11E0A0E0B1E0E0E8F9E102C0F1
:1000800005900D92A63AB107D9F721E0A6EAB1E0B2
:1000900001C01D92A93CB207E1F70E94AA090C9485
:1000A000BE0C0C940000549853985C985B9808958B
:1000B000813039F0823049F489B183FB882780F997
:1000C000089589B182958170089580E00895CF9256
:1000D000DF92EF92FF92CF93DF93EB01882379F0C9
:1000E000813051F584E090E00E948A0C6B017C0124
:1000F000688379838A839B8380E090E00CC08CE0E6
:1001000090E00E948A0C6B017C01688379838A836A
:100110009B8388E090E00E948A0CC616D706E8060A
:10012000F90611F082E009C081E0CF20CE20CD2079
:10013000C09419F080E001C084E0DF91CF91FF907E
:10014000EF90DF90CF900895CF92DF92EF92FF92E1
:10015000CF93DF93EB018823D9F08130E1F548811B
:1001600059816A817B8184E090E00E94A20C4881E1
:1001700059816A817B8180E090E00E94A20C84E03A
:1001800090E00E948A0C6B017C0180E090E018C036
:10019000488159816A817B818CE090E00E94A20CA9
:1001A000488159816A817B8188E090E00E94A20C9D
:1001B0008CE090E00E948A0C6B017C0188E090E06A
:1001C0000E948A0CC616D706E806F90611F480E0EC
:1001D00003C085E001C084E0DF91CF91FF90EF90F4
:1001E000DF90CF900895DF92EF92FF920F931F93CD
:1001F000CF93DF93623049F0633061F0613011F5E5
:10020000C0E1D0E001E110E009C0C4E1D0E005E1C7
:1002100010E004C0C2E1D0E003E110E07C01C801BD
:100220000E94820CD82EF7018083CE010E94820C9E
:10023000D81651F06FE7C8010E94900C6FE7CE010D
:100240000E94900C82E001C080E0DF91CF911F916D
:100250000F91FF90EF90DF900895EF92FF920F9330
:100260001F93CF93DF93623049F0633061F06130C8
:1002700011F5C0E1D0E001E110E009C0C4E1D0E037
:1002800005E110E004C0C2E1D0E003E110E07C0130
:10029000FC016081C8010E94900CF7016081CE01D1
:1002A0000E94900CC8010E94820C182FCE010E945F
:1002B000820C181711F085E001C080E0DF91CF912A
:1002C0001F910F91FF90EF9008950F931F93CF937D
:1002D0008C0185E190E00E94820CC82FF801808398
:1002E00084E190E00E94820CC81761F06FE785E11D
:1002F00090E00E94900C6FE784E190E00E94900CE7
:1003000082E001C080E0CF911F910F910895CF93BB
:10031000DF93EC01688185E190E00E94900C688198
:1003200084E190E00E94900C85E190E00E94820CB4
:10033000C82F84E190E00E94820CC81711F085E07C
:1003400001C080E0DF91CF9108951F920F920FB608
:100350000F9211248F939F93AF93BF938091BC0111
:100360009091BD01A091BE01B091BF018230910575
:10037000A105B10578F40196A11DB11D8093BC01C2
:100380009093BD01A093BE01B093BF0181E0809323
:10039000BA010AC01092BC011092BD011092BE01B8
:1003A0001092BF011092BA01BF91AF919F918F91AE
:1003B0000F900FBE0F901F9018950895CF93DF9365
:1003C000D82F0E945800882311F080E00FC0C5E6A6
:1003D0008D2F0E945800811109C08FE59AEE019778
:1003E000F1F700C00000C15099F7EFCFDF91CF9136
:1003F000089520E040E060E080E00E94E407809102
:10040000C801823019F120E040E060E081E00E9404
:10041000E40781E00E94DE018823C1F020E040E093
:1004200061E080E00E94E40782E00E94DE01882310
:1004300069F020E040E060E081E00E94E40781E0B4
:100440000E94DE0181110BC083E0089520E040E0AE
:1004500060E080E00E94E4078091C801089582E096
:1004600008950F931F93CF93DF9300D000D0CDB7A3
:10047000DEB781E00E9458008823B1F000E09DC003
:1004800081E00E945800811111C0812F0E94F9075C
:100490002FEF84E39CE0215080409040E1F700C0C2
:1004A0000000110F193060F311E0EACF83E00E94E1
:1004B000490969837A838B839C83BE016F5F7F4F79
:1004C00080E00E94A4008111D9CF81E00E945800F1
:1004D0008823F9F021E041E061E081E00E94E40737
:1004E0002FEF81EE94E0215080409040E1F700C072
:1004F000000020E040E060E080E00E94E4072FEF91
:1005000081EE94E0215080409040E1F700C000006F
:10051000DCCF82E00E9458008111B0CF82E00E94BF
:100520005800082F811116C0812F0E94F9072FEF64
:1005300084E39CE0215080409040E1F700C000003F
:10054000812F90E095958795009711F0182FE6CFB1
:1005500018E0E4CF83E00E94490969837A838B83A2
:100560009C83BE016F5F7F4F81E00E94A4008111D8
:1005700085CF82E00E9458008823F9F021E041E015
:1005800061E081E00E94E4072FEF81EE94E02150CA
:1005900080409040E1F700C0000020E040E060E0D3
:1005A00080E00E94E4072FEF81EE94E0215080402C
:1005B0009040E1F700C00000DCCF802F0F900F903B
:1005C0000F900F90DF91CF911F910F910895F894A4
:1005D0001092B0001092B20081E08093700097E01A
:1005E0009093B1008093BA0183B7817F866083BF07
:1005F00083B7816083BF28E030E080E80FB6F894CD
:1006000080936100209361000FBE789488950895CF
:100610000895F89484B7877F84BFE0E6F0E0808196
:100620008861808310820895F8948FE08093600041
:1006300008950E941403FFCFCF92DF92EF92FF92B2
:10064000CF93DF93882369F1D62FC0E0C82ED12C39
:10065000E12CF12C81E00E945800811122C08D2FE5
:100660000E94F9072FEF84E39CE0215080409040E6
:10067000E1F700C00000CF5FCB3060F365E081E0C0
:100680000E946B0564E184E091E00E944C076FE0FA
:1006900081E00E946B0540E0C701B6010E9473052E
:1006A000D9CFDF91CF91FF90EF90DF90CF90089559
:1006B0000E94EA040E94ED064AE051E061E080E019
:1006C0000E9493070E94DB0743E151E061E080E074
:1006D0000E9493070E94530040E251E061E080E0F5
:1006E0000E9493070E940E084AE251E061E080E018
:1006F0000E9493070E94A3048091AB018F34D1F034
:100700008091AC018B34B1F066EA71E083E391E053
:100710000E94A50446EA51E061E080E00E94930750
:100720002FEF89E698E1215080409040E1F700C02A
:100730000000E2CF46E351E061E080E00E949307D1
:100740002FEF84E39CE0215080409040E1F700C00F
:1007500000000C948B090F93F89483B78E7F83BFAE
:1007600020E030E080E80FB6F89480936100209399
:1007700061000FBE1092BC011092BD011092BE012B
:100780001092BF011092B200109270001092B1004E
:100790000E9458031092BA0142E451E061E080E007
:1007A0000E94930788EC91E00E94650163E00E943B
:1007B0001C038091C801813081F04BE451E061E07D
:1007C00080E00E9493070FE020E040E061E080E0DD
:1007D0000E9450080E941403FFCF789480E00F918C
:1007E00008957F928F929F92AF92BF92CF92DF92A5
:1007F000EF92FF920F931F93CF93DF93EC014A0187
:100800005B01411551056105704178F08EEF9FEF56
:10081000AFEFBFEF9C01AD01281939094A095B0907
:1008200049015A017724739401C0712C8091C00151
:100830009091C101A091C201B091C301C090C401C7
:10084000D090C501E090C601F090C701C816D90646
:10085000EA06FB0648F49C01AD012C193D094E093E
:100860005F0969017A0104C0C81AD90AEA0AFB0AB9
:10087000C501B401A70196010E94FD0A8901A8EEF5
:10088000B3E0A50194010E943E0BA70196010E94CE
:10089000FD0ACA01B90128EE33E040E050E00E94B1
:1008A000FD0A462F972FFE019E012D5F3F4F5AE014
:1008B000E52EF12C842FB7010E94E90A805D819317
:1008C000462F972FE217F307A9F78EE28B83E4E018
:1008D0008AE0E82EF12C9E012E0F311DC801B701D0
:1008E0000E94E90A805DD9018C938B01EF5F672B31
:1008F00091F7F0E0772029F08DE2DE01AE0FBF1F07
:100900008C93EC0FFD1F1182DE01AE17BF0760F460
:1009100090818C9189278C939081892780839C91E9
:1009200089278D933197F1CFCE01DF91CF911F9120
:100930000F91FF90EF90DF90CF90BF90AF909F907E
:100940008F907F9008950C9492080F931F93CF93EC
:10095000DF9300D0CDB7DEB78B0189839A830E94E5
:10096000A70861E089819A810E94D008C8010E948D
:10097000F5080F900F90DF91CF911F910F910C947C
:10098000A008EFE1F3E03197F1F700C000002C98E8
:100990002D9898B1907F98B998B1282F22952F70F3
:1009A000922B98B92D9A2D98EFECF7E03197F1F74B
:1009B00000C0000098B1907F98B998B18F70892BD2
:1009C00088B92D9A2D988FEC97E00197F1F700C028
:1009D000000008958FE493EC0197F1F700C0000048
:1009E00087B18F6087B9259A249A2C982D9888B161
:1009F000807F88B988B1836088B92D9A2D988FEC53
:100A000097E00197F1F700C0000088B1807F88B9B6
:100A100088B1836088B92D9A2D988FEC97E0019763
:100A2000F1F700C0000098E79A95F1F788B183606C
:100A300088B92D9A2D988FEC97E00197F1F700C0B7
:100A4000000098E79A95F1F788B1807F88B9419ABC
:100A50002D9A2D988FEC97E00197F1F700C00000D8
:100A600098E79A95F1F788E20E94C10488E00E9415
:100A7000C1048CE00E94C10481E00E94C10486E0B0
:100A80000C94C104EFE1F3E03197F1F700C00000EE
:100A90002D9898B1907F98B998B1282F22952F70F2
:100AA000922B98B92C9A2D9A2D98EFECF7E031976C
:100AB000F1F700C0000098B1907F98B998B18F709D
:100AC000892B88B92D9A2D988FEC97E00197F1F733
:100AD00000C000000895882311F080EC01C080E878
:100AE000862B0C94C1048F929F92AF92BF92CF92AB
:100AF000DF92EF92FF920F931F93CF93DF9300D07B
:100B000000D0CDB7DEB76B017C01042F97FF0AC080
:100B1000F094E094D094C094C11CD11CE11CF11C51
:100B200011E001C010E084E00E94C104C114D104AE
:100B3000E104F10421F480E30E94420526C0C701CC
:100B4000B6012AE0822E912CA12CB12CA501940192
:100B50000E94FD0A80E3860F29833A834B835C83DE
:100B60000E9442052981622F3A81732F4B81842F85
:100B70005C81952F611571058105910539F78AE032
:100B8000C816D104E104F10418F480E30E94420580
:100B9000112319F08DE20E944205002361F080E2EA
:100BA0000E94420580E20E94420580E20E944205C6
:100BB00080E20E94420586E00F900F900F900F9008
:100BC000DF91CF911F910F91FF90EF90DF90CF9029
:100BD000BF90AF909F908F900C94C104AF92BF9242
:100BE000CF92DF92EF92FF920F931F93CF93DF93F9
:100BF0001F92CDB7DEB78C01A62EF42E84E00E94A2
:100C0000C1040115110549F480E30E944205BB248B
:100C1000B3940A2DAA0C110B15C0B12C8AE0C82E72
:100C2000D12CC801B6010E94E90AE62E805D7983C5
:100C30000E9442050E2D7981172FB39401151105DD
:100C400081F7E7CF98012B193109B7FC33951216BC
:100C500013062CF4B3948F2D0E944205F3CF86E047
:100C60000F90DF91CF911F910F91FF90EF90DF9048
:100C7000CF90BF90AF900C94C1048F929F92AF928F
:100C8000BF92CF92DF92EF92FF920F931F93CF9379
:100C9000DF9300D0CDB7DEB7811520E19207A0F039
:100CA00066277727681B790B80E090E00E94870B0E
:100CB00020E030E048EC50E40E94ED0B0E94580B1D
:100CC0004B01CC24C3940FC0BC0180E090E00E9493
:100CD000870B20E030E048EC50E40E94ED0B0E94CE
:100CE000580B4B01C12CC4010A978A35910530F08D
:100CF000F12C8AE08816910428F002C0FF24F394B6
:100D0000D12C02C0DD24D39484E00E94C10481145C
:100D1000910431F08401E12C8AE0A82EB12C09C0A5
:100D200080E30E94420522C001151105F9F0E1108F
:100D300015C0C801B5010E94E90A972F062F172F89
:100D4000E39422E0E212F0CF8EE269837A830E947C
:100D5000420569819A810115110541F0862FB5017F
:100D60000E94E90A805D0E944205E3CFFF2019F04E
:100D700080E30E944205DD2049F080E30E944205A5
:100D80008EE20E94420580E30E944205CC2011F0D1
:100D90008DE201C08BE20E944205F1100AC0D11021
:100DA00008C084E6881A910824E8821623E0920697
:100DB00018F480E20E94420586E00F900F90DF91C8
:100DC000CF911F910F91FF90EF90DF90CF90BF9048
:100DD000AF909F908F900C94C10481E00E94C10459
:100DE0002FEF84E39CE0215080409040E1F700C069
:100DF000000008952D982C9888B1807F88B987B11C
:100E0000807F87B95C9A2D9A82E08A95F1F700C0BD
:100E100086B12D9892E09A95F1F700C02D9A92E054
:100E20009A95F1F700C096B12D9892E09A95F1F756
:100E300000C05C9897B19F6097B983FB882780F9C1
:100E400008950E94FA068111FCCF2C982D9888B144
:100E5000807F88B987B1807F87B95C9A8AE08A955C
:100E6000F1F700C02C9A2D9A9AE09A95F1F700C0FC
:100E700026B12D9A2D988FEC97E00197F1F700C0DD
:100E8000000096B15C9887B18F6087B92295207F6A
:100E9000892F8F70822B0895FF920F931F93CF930A
:100EA000DF931F92CDB7DEB78C01F12CF801EF0D67
:100EB000F11D8081882341F0F61631F069830E948C
:100EC0004205F3946981F2CF0F90DF91CF911F918A
:100ED0000F91FF900895EF92FF920F931F93CF937E
:100EE000DF9300D0CDB7DEB78B0179014A838983C8
:100EF0000E94ED06898180680E94C10464E1C801F6
:100F00000E944C074A81842F806C0E94C10464E1D6
:100F1000C7010F900F90DF91CF911F910F91FF901C
:100F2000EF900C944C070F931F93CF93DF9300D057
:100F3000CDB7DEB78A016A8389830E94ED06898175
:100F40006A81811103C0862F806C02C0862F806861
:100F50000E94C10464E1C8010F900F90DF91CF910E
:100F60001F910F910C944C07CF92DF92EF92FF925A
:100F7000CF93DF9300D0CDB7DEB769017A016A83E2
:100F800089830E94ED0689816A81811103C0862FC1
:100F9000806C02C0862F80680E94C10441E0C701B6
:100FA000B6010F900F90DF91CF91FF90EF90DF90FF
:100FB000CF900C947305229A579A569A559A2A986C
:100FC0005F985E985D980895882311F02A9A01C071
:100FD0002A98662311F05F9A01C05F98442311F0AC
:100FE0005E9A01C05E98222311F05D9A08955D9883
:100FF000089580FF02C02A9A01C02A9881FF02C08A
:101000005F9A01C05F9882FF02C05E9A01C05E983D
:1010100083FF02C05D9A08955D98089520E040E046
:1010200060E081E00E94E4072FEF80E792E021502A
:1010300080409040E1F700C0000020E040E061E027
:1010400080E00E94E4072FEF80E792E0215080408B
:101050009040E1F700C0000020E041E060E080E067
:101060000E94E4072FEF80E792E0215080409040FB
:10107000E1F700C0000021E040E060E080E00E9475
:10108000E4072FEF80E792E0215080409040E1F7A5
:1010900000C0000020E040E060E080E00C94E40745
:1010A000EF92FF920F931F93CF93DF93D82F162FBA
:1010B000F42EE22EC0E0C01701F12E2D4F2D612F2E
:1010C0008D2F0E94E4072FEF81EE94E021508040A5
:1010D0009040E1F700C0000020E040E060E080E0E8
:1010E0000E94E4072FEF81EE94E021508040904071
:1010F000E1F700C00000CF5FDECFDF91CF911F91FD
:101100000F91FF90EF9008951F920F920FB60F92DC
:1011100011248F938091C6008F910F900FBE0F9076
:101120001F90189583E390E09093C5008093C400CE
:1011300088E98093C10086E08093C2007894089586
:101140007894E1ECF0E08081806880830895F894E1
:10115000E1ECF0E080818F778083089520E030E03B
:101160009091C00095FD08C02F5F3F4F213197E25D
:101170003907B1F780E008958093C60081E00895B3
:1011800080E090E02091C00027FD07C001968131EA
:1011900027E29207B9F783E008958091C600089589
:1011A0000F931F93CF93DF931F92CDB7DEB78C01C0
:1011B000F80181918F01882329F069830E94AE088C
:1011C0006981F6CF662359F08DE00E94AE088AE06F
:1011D0000F90DF91CF911F910F910C94AE080F905B
:1011E000DF91CF911F910F9108950F931F93CF938C
:1011F000DF93EC018C010D5E1F4F8881833031F449
:101200001882DF91CF911F910F910895C017D107D8
:10121000B9F30E94C0088993F0CF8091C600089569
:101220006093000170930101809302019093030188
:10123000089583B1869581700895CF92DF92EF92E1
:10124000FF92CF930E9419098111FCCFC8E1C12CF4
:10125000D12C7601289ACC0CDD1CEE1CFF1C0E94C0
:101260001909882329F08FEFC81AD80AE80AF80A62
:101270002898C15079F7289A2898289A2898289A67
:101280002898C701B601CF91FF90EF90DF90CF90E3
:101290000895CF92DF92EF92FF92CF93DF9388234E
:1012A000D9F0C82FD0E0C12CD12C76010E941D09A5
:1012B000C60ED71EE81EF91E82E08A95F1F700C01F
:1012C000DF5FDC13F3CF2D2F30E040E050E0C701AB
:1012D000B6010E941F0B03C020E030E0A901CA0143
:1012E000B901DF91CF91FF90EF90DF90CF900895FB
:1012F0000F931F930E944909009100011091010171
:101300002091020130910301601B710B820B930B42
:101310001F910F910895209A2198289883E00C94AA
:1013200078090E944909609300017093010180933C
:101330000201909303010895289808952898289A07
:1013400008956091000170910101809102019091D6
:1013500003010895CF93DF931F92CDB7DEB70E94AC
:1013600009030E94580342E451E061E080E00E94DA
:10137000930788EC91E00E94650163E00E941C03E2
:101380004AE551E061E080E00E9493070AE020E036
:1013900040E060E081E00E9450080E94F9018093E3
:1013A000C8018230E1F546E651E061E080E00E944C
:1013B00093072FEF84E39CE0215080409040E1F7B9
:1013C00000C000000E9431028823A1F081E08983DF
:1013D000CE0101960E948701811107C021E041E002
:1013E00061E081E00E94E4071AC020E041E061E092
:1013F00080E004C021E040E060E081E00E94E4077A
:1014000042E751E061E080E00E9493072FEF81E125
:101410009AE7215080409040E1F700C0000048E783
:1014200051E061E080E00E94930764EC71E080E0AD
:101430000E94670065E00E941C0348E751E061E0FC
:1014400080E00E94930760EC71E081E00E946700F9
:1014500069E00E941C036091C4017091C5018091F4
:10146000C6019091C7010E94100945E851E061E072
:1014700080E00E9493076AE081E00E946B05609122
:10148000C80170E080E090E041E00E9473052FEF1A
:1014900081E19AE7215080409040E1F700C00000D0
:1014A0006FE081E00E946B056091C4017091C501FD
:1014B0008091C6019091C70141E00E9473056FE0E1
:1014C00080E00E946B056091C0017091C101809124
:1014D000C2019091C30141E00E9473052FEF81E1A9
:1014E0009AE7215080409040E1F700C0000020E0E2
:1014F00040E060E080E00E94E4070E94ED06209A50
:101500004AE851E061E080E00E9493072FEF89E60E
:1015100098E1215080409040E1F700C000000E9417
:10152000E7028091BA018111FACF0E94AB0347E92B
:1015300051E061E080E00E9493072FEF89E698E197
:10154000215080409040E1F700C000002091BC0194
:101550003091BD014091BE015091BF016CE081E02E
:101560000E94B4072FEF89E698E121508040904017
:10157000E1F700C0000083E00E947809AB01BC01E4
:1015800086EA91E00E94F10346EA51E060E080E0E3
:101590000E9493072FEF81E19AE72150804090400D
:1015A000E1F700C000000E94ED066CE081E00E94BF
:1015B0006B0583E00E94780941E00E9473052FEFDC
:1015C00081E19AE7215080409040E1F700C000009F
:1015D00097CFAA1BBB1B51E107C0AA1FBB1FA617B1
:1015E000B70710F0A61BB70B881F991F5A95A9F7CC
:1015F00080959095BC01CD010895A1E21A2EAA1BF9
:10160000BB1BFD010DC0AA1FBB1FEE1FFF1FA217B2
:10161000B307E407F50720F0A21BB30BE40BF50BAF
:10162000661F771F881F991F1A9469F76095709538
:10163000809590959B01AC01BD01CF010895052EC9
:1016400097FB1EF400940E94360B57FD07D00E94B2
:10165000FD0A07FC03D04EF40C94360B50954095D0
:10166000309521953F4F4F4F5F4F0895909580954E
:10167000709561957F4F8F4F9F4F08950E94490B42
:10168000A59F900DB49F900DA49F800D911D1124D6
:101690000895A29FB001B39FC001A39F700D811D4B
:1016A0001124911DB29F700D811D1124911D08956B
:1016B0000E94CC0B88F09F5798F0B92F9927B7510B
:1016C000B0F0E1F0660F771F881F991F1AF0BA95E6
:1016D000C9F714C0B13091F00E94E60BB1E0089553
:1016E0000C94E60B672F782F8827B85F39F0B93F45
:1016F000CCF3869577956795B395D9F73EF4909599
:101700008095709561957F4F8F4F9F4F0895E89416
:1017100009C097FB3EF490958095709561957F4F39
:101720008F4F9F4F9923A9F0F92F96E9BB279395E7
:10173000F695879577956795B795F111F8CFFAF4F7
:10174000BB0F11F460FF1BC06F5F7F4F8F4F9F4F28
:1017500016C0882311F096E911C0772321F09EE886
:10176000872F762F05C0662371F096E8862F70E0EC
:1017700060E02AF09A95660F771F881FDAF7880FC6
:101780009695879597F9089557FD9058440F551FE2
:1017900059F05F3F71F04795880F97FB991F61F0F3
:1017A0009F3F79F087950895121613061406551F6A
:1017B000F2CF4695F1DF08C0161617061806991FD6
:1017C000F1CF86957105610508940895E894BB27CB
:1017D00066277727CB0197F908950E94000C0C9497
:1017E000710C0E94630C38F00E946A0C20F0952363
:1017F00011F00C945A0C0C94600C11240C94E70B0F
:101800000E94C40B70F3959FC1F3950F50E0551FD4
:10181000629FF001729FBB27F00DB11D639FAA2745
:10182000F00DB11DAA1F649F6627B00DA11D661F94
:10183000829F2227B00DA11D621F739FB00DA11DB5
:10184000621F839FA00D611D221F749F3327A00D6F
:10185000611D231F849F600D211D822F762F6A2F0B
:1018600011249F5750409AF0F1F088234AF0EE0F70
:10187000FF1FBB1F661F771F881F91505040A9F79D
:101880009E3F510580F00C945A0C0C94E70B5F3F7F
:10189000E4F3983ED4F3869577956795B795F795D9
:1018A000E7959F5FC1F7FE2B880F911D9695879551
:1018B00097F9089597F99F6780E870E060E00895D0
:1018C0009FEF80EC089500240A9416161706180658
:1018D0000906089500240A94121613061406050634
:1018E0000895092E0394000C11F4882352F0BB0FC5
:1018F00040F4BF2B11F460FF04C06F5F7F4F8F4F28
:101900009F4F0895F999FECF92BD81BDF89A99270E
:1019100080B50895A6E1B0E044E050E00C94B00C2E
:10192000262FF999FECF92BD81BDF89A019700B498
:10193000021639F01FBA20BD0FB6F894FA9AF99A38
:101940000FBE08950396272F0E94910C0E94900CC1
:10195000252F0E94910C242F0C94910CDC01CB01BB
:10196000FC01F999FECF06C0F2BDE1BDF89A3196AF
:1019700000B40D9241505040B8F70895F894FFCF4D
:10198000C09121004572726F72004C454420494E4F
:10199000495400425554544F4E535F494E495400E8
:1019A000434845434B204C45440047534D20494E46
:1019B00049540041540057454947485420494E492D
:1019C0005400474554204D4F4445004E4F54205736
:1019D0004F524B204D4F44452100434C4252204D25
:1019E0004F4445203F0050415353434F4445204FFF
:1019F0004B004552524F5200474554494E47205ADA
:101A0000574748540052203D2000456E74657220AF
:101A1000746F2050534D00455849542046524F4D45
:061A20002050534D0000B0
:00000001FF
