:100000000C9434000C9451000C9451000C94510049
:100010000C9451000C9451000C9451000C9451001C
:100020000C9451000C94A5010C9451000C945100B7
:100030000C9451000C9451000C9451000C945100FC
:100040000C9451000C9451000C94BA080C9451007B
:100050000C9451000C9451000C9451000C945100DC
:100060000C9451000C94510011241FBECFEFD8E026
:10007000DEBFCDBF11E0A0E0B1E0E4EFF9E102C0E6
:1000800005900D92A23AB107D9F721E0A2EAB1E0BA
:1000900001C01D92A53CB207E1F70E94E0090C9453
:1000A000F80C0C940000549853985C985B98089551
:1000B000813039F0823049F489B183FB882780F997
:1000C000089589B182958170089580E00895CF9256
:1000D000DF92EF92FF92CF93DF93EB01882379F0C9
:1000E000813051F584E090E00E94C40C6B017C01EA
:1000F000688379838A839B8380E090E00CC08CE0E6
:1001000090E00E94C40C6B017C01688379838A8330
:100110009B8388E090E00E94C40CC616D706E806D0
:10012000F90611F082E009C081E0CF20CE20CD2079
:10013000C09419F080E001C084E0DF91CF91FF907E
:10014000EF90DF90CF900895CF92DF92EF92FF92E1
:10015000CF93DF93EB018823D9F08130E1F548811B
:1001600059816A817B8184E090E00E94DC0C4881A7
:1001700059816A817B8180E090E00E94DC0C84E000
:1001800090E00E94C40C6B017C0180E090E018C0FC
:10019000488159816A817B818CE090E00E94DC0C6F
:1001A000488159816A817B8188E090E00E94DC0C63
:1001B0008CE090E00E94C40C6B017C0188E090E030
:1001C0000E94C40CC616D706E806F90611F480E0B2
:1001D00003C085E001C084E0DF91CF91FF90EF90F4
:1001E000DF90CF900895DF92EF92FF920F931F93CD
:1001F000CF93DF93623049F0633061F0613011F5E5
:10020000C0E1D0E001E110E009C0C4E1D0E005E1C7
:1002100010E004C0C2E1D0E003E110E07C01C801BD
:100220000E94BC0CD82EF7018083CE010E94BC0C2A
:10023000D81651F06FE7C8010E94CA0C6FE7CE01D3
:100240000E94CA0C82E001C080E0DF91CF911F9133
:100250000F91FF90EF90DF900895EF92FF920F9330
:100260001F93CF93DF93623049F0633061F06130C8
:1002700011F5C0E1D0E001E110E009C0C4E1D0E037
:1002800005E110E004C0C2E1D0E003E110E07C0130
:10029000FC016081C8010E94CA0CF7016081CE0197
:1002A0000E94CA0CC8010E94BC0C182FCE010E94EB
:1002B000BC0C181711F085E001C080E0DF91CF91F0
:1002C0001F910F91FF90EF9008950F931F93CF937D
:1002D0008C0185E190E00E94BC0CC82FF80180835E
:1002E00084E190E00E94BC0CC81761F06FE785E1E3
:1002F00090E00E94CA0C6FE784E190E00E94CA0C73
:1003000082E001C080E0CF911F910F910895CF93BB
:10031000DF93EC01688185E190E00E94CA0C68815E
:1003200084E190E00E94CA0C85E190E00E94BC0C40
:10033000C82F84E190E00E94BC0CC81711F085E042
:1003400001C080E0DF91CF9108951F920F920FB608
:100350000F9211248F939F93AF93BF938091B80115
:100360009091B901A091BA01B091BB018A30910579
:10037000A105B10578F40196A11DB11D8093B801C6
:100380009093B901A093BA01B093BB0181E080932F
:10039000B6010AC01092B8011092B9011092BA01C8
:1003A0001092BB011092B601BF91AF919F918F91B6
:1003B0000F900FBE0F901F9018950895CF93DF9365
:1003C000D82F0E945800882311F080E00FC0C5E6A6
:1003D0008D2F0E945800811109C08FE59AEE019778
:1003E000F1F700C00000C15099F7EFCFDF91CF9136
:1003F000089520E040E060E080E00E941A088091CB
:10040000C401823019F120E040E060E081E00E9408
:100410001A0881E00E94DE018823C1F020E040E05C
:1004200061E080E00E941A0882E00E94DE018823D9
:1004300069F020E040E060E081E00E941A0881E07D
:100440000E94DE0181110BC083E0089520E040E0AE
:1004500060E080E00E941A088091C401089582E063
:1004600008950F931F93CF93DF9300D000D0CDB7A3
:10047000DEB781E00E9458008823B1F000E09DC003
:1004800081E00E945800811111C0812F0E942F0825
:100490002FEF84E39CE0215080409040E1F700C0C2
:1004A0000000110F193060F311E0EACF83E00E94E1
:1004B0007F0969837A838B839C83BE016F5F7F4F43
:1004C00080E00E94A4008111D9CF81E00E945800F1
:1004D0008823F9F021E041E061E081E00E941A0800
:1004E0002FEF81EE94E0215080409040E1F700C072
:1004F000000020E040E060E080E00E941A082FEF5A
:1005000081EE94E0215080409040E1F700C000006F
:10051000DCCF82E00E9458008111B0CF82E00E94BF
:100520005800082F811116C0812F0E942F082FEF2D
:1005300084E39CE0215080409040E1F700C000003F
:10054000812F90E095958795009711F0182FE6CFB1
:1005500018E0E4CF83E00E947F0969837A838B836C
:100560009C83BE016F5F7F4F81E00E94A4008111D8
:1005700085CF82E00E9458008823F9F021E041E015
:1005800061E081E00E941A082FEF81EE94E0215093
:1005900080409040E1F700C0000020E040E060E0D3
:1005A00080E00E941A082FEF81EE94E021508040F5
:1005B0009040E1F700C00000DCCF802F0F900F903B
:1005C0000F900F90DF91CF911F910F910895F894A4
:1005D00044981092B0001092B20081E080937000B5
:1005E00097E09093B1008093B60183B7817F8660D6
:1005F00083BF83B7816083BF28E030E080E80FB617
:10060000F89480936100209361000FBE78948895E0
:1006100008950895F89484B7877F84BFE0E6F0E0FA
:1006200080818861808310820895F8948FE08093A0
:10063000600008950E941503FFCFCF92DF92EF92E2
:10064000FF92CF93DF93882369F1D62FC0E0C82EA5
:10065000D12CE12CF12C81E00E945800811122C0A4
:100660008D2F0E942F082FEF84E39CE021508040C3
:100670009040E1F700C00000CF5FCB3060F365E051
:1006800081E00E948E0564E184E091E00E9475079C
:100690006FE081E00E948E0540E0C701B6010E9434
:1006A0009605D9CFDF91CF91FF90EF90DF90CF905B
:1006B00008953C9A449A2FEF81EE94E021508040B7
:1006C0009040E1F700C000000E94E9040E9410077A
:1006D0004AE051E061E080E00E94BC070E941108FE
:1006E00043E151E061E080E00E94BC070E945300BA
:1006F00040E251E061E080E00E94BC070E944408B3
:100700004AE251E061E080E00E94BC0743E351E02F
:1007100061E080E00E94BC072FEF84E39CE0215061
:1007200080409040E1F700C000000C94C1090F9395
:10073000F89483B78E7F83BF20E030E080E80FB667
:10074000F89480936100209361000FBE1092B8016D
:100750001092B9011092BA011092BB011092B2002E
:10076000109270001092B1000E9459031092B601CD
:100770004FE351E061E080E00E94BC0784EC91E02F
:100780000E94650163E00E941D038091C4018130D5
:1007900081F048E451E061E080E00E94BC070FE096
:1007A00020E040E061E080E00E9486080E9415039E
:1007B000FFCF789480E00F9108957F928F929F925F
:1007C000AF92BF92CF92DF92EF92FF920F931F935F
:1007D000CF93DF93EC014A015B014115510561059F
:1007E000704178F08EEF9FEFAFEFBFEF9C01AD014E
:1007F000281939094A095B0949015A017724739478
:1008000001C0712C8091BC019091BD01A091BE01ED
:10081000B091BF01C090C001D090C101E090C20171
:10082000F090C301C816D906EA06FB0648F49C01FD
:10083000AD012C193D094E095F0969017A0104C017
:10084000C81AD90AEA0AFB0AC501B401A701960130
:100850000E94370B8901A8EEB3E0A50194010E9424
:10086000780BA70196010E94370BCA01B90128EE47
:1008700033E040E050E00E94370B462F972FFE01F7
:100880009E012D5F3F4F5AE0E52EF12C842FB701DA
:100890000E94230B805D8193462F972FE217F30769
:1008A000A9F78EE28B8334E08AE0E82EF12CFE017A
:1008B000E30FF11DC801B7010E94230B805D808307
:1008C0008B013F5F672B99F7232F30E0772029F0CA
:1008D0008DE2FE01E20FF31F8083F9013197EC0FE7
:1008E000FD1FDE01AE17BF0760F490818C91892750
:1008F0008C939081892780839C9189278D93319750
:10090000F1CFFE01E20FF31F1182CE01DF91CF91F3
:100910001F910F91FF90EF90DF90CF90BF90AF901D
:100920009F908F907F900895529808950C94C808D6
:100930000F931F93CF93DF9300D0CDB7DEB78B011A
:1009400089839A830E94DD0861E089819A810E94EF
:100950000609C8010E942B090F900F90DF91CF91DB
:100960001F910F910C94D608EFE1F3E03197F1F766
:1009700000C000002C982D9898B1907F98B998B13C
:10098000282F22952F70922B98B92D9AE7ECF0E042
:100990003197F1F700C000002D98EFECF7E03197A8
:1009A000F1F700C0000098B1907F98B998B18F70AE
:1009B000892B88B92D9A87EC90E00197F1F700C058
:1009C00000002D98EFECF7E03197F1F700C0000040
:1009D00008958FE493EC0197F1F700C0000087B110
:1009E0008F6087B9259A249A2C982D9888B1807F9A
:1009F00088B988B1836088B92D9A87EC90E0019717
:100A0000F1F700C000002D988FEC97E00197F1F707
:100A100000C0000088B1807F88B988B1836088B940
:100A20002D9A87EC90E00197F1F700C000002D9817
:100A30008FEC97E00197F1F700C0000098E79A95D6
:100A4000F1F788B1836088B92D9A87EC90E001971F
:100A5000F1F700C000002D988FEC97E00197F1F7B7
:100A600000C0000098E79A95F1F788B1807F88B9B7
:100A7000419A2D9A87EC90E00197F1F700C00000B1
:100A80002D988FEC97E00197F1F700C0000098E7F0
:100A90009A95F1F788E20E94B40488E00E94B404B9
:100AA0008CE00E94B40481E00E94B40486E00C94BF
:100AB000B404EFE1F3E03197F1F700C000002D98A6
:100AC00098B1907F98B998B1282F22952F70922BCA
:100AD00098B92C9A2D9AE7ECF0E03197F1F700C025
:100AE00000002D98EFECF7E03197F1F700C000001F
:100AF00098B1907F98B998B18F70892B88B92D9A49
:100B000087EC90E00197F1F700C000002D98EFEC22
:100B1000F7E03197F1F700C000000895882311F045
:100B200080EC01C080E8862B0C94B4048F929F92D5
:100B3000AF92BF92CF92DF92EF92FF920F931F93EB
:100B4000CF93DF9300D000D0CDB7DEB76B017C012F
:100B5000042F97FF0AC0F094E094D094C094C11C75
:100B6000D11CE11CF11C11E001C010E084E00E94E6
:100B7000B404C114D104E104F10421F480E30E941F
:100B8000590526C0C701B6012AE0822E912CA12C5E
:100B9000B12CA50194010E94370B80E3860F2983B5
:100BA0003A834B835C830E9459052981622F3A81E5
:100BB000732F4B81842F5C81952F61157105810501
:100BC000910539F78AE0C816D104E104F10418F45C
:100BD00080E30E945905112319F08DE20E94590506
:100BE000002361F080E20E94590580E20E945905CD
:100BF00080E20E94590580E20E94590586E00F902C
:100C00000F900F900F90DF91CF911F910F91FF9058
:100C1000EF90DF90CF90BF90AF909F908F900C940B
:100C2000B404AF92BF92CF92DF92EF92FF920F93F4
:100C30001F93CF93DF931F92CDB7DEB78C01A62E03
:100C4000F42E84E00E94B4040115110549F480E3F8
:100C50000E945905BB24B3940A2DAA0C110B15C090
:100C6000B12C8AE0C82ED12CC801B6010E94230BFA
:100C7000E62E805D79830E9459050E2D7981172F0C
:100C8000B3940115110581F7E7CF98012B193109AC
:100C9000B7FC3395121613062CF4B3948F2D0E94D3
:100CA0005905F3CF86E00F90DF91CF911F910F91FF
:100CB000FF90EF90DF90CF90BF90AF900C94B40472
:100CC0008F929F92AF92BF92CF92DF92EF92FF925C
:100CD0000F931F93CF93DF9300D0CDB7DEB781156D
:100CE00020E19207A0F066277727681B790B80E048
:100CF00090E00E94C10B20E030E048EC50E40E94FC
:100D0000270C0E94920B4B01CC24C3940FC0BC0152
:100D100080E090E00E94C10B20E030E048EC50E41D
:100D20000E94270C0E94920B4B01C12CC4010A9710
:100D30008A35910530F0F12C8AE08816910428F06C
:100D400002C0FF24F394D12C02C0DD24D39484E0AC
:100D50000E94B4048114910431F08401E12C8AE0F2
:100D6000A82EB12C09C080E30E94590522C00115AC
:100D70001105F9F0E11015C0C801B5010E94230B5F
:100D8000972F062F172FE39422E0E212F0CF8EE286
:100D900069837A830E94590569819A810115110539
:100DA00041F0862FB5010E94230B805D0E945905FA
:100DB000E3CFFF2019F080E30E945905DD2049F0C0
:100DC00080E30E9459058EE20E94590580E30E944B
:100DD0005905CC2011F08DE201C08BE20E9459052B
:100DE000F1100AC0D11008C084E6881A910824E8DE
:100DF000821623E0920618F480E20E94590586E0EC
:100E00000F900F90DF91CF911F910F91FF90EF9076
:100E1000DF90CF90BF90AF909F908F900C94B404D0
:100E200081E00E94B4042FEF84E39CE021508040D5
:100E30009040E1F700C0000008952D982C9888B1EB
:100E4000807F88B987B1807F87B95C9A2D9A82E0CC
:100E50008A95F1F700C086B12D9892E09A95F1F746
:100E600000C02D9A92E09A95F1F700C096B12D98A6
:100E700092E09A95F1F700C05C9897B19F6097B99E
:100E800083FB882780F908950E941D078111FCCFFC
:100E90002C982D9888B1807F88B987B1807F87B9D9
:100EA0005C9A8AE08A95F1F700C02C9A2D9A9AE014
:100EB0009A95F1F700C026B12D9A87EC90E0019742
:100EC000F1F700C000002D988FEC97E00197F1F743
:100ED00000C0000096B15C9887B18F6087B92295F9
:100EE000207F892F8F70822B0895FF920F931F937D
:100EF000CF93DF931F92CDB7DEB78C01F12CF801B1
:100F0000EF0DF11D8081882341F0F61631F06983E1
:100F10000E945905F3946981F2CF0F90DF91CF9130
:100F20001F910F91FF900895EF92FF920F931F93DF
:100F3000CF93DF9300D0CDB7DEB78B0179014A8321
:100F400089830E941007898180680E94B40464E14B
:100F5000C8010E9475074A81842F806C0E94B404E6
:100F600064E1C7010F900F90DF91CF911F910F9116
:100F7000FF90EF900C9475070F931F93CF93DF931F
:100F800000D0CDB7DEB78A016A8389830E9410073B
:100F900089816A81811103C0862F806C02C0862FEF
:100FA00080680E94B40464E1C8010F900F90DF9143
:100FB000CF911F910F910C947507CF92DF92EF9212
:100FC000FF92CF93DF9300D0CDB7DEB769017A01EE
:100FD0006A8389830E94100789816A81811103C015
:100FE000862F806C02C0862F80680E94B40441E086
:100FF000C701B6010F900F90DF91CF91FF90EF9056
:10100000DF90CF900C94960588E00E94B40480E0B5
:101010000E9459052D982C988AE68A95F1F700C010
:101020000895229A579A569A559A2A985F985E98E8
:101030005D980895882311F02A9A01C02A986623A2
:1010400011F05F9A01C05F98442311F05E9A01C0CD
:101050005E98222311F05D9A08955D98089580FFAF
:1010600002C02A9A01C02A9881FF02C05F9A01C07B
:101070005F9882FF02C05E9A01C05E9883FF02C043
:101080005D9A08955D98089520E040E060E081E079
:101090000E941A082FEF80E792E021508040904094
:1010A000E1F700C0000020E040E061E080E00E9445
:1010B0001A082FEF80E792E0215080409040E1F73E
:1010C00000C0000020E041E060E080E00E941A08DB
:1010D0002FEF80E792E0215080409040E1F700C080
:1010E000000021E040E060E080E00E941A082FEF5D
:1010F00080E792E0215080409040E1F700C000007E
:1011000020E040E060E080E00C941A08EF92FF924B
:101110000F931F93CF93DF93D82F162FF42EE22E29
:10112000C0E0C01701F12E2D4F2D612F8D2F0E9491
:101130001A082FEF81EE94E0215080409040E1F7B3
:1011400000C0000020E040E060E080E00E941A085B
:101150002FEF81EE94E0215080409040E1F700C0F5
:101160000000CF5FDECFDF91CF911F910F91FF90F5
:10117000EF9008951F920F920FB60F9211248F9344
:101180008091C6008F910F900FBE0F901F90189501
:1011900083E390E09093C5008093C40088E9809336
:1011A000C10086E08093C200789408957894E1ECC1
:1011B000F0E08081806880830895F894E1ECF0E0AD
:1011C00080818F778083089520E030E09091C00087
:1011D00095FD08C02F5F3F4F213197E23907B1F7E6
:1011E00080E008958093C60081E0089580E090E05B
:1011F0002091C00027FD07C00196813127E29207A8
:10120000B9F783E008958091C60008950F931F9366
:10121000CF93DF931F92CDB7DEB78C01F801819198
:101220008F01882329F069830E94E4086981F6CF41
:10123000662359F08DE00E94E4088AE00F90DF9168
:10124000CF911F910F910C94E4080F90DF91CF91F3
:101250001F910F9108950F931F93CF93DF93EC018C
:101260008C010D5E1F4F8881833031F41882DF912D
:10127000CF911F910F910895C017D107B9F30E9424
:10128000F6088993F0CF8091C6000895609300011D
:10129000709301018093020190930301089583B13B
:1012A000869581700895CF92DF92EF92FF92CF934F
:1012B0000E944F098111FCCFC8E1C12CD12C7601CD
:1012C000289ACC0CDD1CEE1CFF1C0E944F098823C1
:1012D00029F08FEFC81AD80AE80AF80A2898C150EE
:1012E00079F7289A2898289A2898289A2898C70140
:1012F000B601CF91FF90EF90DF90CF900895CF92FD
:10130000DF92EF92FF92CF93DF938823D9F0C82F1B
:10131000D0E0C12CD12C76010E945309C60ED71EF5
:10132000E81EF91E82E08A95F1F700C0DF5FDC134A
:10133000F3CF2D2F30E040E050E0C701B6010E940E
:10134000590B03C020E030E0A901CA01B901DF91C7
:10135000CF91FF90EF90DF90CF9008950F931F9360
:101360000E947F090091000110910101209102016A
:1013700030910301601B710B820B930B1F910F9136
:101380000895209A2198289883E00C94AE090E9431
:101390007F09609300017093010180930201909393
:1013A00003010895289808952898289A089560912F
:1013B0000001709101018091020190910301089553
:1013C000CF93DF931F92CDB7DEB73C9A449A0E9429
:1013D0000A030E9459034FE351E061E080E00E945C
:1013E000BC0784EC91E00E94650163E00E941D034C
:1013F00047E551E061E080E00E94BC070AE020E0A0
:1014000040E060E081E00E9486080E94F90180933C
:10141000C4018230E1F543E651E061E080E00E94E2
:10142000BC072FEF84E39CE0215080409040E1F71F
:1014300000C000000E9431028823A1F081E089836E
:10144000CE0101960E948701811107C021E041E091
:1014500061E081E00E941A081AC020E041E061E0EA
:1014600080E004C021E040E060E081E00E941A08D2
:101470004FE651E061E080E00E94BC072FEF81E180
:101480009AE7215080409040E1F700C0000045E716
:1014900051E061E080E00E94BC0760EC71E080E018
:1014A0000E94670065E00E941D0345E751E061E08E
:1014B00080E00E94BC076CEB71E081E00E94670055
:1014C00069E00E941D036091C0017091C10180918B
:1014D000C2019091C3010E94460942E851E061E0D7
:1014E00080E00E94BC076AE081E00E948E05609166
:1014F000C40170E080E090E041E00E9496052FEF8B
:1015000081E19AE7215080409040E1F700C000005F
:101510006FE081E00E948E056091C0017091C10171
:101520008091C2019091C30141E00E9496056FE055
:1015300080E00E948E056091BC017091BD01809198
:10154000BE019091BF0141E00E9496052FEF81E11D
:101550009AE7215080409040E1F700C0000020E071
:1015600040E060E080E00E941A080E941007209A84
:1015700047E851E061E080E00E94BC070E94040857
:101580002FEF89E698E1215080409040E1F700C0BC
:1015900000000E94E7028091B6018111FACF0E94FB
:1015A000970344E951E061E080E00E94BC072FEF1F
:1015B00089E698E1215080409040E1F700C00000AA
:1015C0002091B8013091B9014091BA015091BB010D
:1015D0006CE081E00E94DD072FEF89E698E1215061
:1015E00080409040E1F700C0000083E00E94AE0917
:1015F000AB01BC0182EA91E00E94DD0342EA51E0C6
:1016000060E080E00E94BC072FEF81E19AE7215063
:1016100080409040E1F700C000000E9410076CE09D
:1016200081E00E948E0583E00E94AE0941E00E94A5
:1016300096052FEF81E19AE7215080409040E1F735
:1016400000C0000095CFAA1BBB1B51E107C0AA1F19
:10165000BB1FA617B70710F0A61BB70B881F991F53
:101660005A95A9F780959095BC01CD010895A1E206
:101670001A2EAA1BBB1BFD010DC0AA1FBB1FEE1F0C
:10168000FF1FA217B307E407F50720F0A21BB30B57
:10169000E40BF50B661F771F881F991F1A9469F7D3
:1016A00060957095809590959B01AC01BD01CF012F
:1016B0000895052E97FB1EF400940E94700B57FDB1
:1016C00007D00E94370B07FC03D04EF40C94700B2C
:1016D00050954095309521953F4F4F4F5F4F08955E
:1016E00090958095709561957F4F8F4F9F4F08958E
:1016F0000E94830BA59F900DB49F900DA49F800D19
:10170000911D11240895A29FB001B39FC001A39F12
:10171000700D811D1124911DB29F700D811D11242A
:10172000911D08950E94060C88F09F5798F0B92FDC
:101730009927B751B0F0E1F0660F771F881F991F06
:101740001AF0BA95C9F714C0B13091F00E94200C7C
:10175000B1E008950C94200C672F782F8827B85F8C
:1017600039F0B93FCCF3869577956795B395D9F75E
:101770003EF490958095709561957F4F8F4F9F4F68
:101780000895E89409C097FB3EF490958095709574
:1017900061957F4F8F4F9F4F9923A9F0F92F96E9BD
:1017A000BB279395F695879577956795B795F11132
:1017B000F8CFFAF4BB0F11F460FF1BC06F5F7F4FCF
:1017C0008F4F9F4F16C0882311F096E911C07723E1
:1017D00021F09EE8872F762F05C0662371F096E8EA
:1017E000862F70E060E02AF09A95660F771F881FB9
:1017F000DAF7880F9695879597F9089557FD9058D1
:10180000440F551F59F05F3F71F04795880F97FBC4
:10181000991F61F09F3F79F087950895121613067E
:101820001406551FF2CF4695F1DF08C016161706AD
:101830001806991FF1CF86957105610508940895E2
:10184000E894BB2766277727CB0197F908950E9474
:101850003A0C0C94AB0C0E949D0C38F00E94A40C26
:1018600020F0952311F00C94940C0C949A0C1124F4
:101870000C94210C0E94FE0B70F3959FC1F3950F01
:1018800050E0551F629FF001729FBB27F00DB11D04
:10189000639FAA27F00DB11DAA1F649F6627B00D94
:1018A000A11D661F829F2227B00DA11D621F739F7D
:1018B000B00DA11D621F839FA00D611D221F749F8B
:1018C0003327A00D611D231F849F600D211D822FD2
:1018D000762F6A2F11249F5750409AF0F1F08823F9
:1018E0004AF0EE0FFF1FBB1F661F771F881F915026
:1018F0005040A9F79E3F510580F00C94940C0C9435
:10190000210C5F3FE4F3983ED4F386957795679575
:10191000B795F795E7959F5FC1F7FE2B880F911D4F
:101920009695879597F9089597F99F6780E870E0F5
:1019300060E008959FEF80EC089500240A94161645
:10194000170618060906089500240A9412161306AD
:10195000140605060895092E0394000C11F488233B
:1019600052F0BB0F40F4BF2B11F460FF04C06F5F57
:101970007F4F8F4F9F4F0895F999FECF92BD81BD44
:10198000F89A992780B50895A6E1B0E044E050E0C8
:101990000C94EA0C262FF999FECF92BD81BDF89ADE
:1019A000019700B4021639F01FBA20BD0FB6F894A3
:1019B000FA9AF99A0FBE08950396272F0E94CB0C2E
:1019C0000E94CA0C252F0E94CB0C242F0C94CB0C08
:1019D000DC01CB01FC01F999FECF06C0F2BDE1BDEF
:1019E000F89A319600B40D9241505040B8F70895DE
:0419F000F894FFCF99
:1019F400C09121004572726F72004C454420494EDB
:101A0400495400425554544F4E535F494E49540073
:101A1400434845434B204C45440047534D20494ED1
:101A240049540057454947485420494E49540047B2
:101A34004554204D4F4445004E4F5420574F524B70
:101A4400204D4F44452100434C4252204D4F4445C4
:101A5400203F0050415353434F4445204F4B0045D2
:101A640052524F5200474554494E47205A5747480F
:101A7400540052203D2000456E74657220746F201E
:101A840050534D00455849542046524F4D20505311
:021A94004D0003
:00000001FF
